{
  "abi": [
    {
      "inputs": [],
      "name": "contractsCount",
      "outputs": [
        {
          "internalType": "uint256",
          "name": "",
          "type": "uint256"
        }
      ],
      "stateMutability": "view",
      "type": "function"
    },
    {
      "inputs": [],
      "name": "create",
      "outputs": [
        {
          "internalType": "address",
          "name": "",
          "type": "address"
        }
      ],
      "stateMutability": "nonpayable",
      "type": "function"
    },
    {
      "inputs": [],
      "name": "getAll",
      "outputs": [
        {
          "internalType": "address[]",
          "name": "",
          "type": "address[]"
        }
      ],
      "stateMutability": "view",
      "type": "function"
    },
    {
      "inputs": [
        {
          "internalType": "uint256",
          "name": "",
          "type": "uint256"
        }
      ],
      "name": "indexesToContracts",
      "outputs": [
        {
          "internalType": "address",
          "name": "",
          "type": "address"
        }
      ],
      "stateMutability": "view",
      "type": "function"
    }
  ],
  "bytecode": "608060405234801561001057600080fd5b50612c66806100206000396000f3fe608060405234801561001057600080fd5b506004361061004c5760003560e01c806353ed5143146100515780638f197e741461006f578063c4fecdb6146100b0578063efc81a8c146100c7575b600080fd5b6100596100cf565b6040516100669190610214565b60405180910390f35b61009861007d366004610261565b6000602081905290815260409020546001600160a01b031681565b6040516001600160a01b039091168152602001610066565b6100b960015481565b604051908152602001610066565b610098610186565b6060600060015467ffffffffffffffff8111156100ee576100ee61027a565b604051908082528060200260200182016040528015610117578160200160208202803683370190505b50905060005b6001548110156101805760008181526020819052604090205482516001600160a01b039091169083908390811061015657610156610290565b6001600160a01b039092166020928302919091019091015280610178816102a6565b91505061011d565b50919050565b6000803360405161019690610207565b6001600160a01b039091168152602001604051809103906000f0801580156101c2573d6000803e3d6000fd5b5060018054600090815260208190526040812080546001600160a01b0319166001600160a01b03851617905581549293506101fc836102a6565b909155509092915050565b612963806102ce83390190565b6020808252825182820181905260009190848201906040850190845b818110156102555783516001600160a01b031683529284019291840191600101610230565b50909695505050505050565b60006020828403121561027357600080fd5b5035919050565b634e487b7160e01b600052604160045260246000fd5b634e487b7160e01b600052603260045260246000fd5b6000600182016102c657634e487b7160e01b600052601160045260246000fd5b506001019056fe60806040523480156200001157600080fd5b50604051620029633803806200296383398101604081905262000034916200005a565b600b80546001600160a01b0319166001600160a01b03929092169190911790556200008c565b6000602082840312156200006d57600080fd5b81516001600160a01b03811681146200008557600080fd5b9392505050565b6128c7806200009c6000396000f3fe60806040526004361061021a5760003560e01c80638444f15311610123578063c44c209a116100ab578063f1ef7ff21161006f578063f1ef7ff2146106a4578063f4b7a413146106c4578063f5682523146106e4578063f851a44014610704578063fc9541441461072457600080fd5b8063c44c209a1461060f578063d11711a21461062f578063d64f6cb614610644578063dc865c8214610664578063e5664d841461068457600080fd5b80639bdeb335116100f25780639bdeb3351461057f578063a525d23714610594578063aa6cb71d146105a9578063b1cde244146105bf578063bb0f0d51146105ef57600080fd5b80638444f153146104d0578063927f6aee146104f0578063942e6bcf1461051057806398c32a7f1461054f57600080fd5b80633ccfd60b116101a65780637073c072116101755780637073c0721461045157806372c0fe1d14610473578063793a2954146104935780637c4b414d146104b35780637e87c053146104bb57600080fd5b80633ccfd60b146103835780633db5a524146103985780635ee58efc146103ae57806362b21fa11461042457600080fd5b80631eeadfa8116101ed5780631eeadfa8146102c65780632199d5cd146102ea57806323e8e9bf1461030a5780633c3ec8b71461031f5780633c961fc21461036d57600080fd5b80631754d62d1461021f5780631aa3a008146102635780631ba7dd1e1461027a5780631c5f47ee1461029c575b600080fd5b34801561022b57600080fd5b50600f5460105460115461024192919060ff1683565b6040805193845260208401929092521515908201526060015b60405180910390f35b34801561026f57600080fd5b50610278610770565b005b34801561028657600080fd5b5061028f6107c3565b60405161025a91906121a7565b3480156102a857600080fd5b506014546102b69060ff1681565b604051901515815260200161025a565b3480156102d257600080fd5b506102dc60075481565b60405190815260200161025a565b3480156102f657600080fd5b50610278610305366004612207565b61081b565b34801561031657600080fd5b50610278610890565b34801561032b57600080fd5b5061035561033a366004612222565b6001602052600090815260409020546001600160a01b031681565b6040516001600160a01b03909116815260200161025a565b34801561037957600080fd5b506102dc60085481565b34801561038f57600080fd5b50610278610903565b3480156103a457600080fd5b506102dc60065481565b3480156103ba57600080fd5b50600c54600d54600e546103ec926001600160a01b0381169260ff600160a01b8304811693600160a81b909304169185565b604080516001600160a01b0390961686529315156020860152911515928401929092526060830191909152608082015260a00161025a565b34801561043057600080fd5b506102dc61043f366004612207565b60046020526000908152604090205481565b34801561045d57600080fd5b50610466610c3e565b60405161025a919061223b565b34801561047f57600080fd5b5061027861048e366004612222565b610cf8565b34801561049f57600080fd5b506102786104ae36600461227c565b610e05565b610278610f63565b3480156104c757600080fd5b5061028f6110ba565b3480156104dc57600080fd5b506102786104eb36600461227c565b611110565b3480156104fc57600080fd5b506102dc61050b366004612222565b61118c565b34801561051c57600080fd5b5061024161052b366004612207565b60006020819052908152604090208054600182015460029092015490919060ff1683565b34801561055b57600080fd5b506102b661056a366004612207565b60056020526000908152604090205460ff1681565b34801561058b57600080fd5b506102786111ad565b3480156105a057600080fd5b506102786113ef565b3480156105b557600080fd5b506102dc60025481565b3480156105cb57600080fd5b506012546013546105da919082565b6040805192835260208301919091520161025a565b3480156105fb57600080fd5b5061027861060a36600461229e565b61158e565b34801561061b57600080fd5b5061027861062a36600461235c565b611612565b34801561063b57600080fd5b506102786117a5565b34801561065057600080fd5b5061027861065f36600461245f565b6118ee565b34801561067057600080fd5b5061027861067f3660046124a6565b611ac8565b34801561069057600080fd5b5061027861069f3660046124db565b611b81565b3480156106b057600080fd5b506102dc6106bf366004612222565b611ceb565b3480156106d057600080fd5b506102786106df36600461258d565b611cfb565b3480156106f057600080fd5b506102786106ff36600461229e565b611ffa565b34801561071057600080fd5b50600b54610355906001600160a01b031681565b34801561073057600080fd5b5061075b61073f366004612207565b6003602052600090815260409020805460019091015460ff1682565b6040805192835290151560208301520161025a565b600f54421080159061078457506010544211155b8015610793575060115460ff16155b6107b85760405162461bcd60e51b81526004016107af906125e7565b60405180910390fd5b6107c133612040565b565b6060600980548060200260200160405190810160405280929190818152602001828054801561081157602002820191906000526020600020905b8154815260200190600101908083116107fd575b5050505050905090565b600f54421080159061082f57506010544211155b801561083e575060115460ff16155b61085a5760405162461bcd60e51b81526004016107af906125e7565b600b546001600160a01b031633146108845760405162461bcd60e51b81526004016107af90612634565b61088d81612040565b50565b600b546001600160a01b031633146108ba5760405162461bcd60e51b81526004016107af90612634565b6011805460ff191660011790556040517f7069b20063a2c984d75a2165d1633fd0be67afe3680341d2fc5d0cce78c9ceea906108f99042815260200190565b60405180910390a1565b600a5415801590610915575060095415155b6109315760405162461bcd60e51b81526004016107af9061266b565b3360009081526020819052604090206002015460ff166109935760405162461bcd60e51b815260206004820152601960248201527f41646472657373206973206e6f7420726567697374657265640000000000000060448201526064016107af565b3360009081526003602052604090206001015460ff16610a095760405162461bcd60e51b815260206004820152602b60248201527f41646472657373206973206e6f742070617274696369706174656420696e206460448201526a34b9ba3934b13aba34b7b760a91b60648201526084016107af565b3360009081526005602052604090205460ff1615610a775760405162461bcd60e51b815260206004820152602560248201527f416464726573732068617320657865637574656420776974686472617720616c604482015264726561647960d81b60648201526084016107af565b3360009081526020819052604081206001810154610aa75760405162461bcd60e51b81526004016107af906126a2565b60005b600954811015610b3c5760098181548110610ac757610ac76126d9565b90600052602060002001544210610b2a576000610b1a600754610b14600a8581548110610af657610af66126d9565b9060005260206000200154866001015461217090919063ffffffff16565b90612183565b9050610b26848261218f565b9350505b80610b3481612705565b915050610aaa565b5060008211610b8d5760405162461bcd60e51b815260206004820152601d60248201527f5468657265206973206e6f7468696e6720746f2077696474686472617700000060448201526064016107af565b47821115610bad5760405162461bcd60e51b81526004016107af9061271e565b336000908152600560205260409020805460ff19166001179055600e54610bd4908361218f565b600e55604051339083156108fc029084906000818181858888f19350505050158015610c04573d6000803e3d6000fd5b5060405182815233907f6352c5382c4a4578e712449ca65e83cdb392d045dfcf1cad9615189db2da244b9060200160405180910390a25050565b6060600060025467ffffffffffffffff811115610c5d57610c5d6122c8565b604051908082528060200260200182016040528015610c86578160200160208202803683370190505b50905060005b600254811015610cf25760008181526001602052604090205482516001600160a01b03909116908190849084908110610cc757610cc76126d9565b6001600160a01b03909216602092830291909101909101525080610cea81612705565b915050610c8c565b50919050565b600b546001600160a01b03163314610d225760405162461bcd60e51b81526004016107af90612634565b600a5415801590610d34575060095415155b610d505760405162461bcd60e51b81526004016107af9061266b565b60098054610d6090600190612762565b81548110610d7057610d706126d9565b90600052602060002001548111610e005760405162461bcd60e51b815260206004820152604860248201527f546865206c61737420646179206f662074686520646973747269627574696f6e60448201527f206d757374206265206c61746572207468616e20746865206c61737420756e6c6064820152676f636b2074696d6560c01b608482015260a4016107af565b600655565b600b546001600160a01b03163314610e2f5760405162461bcd60e51b81526004016107af90612634565b600c54600160a01b900460ff16610e945760405162461bcd60e51b815260206004820152602360248201527f446973747269627574696f6e20706172616d657465727320617265206e6f74206044820152621cd95d60ea1b60648201526084016107af565b6010548211610f0b5760405162461bcd60e51b815260206004820152603860248201527f446973747269627574696f6e20726f756e64206d757374206265206c6174657260448201527f207468616e20726567697374726174696f6e20726f756e64000000000000000060648201526084016107af565b60408051808201825283815260200182905260128390556013829055517f7d5e91551dc6f3038619d85da877b41440d669756a40eeb78b1c9df6c6a988d590610f579042815260200190565b60405180910390a15050565b600c546001600160a01b03163314610f8d5760405162461bcd60e51b81526004016107af90612779565b600c54600160a01b900460ff16610fb65760405162461bcd60e51b81526004016107af906127bf565b600c54600160a81b900460ff161561101a5760405162461bcd60e51b815260206004820152602160248201527f546f6b656e7320686173206265656e206465706f736974656420616c726561646044820152607960f81b60648201526084016107af565b600d5434146110a55760405162461bcd60e51b815260206004820152604b60248201527f546865206465706f73697420616d6f756e74206973206e6f7420657175616c2060448201527f746f207468652070726573657420616d6f756e74206f6620646973747269627560648201526a74696f6e20746f6b656e7360a81b608482015260a4016107af565b600c805460ff60a81b1916600160a81b179055565b6060600a80548060200260200160405190810160405280929190818152602001828054801561081157602002820191906000526020600020908154815260200190600101908083116107fd575050505050905090565b600b546001600160a01b0316331461113a5760405162461bcd60e51b81526004016107af90612634565b42821015801561114957508181115b61115257600080fd5b600f82905560108190556040514281527f95a21281108b566135ddaa849f46ac5edee2287699ce9443ac1490705cd63d7790602001610f57565b600a818154811061119c57600080fd5b600091825260209091200154905081565b6000600854116111cf5760405162461bcd60e51b81526004016107af9061266b565b3360009081526005602052604090205460ff161561122f5760405162461bcd60e51b815260206004820152601a60248201527f4164647265737320616c7265616479207769647468647261776e00000000000060448201526064016107af565b336000908152602081905260408120600181015461125f5760405162461bcd60e51b81526004016107af906126a2565b33600090815260046020526040812054905b818110156112ec5760006112b5600754610b14600a8581548110611297576112976126d9565b9060005260206000200154876001015461217090919063ffffffff16565b60018501549091506112c7908261219b565b60018501556112d6858261218f565b94505080806112e490612705565b915050611271565b506000831161133d5760405162461bcd60e51b815260206004820152601d60248201527f5468657265206973206e6f7468696e6720746f2077696474686472617700000060448201526064016107af565b4783111561135d5760405162461bcd60e51b81526004016107af9061271e565b336000908152600560205260409020805460ff19166001179055600e54611384908461218f565b600e55604051339084156108fc029085906000818181858888f193505050501580156113b4573d6000803e3d6000fd5b5060405183815233907f6352c5382c4a4578e712449ca65e83cdb392d045dfcf1cad9615189db2da244b9060200160405180910390a2505050565b600b546001600160a01b031633146114195760405162461bcd60e51b81526004016107af90612634565b60006006541161146b5760405162461bcd60e51b815260206004820152601b60248201527f56657374696e6720656e642064617465206973206e6f7420736574000000000060448201526064016107af565b6006544210156114c85760405162461bcd60e51b815260206004820152602260248201527f56657374696e6720706572696f64206973206e6f742066696e69736865642079604482015261195d60f21b60648201526084016107af565b60145460ff161561151b5760405162461bcd60e51b815260206004820152601a60248201527f4c6566746f76657220616c72656164792077697468647261776e00000000000060448201526064016107af565b600e54600d5460009161152e919061219b565b9050600081116115505760405162461bcd60e51b81526004016107af906126a2565b6014805460ff19166001179055604051339082156108fc029083906000818181858888f1935050505015801561158a573d6000803e3d6000fd5b5050565b600b546001600160a01b031633146115b85760405162461bcd60e51b81526004016107af90612634565b6001600160a01b03821660009081526020819052604090206002015460ff166115f35760405162461bcd60e51b81526004016107af906127f6565b6001600160a01b03909116600090815260208190526040902060010155565b600f54421080159061162657506010544211155b8015611635575060115460ff16155b6116515760405162461bcd60e51b81526004016107af906125e7565b600b546001600160a01b0316331461167b5760405162461bcd60e51b81526004016107af90612634565b60008151116116ea5760405162461bcd60e51b815260206004820152603560248201527f54686520616464726573736573206172726179206d75737420636f6e7461696e604482015274081bdb9948195b195b595b9d08185d081b19585cdd605a1b60648201526084016107af565b60005b815181101561176d5760008083838151811061170b5761170b6126d9565b6020908102919091018101516001600160a01b031682528101919091526040016000206002015460ff1661175b5761175b82828151811061174e5761174e6126d9565b6020026020010151612040565b8061176581612705565b9150506116ed565b506040514281527f3ed3ff891af065b7aecb80d2d3e0543afd07e2b38e36d9e98700feebf26482b3906020015b60405180910390a150565b60125442108015906117b957506013544211155b61181b5760405162461bcd60e51b815260206004820152602d60248201527f446973747269627574696f6e20726f756e64206973206f766572206f72206e6f60448201526c1d081cdd185c9d1959081e595d609a1b60648201526084016107af565b3360009081526003602052604090206001015460ff161561187e5760405162461bcd60e51b815260206004820152601c60248201527f4164647265737320616c7265616479207061727469636970617465640000000060448201526064016107af565b60408051808201825242808252600160208084018281523360008181526003845287902095518655905194909201805460ff19169415159490941790935592519081527fb198f199c43cc078ad46e5a5fabe03eba401f7417816c86af0bd2e7345c99506910160405180910390a2565b600b546001600160a01b031633146119185760405162461bcd60e51b81526004016107af90612634565b8051821461198e5760405162461bcd60e51b815260206004820152603a60248201527f4576656e747320636f756c64206d75737420626520657175616c20776974682060448201527f506572636570742050657220506f7274696f6e206c656e67746800000000000060648201526084016107af565b600c54600160a01b900460ff166119b75760405162461bcd60e51b81526004016107af906127bf565b60088290556000805b83811015611a3e57600a8382815181106119dc576119dc6126d9565b602090810291909101810151825460018101845560009384529190922001558251611a2a90849083908110611a1357611a136126d9565b60200260200101518361218f90919063ffffffff16565b915080611a3681612705565b9150506119c0565b508060075414611a905760405162461bcd60e51b815260206004820152601860248201527f507265636973696f6e2070657263656e7473206973737565000000000000000060448201526064016107af565b6040514281527f1af3c14ce558c4a33618e1f36c8ea383fc552a672298056311fa66518719f6e09060200160405180910390a1505050565b600b546001600160a01b03163314611af25760405162461bcd60e51b81526004016107af90612634565b600c54600160a01b900460ff1615611b4c5760405162461bcd60e51b815260206004820152601c60248201527f446973747269627574696f6e20616c726561647920637265617465640000000060448201526064016107af565b600c8054600d949094556007929092556001600160a81b03199092166001600160a01b0390921691909117600160a01b179055565b600b546001600160a01b03163314611bab5760405162461bcd60e51b81526004016107af90612634565b6000815111611c1b5760405162461bcd60e51b815260206004820152603660248201527f54686520616c6c6f636174696f6e206172726179206d75737420636f6e7461696044820152751b881bdb9948195b195b595b9d08185d081b19585cdd60521b60648201526084016107af565b60005b8151811015611cba576000828281518110611c3b57611c3b6126d9565b60209081029190910181015180516001600160a01b031660009081529182905260409091206002015490915060ff16611c865760405162461bcd60e51b81526004016107af906127f6565b60208082015191516001600160a01b0316600090815290819052604090206001015580611cb281612705565b915050611c1e565b506040514281527fb470a061a328bedea790142ca3e477573b6337191c39704740003dc082e76ecf9060200161179a565b6009818154811061119c57600080fd5b600b546001600160a01b03163314611d255760405162461bcd60e51b81526004016107af90612634565b600a54158015611d355750600954155b611d815760405162461bcd60e51b815260206004820152601e60248201527f56657374696e6720706172616d657465727320616c726561647920736574000060448201526064016107af565b8051825114611e065760405162461bcd60e51b8152602060048201526044602482018190527f556e6c6f636b696e672054696d6573206c656e677468206d7573742062652065908201527f7175616c20776974682050657263656e742050657220506f7274696f6e206c656064820152630dccee8d60e31b608482015260a4016107af565b600c54600160a01b900460ff16611e2f5760405162461bcd60e51b81526004016107af906127bf565b60126001015482600081518110611e4857611e486126d9565b602002602001015111611eb55760405162461bcd60e51b815260206004820152602f60248201527f556e6c6f636b2074696d65206d7573742062652061667465722074686520646960448201526e73747269627574696f6e20656e647360881b60648201526084016107af565b6000805b8351811015611a3e578015611f655783611ed4600183612762565b81518110611ee457611ee46126d9565b6020026020010151848281518110611efe57611efe6126d9565b602002602001015111611f655760405162461bcd60e51b815260206004820152602960248201527f556e6c6f636b2074696d65206d7573742062652067726561746572207468616e6044820152682070726576696f757360b81b60648201526084016107af565b6009848281518110611f7957611f796126d9565b602090810291909101810151825460018101845560009384529190922001558251600a90849083908110611faf57611faf6126d9565b602090810291909101810151825460018101845560009384529190922001558251611fe690849083908110611a1357611a136126d9565b915080611ff281612705565b915050611eb9565b600c546001600160a01b031633146120245760405162461bcd60e51b81526004016107af90612779565b6001600160a01b03909116600090815260046020526040902055565b6001600160a01b03811660009081526020819052604090206002015460ff16156120ac5760405162461bcd60e51b815260206004820152601a60248201527f4164647265737320616c7265616479207265676973746572656400000000000060448201526064016107af565b604080516060810182524281526000602080830182815260018486018181526001600160a01b03881680865285855287862096518755925186830155516002958601805460ff19169115159190911790558454845290915292812080546001600160a01b03191690931790925580549161212583612705565b9190505550806001600160a01b03167f6f3bf3fa84e4763a43b3d23f9d79be242d6d5c834941ff4c1111b67469e1150c4260405161216591815260200190565b60405180910390a250565b600061217c8284612838565b9392505050565b600061217c8284612857565b600061217c8284612879565b600061217c8284612762565b6020808252825182820181905260009190848201906040850190845b818110156121df578351835292840192918401916001016121c3565b50909695505050505050565b80356001600160a01b038116811461220257600080fd5b919050565b60006020828403121561221957600080fd5b61217c826121eb565b60006020828403121561223457600080fd5b5035919050565b6020808252825182820181905260009190848201906040850190845b818110156121df5783516001600160a01b031683529284019291840191600101612257565b6000806040838503121561228f57600080fd5b50508035926020909101359150565b600080604083850312156122b157600080fd5b6122ba836121eb565b946020939093013593505050565b634e487b7160e01b600052604160045260246000fd5b6040805190810167ffffffffffffffff81118282101715612301576123016122c8565b60405290565b604051601f8201601f1916810167ffffffffffffffff81118282101715612330576123306122c8565b604052919050565b600067ffffffffffffffff821115612352576123526122c8565b5060051b60200190565b6000602080838503121561236f57600080fd5b823567ffffffffffffffff81111561238657600080fd5b8301601f8101851361239757600080fd5b80356123aa6123a582612338565b612307565b81815260059190911b820183019083810190878311156123c957600080fd5b928401925b828410156123ee576123df846121eb565b825292840192908401906123ce565b979650505050505050565b600082601f83011261240a57600080fd5b8135602061241a6123a583612338565b82815260059290921b8401810191818101908684111561243957600080fd5b8286015b84811015612454578035835291830191830161243d565b509695505050505050565b6000806040838503121561247257600080fd5b82359150602083013567ffffffffffffffff81111561249057600080fd5b61249c858286016123f9565b9150509250929050565b6000806000606084860312156124bb57600080fd5b83359250602084013591506124d2604085016121eb565b90509250925092565b600060208083850312156124ee57600080fd5b823567ffffffffffffffff81111561250557600080fd5b8301601f8101851361251657600080fd5b80356125246123a582612338565b81815260069190911b8201830190838101908783111561254357600080fd5b928401925b828410156123ee57604084890312156125615760008081fd5b6125696122de565b612572856121eb565b81528486013586820152825260409093019290840190612548565b600080604083850312156125a057600080fd5b823567ffffffffffffffff808211156125b857600080fd5b6125c4868387016123f9565b935060208501359150808211156125da57600080fd5b5061249c858286016123f9565b6020808252602d908201527f526567697374726174696f6e20726f756e64206973206f766572206f72206e6f60408201526c1d081cdd185c9d1959081e595d609a1b606082015260800190565b60208082526019908201527f416c6c6f77732061646d696e2061646472657373206f6e6c7900000000000000604082015260600190565b6020808252601e908201527f56657374696e6720706172616d657465727320617265206e6f74207365740000604082015260600190565b6020808252601c908201527f5468657265206973206e6f7468696e6720746f20776974686472617700000000604082015260600190565b634e487b7160e01b600052603260045260246000fd5b634e487b7160e01b600052601160045260246000fd5b600060018201612717576127176126ef565b5060010190565b60208082526024908201527f5468657265206973206e6f207375636820616d6f756e7420746f2077696474686040820152636472617760e01b606082015260800190565b600082821015612774576127746126ef565b500390565b60208082526026908201527f416c6c6f777320646973747269627574696f6e206f776e65722061646472657360408201526573206f6e6c7960d01b606082015260800190565b6020808252601b908201527f446973747269627574696f6e206973206e6f7420637265617465640000000000604082015260600190565b60208082526022908201527f50726f76696465642061646472657373206973206e6f74207265676973746572604082015261195960f21b606082015260800190565b6000816000190483118215151615612852576128526126ef565b500290565b60008261287457634e487b7160e01b600052601260045260246000fd5b500490565b6000821982111561288c5761288c6126ef565b50019056fea26469706673582212205983632ce0e8189a08a7441213f6e91b326f0bebf289005b97f0c973983e799b64736f6c634300080e0033a264697066735822122080285cd063736e1036bf364b82c208be189997eef9724dd0075045af78d9b7ec64736f6c634300080e0033",
  "bytecodeSha1": "68ba03802ab502f8dc7c046a2d048734cf82378e",
  "compiler": {
    "evm_version": "istanbul",
    "optimizer": {
      "enabled": true,
      "runs": 200
    },
    "version": "0.8.14+commit.80d49f37"
  },
  "contractName": "DistributorNativeFactory",
  "language": "Solidity",
  "natspec": {
    "kind": "dev",
    "methods": {},
    "version": 1
  },
  "opcodes": "PUSH1 0x80 PUSH1 0x40 MSTORE CALLVALUE DUP1 ISZERO PUSH2 0x10 JUMPI PUSH1 0x0 DUP1 REVERT JUMPDEST POP PUSH1 0x4 CALLDATASIZE LT PUSH2 0x4C JUMPI PUSH1 0x0 CALLDATALOAD PUSH1 0xE0 SHR DUP1 PUSH4 0x53ED5143 EQ PUSH2 0x51 JUMPI DUP1 PUSH4 0x8F197E74 EQ PUSH2 0x6F JUMPI DUP1 PUSH4 0xC4FECDB6 EQ PUSH2 0xB0 JUMPI DUP1 PUSH4 0xEFC81A8C EQ PUSH2 0xC7 JUMPI JUMPDEST PUSH1 0x0 DUP1 REVERT JUMPDEST PUSH2 0x59 PUSH2 0xCF JUMP JUMPDEST PUSH1 0x40 MLOAD PUSH2 0x66 SWAP2 SWAP1 PUSH2 0x214 JUMP JUMPDEST PUSH1 0x40 MLOAD DUP1 SWAP2 SUB SWAP1 RETURN JUMPDEST PUSH2 0x98 PUSH2 0x7D CALLDATASIZE PUSH1 0x4 PUSH2 0x261 JUMP JUMPDEST PUSH1 0x0 PUSH1 0x20 DUP2 SWAP1 MSTORE SWAP1 DUP2 MSTORE PUSH1 0x40 SWAP1 KECCAK256 SLOAD PUSH1 0x1 PUSH1 0x1 PUSH1 0xA0 SHL SUB AND DUP2 JUMP JUMPDEST PUSH1 0x40 MLOAD PUSH1 0x1 PUSH1 0x1 PUSH1 0xA0 SHL SUB SWAP1 SWAP2 AND DUP2 MSTORE PUSH1 0x20 ADD PUSH2 0x66 JUMP JUMPDEST PUSH2 0xB9 PUSH1 0x1 SLOAD DUP2 JUMP JUMPDEST PUSH1 0x40 MLOAD SWAP1 DUP2 MSTORE PUSH1 0x20 ADD PUSH2 0x66 JUMP JUMPDEST PUSH2 0x98 PUSH2 0x186 JUMP JUMPDEST PUSH1 0x60 PUSH1 0x0 PUSH1 0x1 SLOAD PUSH8 0xFFFFFFFFFFFFFFFF DUP2 GT ISZERO PUSH2 0xEE JUMPI PUSH2 0xEE PUSH2 0x27A JUMP JUMPDEST PUSH1 0x40 MLOAD SWAP1 DUP1 DUP3 MSTORE DUP1 PUSH1 0x20 MUL PUSH1 0x20 ADD DUP3 ADD PUSH1 0x40 MSTORE DUP1 ISZERO PUSH2 0x117 JUMPI DUP2 PUSH1 0x20 ADD PUSH1 0x20 DUP3 MUL DUP1 CALLDATASIZE DUP4 CALLDATACOPY ADD SWAP1 POP JUMPDEST POP SWAP1 POP PUSH1 0x0 JUMPDEST PUSH1 0x1 SLOAD DUP2 LT ISZERO PUSH2 0x180 JUMPI PUSH1 0x0 DUP2 DUP2 MSTORE PUSH1 0x20 DUP2 SWAP1 MSTORE PUSH1 0x40 SWAP1 KECCAK256 SLOAD DUP3 MLOAD PUSH1 0x1 PUSH1 0x1 PUSH1 0xA0 SHL SUB SWAP1 SWAP2 AND SWAP1 DUP4 SWAP1 DUP4 SWAP1 DUP2 LT PUSH2 0x156 JUMPI PUSH2 0x156 PUSH2 0x290 JUMP JUMPDEST PUSH1 0x1 PUSH1 0x1 PUSH1 0xA0 SHL SUB SWAP1 SWAP3 AND PUSH1 0x20 SWAP3 DUP4 MUL SWAP2 SWAP1 SWAP2 ADD SWAP1 SWAP2 ADD MSTORE DUP1 PUSH2 0x178 DUP2 PUSH2 0x2A6 JUMP JUMPDEST SWAP2 POP POP PUSH2 0x11D JUMP JUMPDEST POP SWAP2 SWAP1 POP JUMP JUMPDEST PUSH1 0x0 DUP1 CALLER PUSH1 0x40 MLOAD PUSH2 0x196 SWAP1 PUSH2 0x207 JUMP JUMPDEST PUSH1 0x1 PUSH1 0x1 PUSH1 0xA0 SHL SUB SWAP1 SWAP2 AND DUP2 MSTORE PUSH1 0x20 ADD PUSH1 0x40 MLOAD DUP1 SWAP2 SUB SWAP1 PUSH1 0x0 CREATE DUP1 ISZERO DUP1 ISZERO PUSH2 0x1C2 JUMPI RETURNDATASIZE PUSH1 0x0 DUP1 RETURNDATACOPY RETURNDATASIZE PUSH1 0x0 REVERT JUMPDEST POP PUSH1 0x1 DUP1 SLOAD PUSH1 0x0 SWAP1 DUP2 MSTORE PUSH1 0x20 DUP2 SWAP1 MSTORE PUSH1 0x40 DUP2 KECCAK256 DUP1 SLOAD PUSH1 0x1 PUSH1 0x1 PUSH1 0xA0 SHL SUB NOT AND PUSH1 0x1 PUSH1 0x1 PUSH1 0xA0 SHL SUB DUP6 AND OR SWAP1 SSTORE DUP2 SLOAD SWAP3 SWAP4 POP PUSH2 0x1FC DUP4 PUSH2 0x2A6 JUMP JUMPDEST SWAP1 SWAP2 SSTORE POP SWAP1 SWAP3 SWAP2 POP POP JUMP JUMPDEST PUSH2 0x2963 DUP1 PUSH2 0x2CE DUP4 CODECOPY ADD SWAP1 JUMP JUMPDEST PUSH1 0x20 DUP1 DUP3 MSTORE DUP3 MLOAD DUP3 DUP3 ADD DUP2 SWAP1 MSTORE PUSH1 0x0 SWAP2 SWAP1 DUP5 DUP3 ADD SWAP1 PUSH1 0x40 DUP6 ADD SWAP1 DUP5 JUMPDEST DUP2 DUP2 LT ISZERO PUSH2 0x255 JUMPI DUP4 MLOAD PUSH1 0x1 PUSH1 0x1 PUSH1 0xA0 SHL SUB AND DUP4 MSTORE SWAP3 DUP5 ADD SWAP3 SWAP2 DUP5 ADD SWAP2 PUSH1 0x1 ADD PUSH2 0x230 JUMP JUMPDEST POP SWAP1 SWAP7 SWAP6 POP POP POP POP POP POP JUMP JUMPDEST PUSH1 0x0 PUSH1 0x20 DUP3 DUP5 SUB SLT ISZERO PUSH2 0x273 JUMPI PUSH1 0x0 DUP1 REVERT JUMPDEST POP CALLDATALOAD SWAP2 SWAP1 POP JUMP JUMPDEST PUSH4 0x4E487B71 PUSH1 0xE0 SHL PUSH1 0x0 MSTORE PUSH1 0x41 PUSH1 0x4 MSTORE PUSH1 0x24 PUSH1 0x0 REVERT JUMPDEST PUSH4 0x4E487B71 PUSH1 0xE0 SHL PUSH1 0x0 MSTORE PUSH1 0x32 PUSH1 0x4 MSTORE PUSH1 0x24 PUSH1 0x0 REVERT JUMPDEST PUSH1 0x0 PUSH1 0x1 DUP3 ADD PUSH2 0x2C6 JUMPI PUSH4 0x4E487B71 PUSH1 0xE0 SHL PUSH1 0x0 MSTORE PUSH1 0x11 PUSH1 0x4 MSTORE PUSH1 0x24 PUSH1 0x0 REVERT JUMPDEST POP PUSH1 0x1 ADD SWAP1 JUMP INVALID PUSH1 0x80 PUSH1 0x40 MSTORE CALLVALUE DUP1 ISZERO PUSH3 0x11 JUMPI PUSH1 0x0 DUP1 REVERT JUMPDEST POP PUSH1 0x40 MLOAD PUSH3 0x2963 CODESIZE SUB DUP1 PUSH3 0x2963 DUP4 CODECOPY DUP2 ADD PUSH1 0x40 DUP2 SWAP1 MSTORE PUSH3 0x34 SWAP2 PUSH3 0x5A JUMP JUMPDEST PUSH1 0xB DUP1 SLOAD PUSH1 0x1 PUSH1 0x1 PUSH1 0xA0 SHL SUB NOT AND PUSH1 0x1 PUSH1 0x1 PUSH1 0xA0 SHL SUB SWAP3 SWAP1 SWAP3 AND SWAP2 SWAP1 SWAP2 OR SWAP1 SSTORE PUSH3 0x8C JUMP JUMPDEST PUSH1 0x0 PUSH1 0x20 DUP3 DUP5 SUB SLT ISZERO PUSH3 0x6D JUMPI PUSH1 0x0 DUP1 REVERT JUMPDEST DUP2 MLOAD PUSH1 0x1 PUSH1 0x1 PUSH1 0xA0 SHL SUB DUP2 AND DUP2 EQ PUSH3 0x85 JUMPI PUSH1 0x0 DUP1 REVERT JUMPDEST SWAP4 SWAP3 POP POP POP JUMP JUMPDEST PUSH2 0x28C7 DUP1 PUSH3 0x9C PUSH1 0x0 CODECOPY PUSH1 0x0 RETURN INVALID PUSH1 0x80 PUSH1 0x40 MSTORE PUSH1 0x4 CALLDATASIZE LT PUSH2 0x21A JUMPI PUSH1 0x0 CALLDATALOAD PUSH1 0xE0 SHR DUP1 PUSH4 0x8444F153 GT PUSH2 0x123 JUMPI DUP1 PUSH4 0xC44C209A GT PUSH2 0xAB JUMPI DUP1 PUSH4 0xF1EF7FF2 GT PUSH2 0x6F JUMPI DUP1 PUSH4 0xF1EF7FF2 EQ PUSH2 0x6A4 JUMPI DUP1 PUSH4 0xF4B7A413 EQ PUSH2 0x6C4 JUMPI DUP1 PUSH4 0xF5682523 EQ PUSH2 0x6E4 JUMPI DUP1 PUSH4 0xF851A440 EQ PUSH2 0x704 JUMPI DUP1 PUSH4 0xFC954144 EQ PUSH2 0x724 JUMPI PUSH1 0x0 DUP1 REVERT JUMPDEST DUP1 PUSH4 0xC44C209A EQ PUSH2 0x60F JUMPI DUP1 PUSH4 0xD11711A2 EQ PUSH2 0x62F JUMPI DUP1 PUSH4 0xD64F6CB6 EQ PUSH2 0x644 JUMPI DUP1 PUSH4 0xDC865C82 EQ PUSH2 0x664 JUMPI DUP1 PUSH4 0xE5664D84 EQ PUSH2 0x684 JUMPI PUSH1 0x0 DUP1 REVERT JUMPDEST DUP1 PUSH4 0x9BDEB335 GT PUSH2 0xF2 JUMPI DUP1 PUSH4 0x9BDEB335 EQ PUSH2 0x57F JUMPI DUP1 PUSH4 0xA525D237 EQ PUSH2 0x594 JUMPI DUP1 PUSH4 0xAA6CB71D EQ PUSH2 0x5A9 JUMPI DUP1 PUSH4 0xB1CDE244 EQ PUSH2 0x5BF JUMPI DUP1 PUSH4 0xBB0F0D51 EQ PUSH2 0x5EF JUMPI PUSH1 0x0 DUP1 REVERT JUMPDEST DUP1 PUSH4 0x8444F153 EQ PUSH2 0x4D0 JUMPI DUP1 PUSH4 0x927F6AEE EQ PUSH2 0x4F0 JUMPI DUP1 PUSH4 0x942E6BCF EQ PUSH2 0x510 JUMPI DUP1 PUSH4 0x98C32A7F EQ PUSH2 0x54F JUMPI PUSH1 0x0 DUP1 REVERT JUMPDEST DUP1 PUSH4 0x3CCFD60B GT PUSH2 0x1A6 JUMPI DUP1 PUSH4 0x7073C072 GT PUSH2 0x175 JUMPI DUP1 PUSH4 0x7073C072 EQ PUSH2 0x451 JUMPI DUP1 PUSH4 0x72C0FE1D EQ PUSH2 0x473 JUMPI DUP1 PUSH4 0x793A2954 EQ PUSH2 0x493 JUMPI DUP1 PUSH4 0x7C4B414D EQ PUSH2 0x4B3 JUMPI DUP1 PUSH4 0x7E87C053 EQ PUSH2 0x4BB JUMPI PUSH1 0x0 DUP1 REVERT JUMPDEST DUP1 PUSH4 0x3CCFD60B EQ PUSH2 0x383 JUMPI DUP1 PUSH4 0x3DB5A524 EQ PUSH2 0x398 JUMPI DUP1 PUSH4 0x5EE58EFC EQ PUSH2 0x3AE JUMPI DUP1 PUSH4 0x62B21FA1 EQ PUSH2 0x424 JUMPI PUSH1 0x0 DUP1 REVERT JUMPDEST DUP1 PUSH4 0x1EEADFA8 GT PUSH2 0x1ED JUMPI DUP1 PUSH4 0x1EEADFA8 EQ PUSH2 0x2C6 JUMPI DUP1 PUSH4 0x2199D5CD EQ PUSH2 0x2EA JUMPI DUP1 PUSH4 0x23E8E9BF EQ PUSH2 0x30A JUMPI DUP1 PUSH4 0x3C3EC8B7 EQ PUSH2 0x31F JUMPI DUP1 PUSH4 0x3C961FC2 EQ PUSH2 0x36D JUMPI PUSH1 0x0 DUP1 REVERT JUMPDEST DUP1 PUSH4 0x1754D62D EQ PUSH2 0x21F JUMPI DUP1 PUSH4 0x1AA3A008 EQ PUSH2 0x263 JUMPI DUP1 PUSH4 0x1BA7DD1E EQ PUSH2 0x27A JUMPI DUP1 PUSH4 0x1C5F47EE EQ PUSH2 0x29C JUMPI JUMPDEST PUSH1 0x0 DUP1 REVERT JUMPDEST CALLVALUE DUP1 ISZERO PUSH2 0x22B JUMPI PUSH1 0x0 DUP1 REVERT JUMPDEST POP PUSH1 0xF SLOAD PUSH1 0x10 SLOAD PUSH1 0x11 SLOAD PUSH2 0x241 SWAP3 SWAP2 SWAP1 PUSH1 0xFF AND DUP4 JUMP JUMPDEST PUSH1 0x40 DUP1 MLOAD SWAP4 DUP5 MSTORE PUSH1 0x20 DUP5 ADD SWAP3 SWAP1 SWAP3 MSTORE ISZERO ISZERO SWAP1 DUP3 ADD MSTORE PUSH1 0x60 ADD JUMPDEST PUSH1 0x40 MLOAD DUP1 SWAP2 SUB SWAP1 RETURN JUMPDEST CALLVALUE DUP1 ISZERO PUSH2 0x26F JUMPI PUSH1 0x0 DUP1 REVERT JUMPDEST POP PUSH2 0x278 PUSH2 0x770 JUMP JUMPDEST STOP JUMPDEST CALLVALUE DUP1 ISZERO PUSH2 0x286 JUMPI PUSH1 0x0 DUP1 REVERT JUMPDEST POP PUSH2 0x28F PUSH2 0x7C3 JUMP JUMPDEST PUSH1 0x40 MLOAD PUSH2 0x25A SWAP2 SWAP1 PUSH2 0x21A7 JUMP JUMPDEST CALLVALUE DUP1 ISZERO PUSH2 0x2A8 JUMPI PUSH1 0x0 DUP1 REVERT JUMPDEST POP PUSH1 0x14 SLOAD PUSH2 0x2B6 SWAP1 PUSH1 0xFF AND DUP2 JUMP JUMPDEST PUSH1 0x40 MLOAD SWAP1 ISZERO ISZERO DUP2 MSTORE PUSH1 0x20 ADD PUSH2 0x25A JUMP JUMPDEST CALLVALUE DUP1 ISZERO PUSH2 0x2D2 JUMPI PUSH1 0x0 DUP1 REVERT JUMPDEST POP PUSH2 0x2DC PUSH1 0x7 SLOAD DUP2 JUMP JUMPDEST PUSH1 0x40 MLOAD SWAP1 DUP2 MSTORE PUSH1 0x20 ADD PUSH2 0x25A JUMP JUMPDEST CALLVALUE DUP1 ISZERO PUSH2 0x2F6 JUMPI PUSH1 0x0 DUP1 REVERT JUMPDEST POP PUSH2 0x278 PUSH2 0x305 CALLDATASIZE PUSH1 0x4 PUSH2 0x2207 JUMP JUMPDEST PUSH2 0x81B JUMP JUMPDEST CALLVALUE DUP1 ISZERO PUSH2 0x316 JUMPI PUSH1 0x0 DUP1 REVERT JUMPDEST POP PUSH2 0x278 PUSH2 0x890 JUMP JUMPDEST CALLVALUE DUP1 ISZERO PUSH2 0x32B JUMPI PUSH1 0x0 DUP1 REVERT JUMPDEST POP PUSH2 0x355 PUSH2 0x33A CALLDATASIZE PUSH1 0x4 PUSH2 0x2222 JUMP JUMPDEST PUSH1 0x1 PUSH1 0x20 MSTORE PUSH1 0x0 SWAP1 DUP2 MSTORE PUSH1 0x40 SWAP1 KECCAK256 SLOAD PUSH1 0x1 PUSH1 0x1 PUSH1 0xA0 SHL SUB AND DUP2 JUMP JUMPDEST PUSH1 0x40 MLOAD PUSH1 0x1 PUSH1 0x1 PUSH1 0xA0 SHL SUB SWAP1 SWAP2 AND DUP2 MSTORE PUSH1 0x20 ADD PUSH2 0x25A JUMP JUMPDEST CALLVALUE DUP1 ISZERO PUSH2 0x379 JUMPI PUSH1 0x0 DUP1 REVERT JUMPDEST POP PUSH2 0x2DC PUSH1 0x8 SLOAD DUP2 JUMP JUMPDEST CALLVALUE DUP1 ISZERO PUSH2 0x38F JUMPI PUSH1 0x0 DUP1 REVERT JUMPDEST POP PUSH2 0x278 PUSH2 0x903 JUMP JUMPDEST CALLVALUE DUP1 ISZERO PUSH2 0x3A4 JUMPI PUSH1 0x0 DUP1 REVERT JUMPDEST POP PUSH2 0x2DC PUSH1 0x6 SLOAD DUP2 JUMP JUMPDEST CALLVALUE DUP1 ISZERO PUSH2 0x3BA JUMPI PUSH1 0x0 DUP1 REVERT JUMPDEST POP PUSH1 0xC SLOAD PUSH1 0xD SLOAD PUSH1 0xE SLOAD PUSH2 0x3EC SWAP3 PUSH1 0x1 PUSH1 0x1 PUSH1 0xA0 SHL SUB DUP2 AND SWAP3 PUSH1 0xFF PUSH1 0x1 PUSH1 0xA0 SHL DUP4 DIV DUP2 AND SWAP4 PUSH1 0x1 PUSH1 0xA8 SHL SWAP1 SWAP4 DIV AND SWAP2 DUP6 JUMP JUMPDEST PUSH1 0x40 DUP1 MLOAD PUSH1 0x1 PUSH1 0x1 PUSH1 0xA0 SHL SUB SWAP1 SWAP7 AND DUP7 MSTORE SWAP4 ISZERO ISZERO PUSH1 0x20 DUP7 ADD MSTORE SWAP2 ISZERO ISZERO SWAP3 DUP5 ADD SWAP3 SWAP1 SWAP3 MSTORE PUSH1 0x60 DUP4 ADD SWAP2 SWAP1 SWAP2 MSTORE PUSH1 0x80 DUP3 ADD MSTORE PUSH1 0xA0 ADD PUSH2 0x25A JUMP JUMPDEST CALLVALUE DUP1 ISZERO PUSH2 0x430 JUMPI PUSH1 0x0 DUP1 REVERT JUMPDEST POP PUSH2 0x2DC PUSH2 0x43F CALLDATASIZE PUSH1 0x4 PUSH2 0x2207 JUMP JUMPDEST PUSH1 0x4 PUSH1 0x20 MSTORE PUSH1 0x0 SWAP1 DUP2 MSTORE PUSH1 0x40 SWAP1 KECCAK256 SLOAD DUP2 JUMP JUMPDEST CALLVALUE DUP1 ISZERO PUSH2 0x45D JUMPI PUSH1 0x0 DUP1 REVERT JUMPDEST POP PUSH2 0x466 PUSH2 0xC3E JUMP JUMPDEST PUSH1 0x40 MLOAD PUSH2 0x25A SWAP2 SWAP1 PUSH2 0x223B JUMP JUMPDEST CALLVALUE DUP1 ISZERO PUSH2 0x47F JUMPI PUSH1 0x0 DUP1 REVERT JUMPDEST POP PUSH2 0x278 PUSH2 0x48E CALLDATASIZE PUSH1 0x4 PUSH2 0x2222 JUMP JUMPDEST PUSH2 0xCF8 JUMP JUMPDEST CALLVALUE DUP1 ISZERO PUSH2 0x49F JUMPI PUSH1 0x0 DUP1 REVERT JUMPDEST POP PUSH2 0x278 PUSH2 0x4AE CALLDATASIZE PUSH1 0x4 PUSH2 0x227C JUMP JUMPDEST PUSH2 0xE05 JUMP JUMPDEST PUSH2 0x278 PUSH2 0xF63 JUMP JUMPDEST CALLVALUE DUP1 ISZERO PUSH2 0x4C7 JUMPI PUSH1 0x0 DUP1 REVERT JUMPDEST POP PUSH2 0x28F PUSH2 0x10BA JUMP JUMPDEST CALLVALUE DUP1 ISZERO PUSH2 0x4DC JUMPI PUSH1 0x0 DUP1 REVERT JUMPDEST POP PUSH2 0x278 PUSH2 0x4EB CALLDATASIZE PUSH1 0x4 PUSH2 0x227C JUMP JUMPDEST PUSH2 0x1110 JUMP JUMPDEST CALLVALUE DUP1 ISZERO PUSH2 0x4FC JUMPI PUSH1 0x0 DUP1 REVERT JUMPDEST POP PUSH2 0x2DC PUSH2 0x50B CALLDATASIZE PUSH1 0x4 PUSH2 0x2222 JUMP JUMPDEST PUSH2 0x118C JUMP JUMPDEST CALLVALUE DUP1 ISZERO PUSH2 0x51C JUMPI PUSH1 0x0 DUP1 REVERT JUMPDEST POP PUSH2 0x241 PUSH2 0x52B CALLDATASIZE PUSH1 0x4 PUSH2 0x2207 JUMP JUMPDEST PUSH1 0x0 PUSH1 0x20 DUP2 SWAP1 MSTORE SWAP1 DUP2 MSTORE PUSH1 0x40 SWAP1 KECCAK256 DUP1 SLOAD PUSH1 0x1 DUP3 ADD SLOAD PUSH1 0x2 SWAP1 SWAP3 ADD SLOAD SWAP1 SWAP2 SWAP1 PUSH1 0xFF AND DUP4 JUMP JUMPDEST CALLVALUE DUP1 ISZERO PUSH2 0x55B JUMPI PUSH1 0x0 DUP1 REVERT JUMPDEST POP PUSH2 0x2B6 PUSH2 0x56A CALLDATASIZE PUSH1 0x4 PUSH2 0x2207 JUMP JUMPDEST PUSH1 0x5 PUSH1 0x20 MSTORE PUSH1 0x0 SWAP1 DUP2 MSTORE PUSH1 0x40 SWAP1 KECCAK256 SLOAD PUSH1 0xFF AND DUP2 JUMP JUMPDEST CALLVALUE DUP1 ISZERO PUSH2 0x58B JUMPI PUSH1 0x0 DUP1 REVERT JUMPDEST POP PUSH2 0x278 PUSH2 0x11AD JUMP JUMPDEST CALLVALUE DUP1 ISZERO PUSH2 0x5A0 JUMPI PUSH1 0x0 DUP1 REVERT JUMPDEST POP PUSH2 0x278 PUSH2 0x13EF JUMP JUMPDEST CALLVALUE DUP1 ISZERO PUSH2 0x5B5 JUMPI PUSH1 0x0 DUP1 REVERT JUMPDEST POP PUSH2 0x2DC PUSH1 0x2 SLOAD DUP2 JUMP JUMPDEST CALLVALUE DUP1 ISZERO PUSH2 0x5CB JUMPI PUSH1 0x0 DUP1 REVERT JUMPDEST POP PUSH1 0x12 SLOAD PUSH1 0x13 SLOAD PUSH2 0x5DA SWAP2 SWAP1 DUP3 JUMP JUMPDEST PUSH1 0x40 DUP1 MLOAD SWAP3 DUP4 MSTORE PUSH1 0x20 DUP4 ADD SWAP2 SWAP1 SWAP2 MSTORE ADD PUSH2 0x25A JUMP JUMPDEST CALLVALUE DUP1 ISZERO PUSH2 0x5FB JUMPI PUSH1 0x0 DUP1 REVERT JUMPDEST POP PUSH2 0x278 PUSH2 0x60A CALLDATASIZE PUSH1 0x4 PUSH2 0x229E JUMP JUMPDEST PUSH2 0x158E JUMP JUMPDEST CALLVALUE DUP1 ISZERO PUSH2 0x61B JUMPI PUSH1 0x0 DUP1 REVERT JUMPDEST POP PUSH2 0x278 PUSH2 0x62A CALLDATASIZE PUSH1 0x4 PUSH2 0x235C JUMP JUMPDEST PUSH2 0x1612 JUMP JUMPDEST CALLVALUE DUP1 ISZERO PUSH2 0x63B JUMPI PUSH1 0x0 DUP1 REVERT JUMPDEST POP PUSH2 0x278 PUSH2 0x17A5 JUMP JUMPDEST CALLVALUE DUP1 ISZERO PUSH2 0x650 JUMPI PUSH1 0x0 DUP1 REVERT JUMPDEST POP PUSH2 0x278 PUSH2 0x65F CALLDATASIZE PUSH1 0x4 PUSH2 0x245F JUMP JUMPDEST PUSH2 0x18EE JUMP JUMPDEST CALLVALUE DUP1 ISZERO PUSH2 0x670 JUMPI PUSH1 0x0 DUP1 REVERT JUMPDEST POP PUSH2 0x278 PUSH2 0x67F CALLDATASIZE PUSH1 0x4 PUSH2 0x24A6 JUMP JUMPDEST PUSH2 0x1AC8 JUMP JUMPDEST CALLVALUE DUP1 ISZERO PUSH2 0x690 JUMPI PUSH1 0x0 DUP1 REVERT JUMPDEST POP PUSH2 0x278 PUSH2 0x69F CALLDATASIZE PUSH1 0x4 PUSH2 0x24DB JUMP JUMPDEST PUSH2 0x1B81 JUMP JUMPDEST CALLVALUE DUP1 ISZERO PUSH2 0x6B0 JUMPI PUSH1 0x0 DUP1 REVERT JUMPDEST POP PUSH2 0x2DC PUSH2 0x6BF CALLDATASIZE PUSH1 0x4 PUSH2 0x2222 JUMP JUMPDEST PUSH2 0x1CEB JUMP JUMPDEST CALLVALUE DUP1 ISZERO PUSH2 0x6D0 JUMPI PUSH1 0x0 DUP1 REVERT JUMPDEST POP PUSH2 0x278 PUSH2 0x6DF CALLDATASIZE PUSH1 0x4 PUSH2 0x258D JUMP JUMPDEST PUSH2 0x1CFB JUMP JUMPDEST CALLVALUE DUP1 ISZERO PUSH2 0x6F0 JUMPI PUSH1 0x0 DUP1 REVERT JUMPDEST POP PUSH2 0x278 PUSH2 0x6FF CALLDATASIZE PUSH1 0x4 PUSH2 0x229E JUMP JUMPDEST PUSH2 0x1FFA JUMP JUMPDEST CALLVALUE DUP1 ISZERO PUSH2 0x710 JUMPI PUSH1 0x0 DUP1 REVERT JUMPDEST POP PUSH1 0xB SLOAD PUSH2 0x355 SWAP1 PUSH1 0x1 PUSH1 0x1 PUSH1 0xA0 SHL SUB AND DUP2 JUMP JUMPDEST CALLVALUE DUP1 ISZERO PUSH2 0x730 JUMPI PUSH1 0x0 DUP1 REVERT JUMPDEST POP PUSH2 0x75B PUSH2 0x73F CALLDATASIZE PUSH1 0x4 PUSH2 0x2207 JUMP JUMPDEST PUSH1 0x3 PUSH1 0x20 MSTORE PUSH1 0x0 SWAP1 DUP2 MSTORE PUSH1 0x40 SWAP1 KECCAK256 DUP1 SLOAD PUSH1 0x1 SWAP1 SWAP2 ADD SLOAD PUSH1 0xFF AND DUP3 JUMP JUMPDEST PUSH1 0x40 DUP1 MLOAD SWAP3 DUP4 MSTORE SWAP1 ISZERO ISZERO PUSH1 0x20 DUP4 ADD MSTORE ADD PUSH2 0x25A JUMP JUMPDEST PUSH1 0xF SLOAD TIMESTAMP LT DUP1 ISZERO SWAP1 PUSH2 0x784 JUMPI POP PUSH1 0x10 SLOAD TIMESTAMP GT ISZERO JUMPDEST DUP1 ISZERO PUSH2 0x793 JUMPI POP PUSH1 0x11 SLOAD PUSH1 0xFF AND ISZERO JUMPDEST PUSH2 0x7B8 JUMPI PUSH1 0x40 MLOAD PUSH3 0x461BCD PUSH1 0xE5 SHL DUP2 MSTORE PUSH1 0x4 ADD PUSH2 0x7AF SWAP1 PUSH2 0x25E7 JUMP JUMPDEST PUSH1 0x40 MLOAD DUP1 SWAP2 SUB SWAP1 REVERT JUMPDEST PUSH2 0x7C1 CALLER PUSH2 0x2040 JUMP JUMPDEST JUMP JUMPDEST PUSH1 0x60 PUSH1 0x9 DUP1 SLOAD DUP1 PUSH1 0x20 MUL PUSH1 0x20 ADD PUSH1 0x40 MLOAD SWAP1 DUP2 ADD PUSH1 0x40 MSTORE DUP1 SWAP3 SWAP2 SWAP1 DUP2 DUP2 MSTORE PUSH1 0x20 ADD DUP3 DUP1 SLOAD DUP1 ISZERO PUSH2 0x811 JUMPI PUSH1 0x20 MUL DUP3 ADD SWAP2 SWAP1 PUSH1 0x0 MSTORE PUSH1 0x20 PUSH1 0x0 KECCAK256 SWAP1 JUMPDEST DUP2 SLOAD DUP2 MSTORE PUSH1 0x20 ADD SWAP1 PUSH1 0x1 ADD SWAP1 DUP1 DUP4 GT PUSH2 0x7FD JUMPI JUMPDEST POP POP POP POP POP SWAP1 POP SWAP1 JUMP JUMPDEST PUSH1 0xF SLOAD TIMESTAMP LT DUP1 ISZERO SWAP1 PUSH2 0x82F JUMPI POP PUSH1 0x10 SLOAD TIMESTAMP GT ISZERO JUMPDEST DUP1 ISZERO PUSH2 0x83E JUMPI POP PUSH1 0x11 SLOAD PUSH1 0xFF AND ISZERO JUMPDEST PUSH2 0x85A JUMPI PUSH1 0x40 MLOAD PUSH3 0x461BCD PUSH1 0xE5 SHL DUP2 MSTORE PUSH1 0x4 ADD PUSH2 0x7AF SWAP1 PUSH2 0x25E7 JUMP JUMPDEST PUSH1 0xB SLOAD PUSH1 0x1 PUSH1 0x1 PUSH1 0xA0 SHL SUB AND CALLER EQ PUSH2 0x884 JUMPI PUSH1 0x40 MLOAD PUSH3 0x461BCD PUSH1 0xE5 SHL DUP2 MSTORE PUSH1 0x4 ADD PUSH2 0x7AF SWAP1 PUSH2 0x2634 JUMP JUMPDEST PUSH2 0x88D DUP2 PUSH2 0x2040 JUMP JUMPDEST POP JUMP JUMPDEST PUSH1 0xB SLOAD PUSH1 0x1 PUSH1 0x1 PUSH1 0xA0 SHL SUB AND CALLER EQ PUSH2 0x8BA JUMPI PUSH1 0x40 MLOAD PUSH3 0x461BCD PUSH1 0xE5 SHL DUP2 MSTORE PUSH1 0x4 ADD PUSH2 0x7AF SWAP1 PUSH2 0x2634 JUMP JUMPDEST PUSH1 0x11 DUP1 SLOAD PUSH1 0xFF NOT AND PUSH1 0x1 OR SWAP1 SSTORE PUSH1 0x40 MLOAD PUSH32 0x7069B20063A2C984D75A2165D1633FD0BE67AFE3680341D2FC5D0CCE78C9CEEA SWAP1 PUSH2 0x8F9 SWAP1 TIMESTAMP DUP2 MSTORE PUSH1 0x20 ADD SWAP1 JUMP JUMPDEST PUSH1 0x40 MLOAD DUP1 SWAP2 SUB SWAP1 LOG1 JUMP JUMPDEST PUSH1 0xA SLOAD ISZERO DUP1 ISZERO SWAP1 PUSH2 0x915 JUMPI POP PUSH1 0x9 SLOAD ISZERO ISZERO JUMPDEST PUSH2 0x931 JUMPI PUSH1 0x40 MLOAD PUSH3 0x461BCD PUSH1 0xE5 SHL DUP2 MSTORE PUSH1 0x4 ADD PUSH2 0x7AF SWAP1 PUSH2 0x266B JUMP JUMPDEST CALLER PUSH1 0x0 SWAP1 DUP2 MSTORE PUSH1 0x20 DUP2 SWAP1 MSTORE PUSH1 0x40 SWAP1 KECCAK256 PUSH1 0x2 ADD SLOAD PUSH1 0xFF AND PUSH2 0x993 JUMPI PUSH1 0x40 MLOAD PUSH3 0x461BCD PUSH1 0xE5 SHL DUP2 MSTORE PUSH1 0x20 PUSH1 0x4 DUP3 ADD MSTORE PUSH1 0x19 PUSH1 0x24 DUP3 ADD MSTORE PUSH32 0x41646472657373206973206E6F74207265676973746572656400000000000000 PUSH1 0x44 DUP3 ADD MSTORE PUSH1 0x64 ADD PUSH2 0x7AF JUMP JUMPDEST CALLER PUSH1 0x0 SWAP1 DUP2 MSTORE PUSH1 0x3 PUSH1 0x20 MSTORE PUSH1 0x40 SWAP1 KECCAK256 PUSH1 0x1 ADD SLOAD PUSH1 0xFF AND PUSH2 0xA09 JUMPI PUSH1 0x40 MLOAD PUSH3 0x461BCD PUSH1 0xE5 SHL DUP2 MSTORE PUSH1 0x20 PUSH1 0x4 DUP3 ADD MSTORE PUSH1 0x2B PUSH1 0x24 DUP3 ADD MSTORE PUSH32 0x41646472657373206973206E6F742070617274696369706174656420696E2064 PUSH1 0x44 DUP3 ADD MSTORE PUSH11 0x34B9BA3934B13ABA34B7B7 PUSH1 0xA9 SHL PUSH1 0x64 DUP3 ADD MSTORE PUSH1 0x84 ADD PUSH2 0x7AF JUMP JUMPDEST CALLER PUSH1 0x0 SWAP1 DUP2 MSTORE PUSH1 0x5 PUSH1 0x20 MSTORE PUSH1 0x40 SWAP1 KECCAK256 SLOAD PUSH1 0xFF AND ISZERO PUSH2 0xA77 JUMPI PUSH1 0x40 MLOAD PUSH3 0x461BCD PUSH1 0xE5 SHL DUP2 MSTORE PUSH1 0x20 PUSH1 0x4 DUP3 ADD MSTORE PUSH1 0x25 PUSH1 0x24 DUP3 ADD MSTORE PUSH32 0x416464726573732068617320657865637574656420776974686472617720616C PUSH1 0x44 DUP3 ADD MSTORE PUSH5 0x7265616479 PUSH1 0xD8 SHL PUSH1 0x64 DUP3 ADD MSTORE PUSH1 0x84 ADD PUSH2 0x7AF JUMP JUMPDEST CALLER PUSH1 0x0 SWAP1 DUP2 MSTORE PUSH1 0x20 DUP2 SWAP1 MSTORE PUSH1 0x40 DUP2 KECCAK256 PUSH1 0x1 DUP2 ADD SLOAD PUSH2 0xAA7 JUMPI PUSH1 0x40 MLOAD PUSH3 0x461BCD PUSH1 0xE5 SHL DUP2 MSTORE PUSH1 0x4 ADD PUSH2 0x7AF SWAP1 PUSH2 0x26A2 JUMP JUMPDEST PUSH1 0x0 JUMPDEST PUSH1 0x9 SLOAD DUP2 LT ISZERO PUSH2 0xB3C JUMPI PUSH1 0x9 DUP2 DUP2 SLOAD DUP2 LT PUSH2 0xAC7 JUMPI PUSH2 0xAC7 PUSH2 0x26D9 JUMP JUMPDEST SWAP1 PUSH1 0x0 MSTORE PUSH1 0x20 PUSH1 0x0 KECCAK256 ADD SLOAD TIMESTAMP LT PUSH2 0xB2A JUMPI PUSH1 0x0 PUSH2 0xB1A PUSH1 0x7 SLOAD PUSH2 0xB14 PUSH1 0xA DUP6 DUP2 SLOAD DUP2 LT PUSH2 0xAF6 JUMPI PUSH2 0xAF6 PUSH2 0x26D9 JUMP JUMPDEST SWAP1 PUSH1 0x0 MSTORE PUSH1 0x20 PUSH1 0x0 KECCAK256 ADD SLOAD DUP7 PUSH1 0x1 ADD SLOAD PUSH2 0x2170 SWAP1 SWAP2 SWAP1 PUSH4 0xFFFFFFFF AND JUMP JUMPDEST SWAP1 PUSH2 0x2183 JUMP JUMPDEST SWAP1 POP PUSH2 0xB26 DUP5 DUP3 PUSH2 0x218F JUMP JUMPDEST SWAP4 POP POP JUMPDEST DUP1 PUSH2 0xB34 DUP2 PUSH2 0x2705 JUMP JUMPDEST SWAP2 POP POP PUSH2 0xAAA JUMP JUMPDEST POP PUSH1 0x0 DUP3 GT PUSH2 0xB8D JUMPI PUSH1 0x40 MLOAD PUSH3 0x461BCD PUSH1 0xE5 SHL DUP2 MSTORE PUSH1 0x20 PUSH1 0x4 DUP3 ADD MSTORE PUSH1 0x1D PUSH1 0x24 DUP3 ADD MSTORE PUSH32 0x5468657265206973206E6F7468696E6720746F20776964746864726177000000 PUSH1 0x44 DUP3 ADD MSTORE PUSH1 0x64 ADD PUSH2 0x7AF JUMP JUMPDEST SELFBALANCE DUP3 GT ISZERO PUSH2 0xBAD JUMPI PUSH1 0x40 MLOAD PUSH3 0x461BCD PUSH1 0xE5 SHL DUP2 MSTORE PUSH1 0x4 ADD PUSH2 0x7AF SWAP1 PUSH2 0x271E JUMP JUMPDEST CALLER PUSH1 0x0 SWAP1 DUP2 MSTORE PUSH1 0x5 PUSH1 0x20 MSTORE PUSH1 0x40 SWAP1 KECCAK256 DUP1 SLOAD PUSH1 0xFF NOT AND PUSH1 0x1 OR SWAP1 SSTORE PUSH1 0xE SLOAD PUSH2 0xBD4 SWAP1 DUP4 PUSH2 0x218F JUMP JUMPDEST PUSH1 0xE SSTORE PUSH1 0x40 MLOAD CALLER SWAP1 DUP4 ISZERO PUSH2 0x8FC MUL SWAP1 DUP5 SWAP1 PUSH1 0x0 DUP2 DUP2 DUP2 DUP6 DUP9 DUP9 CALL SWAP4 POP POP POP POP ISZERO DUP1 ISZERO PUSH2 0xC04 JUMPI RETURNDATASIZE PUSH1 0x0 DUP1 RETURNDATACOPY RETURNDATASIZE PUSH1 0x0 REVERT JUMPDEST POP PUSH1 0x40 MLOAD DUP3 DUP2 MSTORE CALLER SWAP1 PUSH32 0x6352C5382C4A4578E712449CA65E83CDB392D045DFCF1CAD9615189DB2DA244B SWAP1 PUSH1 0x20 ADD PUSH1 0x40 MLOAD DUP1 SWAP2 SUB SWAP1 LOG2 POP POP JUMP JUMPDEST PUSH1 0x60 PUSH1 0x0 PUSH1 0x2 SLOAD PUSH8 0xFFFFFFFFFFFFFFFF DUP2 GT ISZERO PUSH2 0xC5D JUMPI PUSH2 0xC5D PUSH2 0x22C8 JUMP JUMPDEST PUSH1 0x40 MLOAD SWAP1 DUP1 DUP3 MSTORE DUP1 PUSH1 0x20 MUL PUSH1 0x20 ADD DUP3 ADD PUSH1 0x40 MSTORE DUP1 ISZERO PUSH2 0xC86 JUMPI DUP2 PUSH1 0x20 ADD PUSH1 0x20 DUP3 MUL DUP1 CALLDATASIZE DUP4 CALLDATACOPY ADD SWAP1 POP JUMPDEST POP SWAP1 POP PUSH1 0x0 JUMPDEST PUSH1 0x2 SLOAD DUP2 LT ISZERO PUSH2 0xCF2 JUMPI PUSH1 0x0 DUP2 DUP2 MSTORE PUSH1 0x1 PUSH1 0x20 MSTORE PUSH1 0x40 SWAP1 KECCAK256 SLOAD DUP3 MLOAD PUSH1 0x1 PUSH1 0x1 PUSH1 0xA0 SHL SUB SWAP1 SWAP2 AND SWAP1 DUP2 SWAP1 DUP5 SWAP1 DUP5 SWAP1 DUP2 LT PUSH2 0xCC7 JUMPI PUSH2 0xCC7 PUSH2 0x26D9 JUMP JUMPDEST PUSH1 0x1 PUSH1 0x1 PUSH1 0xA0 SHL SUB SWAP1 SWAP3 AND PUSH1 0x20 SWAP3 DUP4 MUL SWAP2 SWAP1 SWAP2 ADD SWAP1 SWAP2 ADD MSTORE POP DUP1 PUSH2 0xCEA DUP2 PUSH2 0x2705 JUMP JUMPDEST SWAP2 POP POP PUSH2 0xC8C JUMP JUMPDEST POP SWAP2 SWAP1 POP JUMP JUMPDEST PUSH1 0xB SLOAD PUSH1 0x1 PUSH1 0x1 PUSH1 0xA0 SHL SUB AND CALLER EQ PUSH2 0xD22 JUMPI PUSH1 0x40 MLOAD PUSH3 0x461BCD PUSH1 0xE5 SHL DUP2 MSTORE PUSH1 0x4 ADD PUSH2 0x7AF SWAP1 PUSH2 0x2634 JUMP JUMPDEST PUSH1 0xA SLOAD ISZERO DUP1 ISZERO SWAP1 PUSH2 0xD34 JUMPI POP PUSH1 0x9 SLOAD ISZERO ISZERO JUMPDEST PUSH2 0xD50 JUMPI PUSH1 0x40 MLOAD PUSH3 0x461BCD PUSH1 0xE5 SHL DUP2 MSTORE PUSH1 0x4 ADD PUSH2 0x7AF SWAP1 PUSH2 0x266B JUMP JUMPDEST PUSH1 0x9 DUP1 SLOAD PUSH2 0xD60 SWAP1 PUSH1 0x1 SWAP1 PUSH2 0x2762 JUMP JUMPDEST DUP2 SLOAD DUP2 LT PUSH2 0xD70 JUMPI PUSH2 0xD70 PUSH2 0x26D9 JUMP JUMPDEST SWAP1 PUSH1 0x0 MSTORE PUSH1 0x20 PUSH1 0x0 KECCAK256 ADD SLOAD DUP2 GT PUSH2 0xE00 JUMPI PUSH1 0x40 MLOAD PUSH3 0x461BCD PUSH1 0xE5 SHL DUP2 MSTORE PUSH1 0x20 PUSH1 0x4 DUP3 ADD MSTORE PUSH1 0x48 PUSH1 0x24 DUP3 ADD MSTORE PUSH32 0x546865206C61737420646179206F662074686520646973747269627574696F6E PUSH1 0x44 DUP3 ADD MSTORE PUSH32 0x206D757374206265206C61746572207468616E20746865206C61737420756E6C PUSH1 0x64 DUP3 ADD MSTORE PUSH8 0x6F636B2074696D65 PUSH1 0xC0 SHL PUSH1 0x84 DUP3 ADD MSTORE PUSH1 0xA4 ADD PUSH2 0x7AF JUMP JUMPDEST PUSH1 0x6 SSTORE JUMP JUMPDEST PUSH1 0xB SLOAD PUSH1 0x1 PUSH1 0x1 PUSH1 0xA0 SHL SUB AND CALLER EQ PUSH2 0xE2F JUMPI PUSH1 0x40 MLOAD PUSH3 0x461BCD PUSH1 0xE5 SHL DUP2 MSTORE PUSH1 0x4 ADD PUSH2 0x7AF SWAP1 PUSH2 0x2634 JUMP JUMPDEST PUSH1 0xC SLOAD PUSH1 0x1 PUSH1 0xA0 SHL SWAP1 DIV PUSH1 0xFF AND PUSH2 0xE94 JUMPI PUSH1 0x40 MLOAD PUSH3 0x461BCD PUSH1 0xE5 SHL DUP2 MSTORE PUSH1 0x20 PUSH1 0x4 DUP3 ADD MSTORE PUSH1 0x23 PUSH1 0x24 DUP3 ADD MSTORE PUSH32 0x446973747269627574696F6E20706172616D657465727320617265206E6F7420 PUSH1 0x44 DUP3 ADD MSTORE PUSH3 0x1CD95D PUSH1 0xEA SHL PUSH1 0x64 DUP3 ADD MSTORE PUSH1 0x84 ADD PUSH2 0x7AF JUMP JUMPDEST PUSH1 0x10 SLOAD DUP3 GT PUSH2 0xF0B JUMPI PUSH1 0x40 MLOAD PUSH3 0x461BCD PUSH1 0xE5 SHL DUP2 MSTORE PUSH1 0x20 PUSH1 0x4 DUP3 ADD MSTORE PUSH1 0x38 PUSH1 0x24 DUP3 ADD MSTORE PUSH32 0x446973747269627574696F6E20726F756E64206D757374206265206C61746572 PUSH1 0x44 DUP3 ADD MSTORE PUSH32 0x207468616E20726567697374726174696F6E20726F756E640000000000000000 PUSH1 0x64 DUP3 ADD MSTORE PUSH1 0x84 ADD PUSH2 0x7AF JUMP JUMPDEST PUSH1 0x40 DUP1 MLOAD DUP1 DUP3 ADD DUP3 MSTORE DUP4 DUP2 MSTORE PUSH1 0x20 ADD DUP3 SWAP1 MSTORE PUSH1 0x12 DUP4 SWAP1 SSTORE PUSH1 0x13 DUP3 SWAP1 SSTORE MLOAD PUSH32 0x7D5E91551DC6F3038619D85DA877B41440D669756A40EEB78B1C9DF6C6A988D5 SWAP1 PUSH2 0xF57 SWAP1 TIMESTAMP DUP2 MSTORE PUSH1 0x20 ADD SWAP1 JUMP JUMPDEST PUSH1 0x40 MLOAD DUP1 SWAP2 SUB SWAP1 LOG1 POP POP JUMP JUMPDEST PUSH1 0xC SLOAD PUSH1 0x1 PUSH1 0x1 PUSH1 0xA0 SHL SUB AND CALLER EQ PUSH2 0xF8D JUMPI PUSH1 0x40 MLOAD PUSH3 0x461BCD PUSH1 0xE5 SHL DUP2 MSTORE PUSH1 0x4 ADD PUSH2 0x7AF SWAP1 PUSH2 0x2779 JUMP JUMPDEST PUSH1 0xC SLOAD PUSH1 0x1 PUSH1 0xA0 SHL SWAP1 DIV PUSH1 0xFF AND PUSH2 0xFB6 JUMPI PUSH1 0x40 MLOAD PUSH3 0x461BCD PUSH1 0xE5 SHL DUP2 MSTORE PUSH1 0x4 ADD PUSH2 0x7AF SWAP1 PUSH2 0x27BF JUMP JUMPDEST PUSH1 0xC SLOAD PUSH1 0x1 PUSH1 0xA8 SHL SWAP1 DIV PUSH1 0xFF AND ISZERO PUSH2 0x101A JUMPI PUSH1 0x40 MLOAD PUSH3 0x461BCD PUSH1 0xE5 SHL DUP2 MSTORE PUSH1 0x20 PUSH1 0x4 DUP3 ADD MSTORE PUSH1 0x21 PUSH1 0x24 DUP3 ADD MSTORE PUSH32 0x546F6B656E7320686173206265656E206465706F736974656420616C72656164 PUSH1 0x44 DUP3 ADD MSTORE PUSH1 0x79 PUSH1 0xF8 SHL PUSH1 0x64 DUP3 ADD MSTORE PUSH1 0x84 ADD PUSH2 0x7AF JUMP JUMPDEST PUSH1 0xD SLOAD CALLVALUE EQ PUSH2 0x10A5 JUMPI PUSH1 0x40 MLOAD PUSH3 0x461BCD PUSH1 0xE5 SHL DUP2 MSTORE PUSH1 0x20 PUSH1 0x4 DUP3 ADD MSTORE PUSH1 0x4B PUSH1 0x24 DUP3 ADD MSTORE PUSH32 0x546865206465706F73697420616D6F756E74206973206E6F7420657175616C20 PUSH1 0x44 DUP3 ADD MSTORE PUSH32 0x746F207468652070726573657420616D6F756E74206F66206469737472696275 PUSH1 0x64 DUP3 ADD MSTORE PUSH11 0x74696F6E20746F6B656E73 PUSH1 0xA8 SHL PUSH1 0x84 DUP3 ADD MSTORE PUSH1 0xA4 ADD PUSH2 0x7AF JUMP JUMPDEST PUSH1 0xC DUP1 SLOAD PUSH1 0xFF PUSH1 0xA8 SHL NOT AND PUSH1 0x1 PUSH1 0xA8 SHL OR SWAP1 SSTORE JUMP JUMPDEST PUSH1 0x60 PUSH1 0xA DUP1 SLOAD DUP1 PUSH1 0x20 MUL PUSH1 0x20 ADD PUSH1 0x40 MLOAD SWAP1 DUP2 ADD PUSH1 0x40 MSTORE DUP1 SWAP3 SWAP2 SWAP1 DUP2 DUP2 MSTORE PUSH1 0x20 ADD DUP3 DUP1 SLOAD DUP1 ISZERO PUSH2 0x811 JUMPI PUSH1 0x20 MUL DUP3 ADD SWAP2 SWAP1 PUSH1 0x0 MSTORE PUSH1 0x20 PUSH1 0x0 KECCAK256 SWAP1 DUP2 SLOAD DUP2 MSTORE PUSH1 0x20 ADD SWAP1 PUSH1 0x1 ADD SWAP1 DUP1 DUP4 GT PUSH2 0x7FD JUMPI POP POP POP POP POP SWAP1 POP SWAP1 JUMP JUMPDEST PUSH1 0xB SLOAD PUSH1 0x1 PUSH1 0x1 PUSH1 0xA0 SHL SUB AND CALLER EQ PUSH2 0x113A JUMPI PUSH1 0x40 MLOAD PUSH3 0x461BCD PUSH1 0xE5 SHL DUP2 MSTORE PUSH1 0x4 ADD PUSH2 0x7AF SWAP1 PUSH2 0x2634 JUMP JUMPDEST TIMESTAMP DUP3 LT ISZERO DUP1 ISZERO PUSH2 0x1149 JUMPI POP DUP2 DUP2 GT JUMPDEST PUSH2 0x1152 JUMPI PUSH1 0x0 DUP1 REVERT JUMPDEST PUSH1 0xF DUP3 SWAP1 SSTORE PUSH1 0x10 DUP2 SWAP1 SSTORE PUSH1 0x40 MLOAD TIMESTAMP DUP2 MSTORE PUSH32 0x95A21281108B566135DDAA849F46AC5EDEE2287699CE9443AC1490705CD63D77 SWAP1 PUSH1 0x20 ADD PUSH2 0xF57 JUMP JUMPDEST PUSH1 0xA DUP2 DUP2 SLOAD DUP2 LT PUSH2 0x119C JUMPI PUSH1 0x0 DUP1 REVERT JUMPDEST PUSH1 0x0 SWAP2 DUP3 MSTORE PUSH1 0x20 SWAP1 SWAP2 KECCAK256 ADD SLOAD SWAP1 POP DUP2 JUMP JUMPDEST PUSH1 0x0 PUSH1 0x8 SLOAD GT PUSH2 0x11CF JUMPI PUSH1 0x40 MLOAD PUSH3 0x461BCD PUSH1 0xE5 SHL DUP2 MSTORE PUSH1 0x4 ADD PUSH2 0x7AF SWAP1 PUSH2 0x266B JUMP JUMPDEST CALLER PUSH1 0x0 SWAP1 DUP2 MSTORE PUSH1 0x5 PUSH1 0x20 MSTORE PUSH1 0x40 SWAP1 KECCAK256 SLOAD PUSH1 0xFF AND ISZERO PUSH2 0x122F JUMPI PUSH1 0x40 MLOAD PUSH3 0x461BCD PUSH1 0xE5 SHL DUP2 MSTORE PUSH1 0x20 PUSH1 0x4 DUP3 ADD MSTORE PUSH1 0x1A PUSH1 0x24 DUP3 ADD MSTORE PUSH32 0x4164647265737320616C7265616479207769647468647261776E000000000000 PUSH1 0x44 DUP3 ADD MSTORE PUSH1 0x64 ADD PUSH2 0x7AF JUMP JUMPDEST CALLER PUSH1 0x0 SWAP1 DUP2 MSTORE PUSH1 0x20 DUP2 SWAP1 MSTORE PUSH1 0x40 DUP2 KECCAK256 PUSH1 0x1 DUP2 ADD SLOAD PUSH2 0x125F JUMPI PUSH1 0x40 MLOAD PUSH3 0x461BCD PUSH1 0xE5 SHL DUP2 MSTORE PUSH1 0x4 ADD PUSH2 0x7AF SWAP1 PUSH2 0x26A2 JUMP JUMPDEST CALLER PUSH1 0x0 SWAP1 DUP2 MSTORE PUSH1 0x4 PUSH1 0x20 MSTORE PUSH1 0x40 DUP2 KECCAK256 SLOAD SWAP1 JUMPDEST DUP2 DUP2 LT ISZERO PUSH2 0x12EC JUMPI PUSH1 0x0 PUSH2 0x12B5 PUSH1 0x7 SLOAD PUSH2 0xB14 PUSH1 0xA DUP6 DUP2 SLOAD DUP2 LT PUSH2 0x1297 JUMPI PUSH2 0x1297 PUSH2 0x26D9 JUMP JUMPDEST SWAP1 PUSH1 0x0 MSTORE PUSH1 0x20 PUSH1 0x0 KECCAK256 ADD SLOAD DUP8 PUSH1 0x1 ADD SLOAD PUSH2 0x2170 SWAP1 SWAP2 SWAP1 PUSH4 0xFFFFFFFF AND JUMP JUMPDEST PUSH1 0x1 DUP6 ADD SLOAD SWAP1 SWAP2 POP PUSH2 0x12C7 SWAP1 DUP3 PUSH2 0x219B JUMP JUMPDEST PUSH1 0x1 DUP6 ADD SSTORE PUSH2 0x12D6 DUP6 DUP3 PUSH2 0x218F JUMP JUMPDEST SWAP5 POP POP DUP1 DUP1 PUSH2 0x12E4 SWAP1 PUSH2 0x2705 JUMP JUMPDEST SWAP2 POP POP PUSH2 0x1271 JUMP JUMPDEST POP PUSH1 0x0 DUP4 GT PUSH2 0x133D JUMPI PUSH1 0x40 MLOAD PUSH3 0x461BCD PUSH1 0xE5 SHL DUP2 MSTORE PUSH1 0x20 PUSH1 0x4 DUP3 ADD MSTORE PUSH1 0x1D PUSH1 0x24 DUP3 ADD MSTORE PUSH32 0x5468657265206973206E6F7468696E6720746F20776964746864726177000000 PUSH1 0x44 DUP3 ADD MSTORE PUSH1 0x64 ADD PUSH2 0x7AF JUMP JUMPDEST SELFBALANCE DUP4 GT ISZERO PUSH2 0x135D JUMPI PUSH1 0x40 MLOAD PUSH3 0x461BCD PUSH1 0xE5 SHL DUP2 MSTORE PUSH1 0x4 ADD PUSH2 0x7AF SWAP1 PUSH2 0x271E JUMP JUMPDEST CALLER PUSH1 0x0 SWAP1 DUP2 MSTORE PUSH1 0x5 PUSH1 0x20 MSTORE PUSH1 0x40 SWAP1 KECCAK256 DUP1 SLOAD PUSH1 0xFF NOT AND PUSH1 0x1 OR SWAP1 SSTORE PUSH1 0xE SLOAD PUSH2 0x1384 SWAP1 DUP5 PUSH2 0x218F JUMP JUMPDEST PUSH1 0xE SSTORE PUSH1 0x40 MLOAD CALLER SWAP1 DUP5 ISZERO PUSH2 0x8FC MUL SWAP1 DUP6 SWAP1 PUSH1 0x0 DUP2 DUP2 DUP2 DUP6 DUP9 DUP9 CALL SWAP4 POP POP POP POP ISZERO DUP1 ISZERO PUSH2 0x13B4 JUMPI RETURNDATASIZE PUSH1 0x0 DUP1 RETURNDATACOPY RETURNDATASIZE PUSH1 0x0 REVERT JUMPDEST POP PUSH1 0x40 MLOAD DUP4 DUP2 MSTORE CALLER SWAP1 PUSH32 0x6352C5382C4A4578E712449CA65E83CDB392D045DFCF1CAD9615189DB2DA244B SWAP1 PUSH1 0x20 ADD PUSH1 0x40 MLOAD DUP1 SWAP2 SUB SWAP1 LOG2 POP POP POP JUMP JUMPDEST PUSH1 0xB SLOAD PUSH1 0x1 PUSH1 0x1 PUSH1 0xA0 SHL SUB AND CALLER EQ PUSH2 0x1419 JUMPI PUSH1 0x40 MLOAD PUSH3 0x461BCD PUSH1 0xE5 SHL DUP2 MSTORE PUSH1 0x4 ADD PUSH2 0x7AF SWAP1 PUSH2 0x2634 JUMP JUMPDEST PUSH1 0x0 PUSH1 0x6 SLOAD GT PUSH2 0x146B JUMPI PUSH1 0x40 MLOAD PUSH3 0x461BCD PUSH1 0xE5 SHL DUP2 MSTORE PUSH1 0x20 PUSH1 0x4 DUP3 ADD MSTORE PUSH1 0x1B PUSH1 0x24 DUP3 ADD MSTORE PUSH32 0x56657374696E6720656E642064617465206973206E6F74207365740000000000 PUSH1 0x44 DUP3 ADD MSTORE PUSH1 0x64 ADD PUSH2 0x7AF JUMP JUMPDEST PUSH1 0x6 SLOAD TIMESTAMP LT ISZERO PUSH2 0x14C8 JUMPI PUSH1 0x40 MLOAD PUSH3 0x461BCD PUSH1 0xE5 SHL DUP2 MSTORE PUSH1 0x20 PUSH1 0x4 DUP3 ADD MSTORE PUSH1 0x22 PUSH1 0x24 DUP3 ADD MSTORE PUSH32 0x56657374696E6720706572696F64206973206E6F742066696E69736865642079 PUSH1 0x44 DUP3 ADD MSTORE PUSH2 0x195D PUSH1 0xF2 SHL PUSH1 0x64 DUP3 ADD MSTORE PUSH1 0x84 ADD PUSH2 0x7AF JUMP JUMPDEST PUSH1 0x14 SLOAD PUSH1 0xFF AND ISZERO PUSH2 0x151B JUMPI PUSH1 0x40 MLOAD PUSH3 0x461BCD PUSH1 0xE5 SHL DUP2 MSTORE PUSH1 0x20 PUSH1 0x4 DUP3 ADD MSTORE PUSH1 0x1A PUSH1 0x24 DUP3 ADD MSTORE PUSH32 0x4C6566746F76657220616C72656164792077697468647261776E000000000000 PUSH1 0x44 DUP3 ADD MSTORE PUSH1 0x64 ADD PUSH2 0x7AF JUMP JUMPDEST PUSH1 0xE SLOAD PUSH1 0xD SLOAD PUSH1 0x0 SWAP2 PUSH2 0x152E SWAP2 SWAP1 PUSH2 0x219B JUMP JUMPDEST SWAP1 POP PUSH1 0x0 DUP2 GT PUSH2 0x1550 JUMPI PUSH1 0x40 MLOAD PUSH3 0x461BCD PUSH1 0xE5 SHL DUP2 MSTORE PUSH1 0x4 ADD PUSH2 0x7AF SWAP1 PUSH2 0x26A2 JUMP JUMPDEST PUSH1 0x14 DUP1 SLOAD PUSH1 0xFF NOT AND PUSH1 0x1 OR SWAP1 SSTORE PUSH1 0x40 MLOAD CALLER SWAP1 DUP3 ISZERO PUSH2 0x8FC MUL SWAP1 DUP4 SWAP1 PUSH1 0x0 DUP2 DUP2 DUP2 DUP6 DUP9 DUP9 CALL SWAP4 POP POP POP POP ISZERO DUP1 ISZERO PUSH2 0x158A JUMPI RETURNDATASIZE PUSH1 0x0 DUP1 RETURNDATACOPY RETURNDATASIZE PUSH1 0x0 REVERT JUMPDEST POP POP JUMP JUMPDEST PUSH1 0xB SLOAD PUSH1 0x1 PUSH1 0x1 PUSH1 0xA0 SHL SUB AND CALLER EQ PUSH2 0x15B8 JUMPI PUSH1 0x40 MLOAD PUSH3 0x461BCD PUSH1 0xE5 SHL DUP2 MSTORE PUSH1 0x4 ADD PUSH2 0x7AF SWAP1 PUSH2 0x2634 JUMP JUMPDEST PUSH1 0x1 PUSH1 0x1 PUSH1 0xA0 SHL SUB DUP3 AND PUSH1 0x0 SWAP1 DUP2 MSTORE PUSH1 0x20 DUP2 SWAP1 MSTORE PUSH1 0x40 SWAP1 KECCAK256 PUSH1 0x2 ADD SLOAD PUSH1 0xFF AND PUSH2 0x15F3 JUMPI PUSH1 0x40 MLOAD PUSH3 0x461BCD PUSH1 0xE5 SHL DUP2 MSTORE PUSH1 0x4 ADD PUSH2 0x7AF SWAP1 PUSH2 0x27F6 JUMP JUMPDEST PUSH1 0x1 PUSH1 0x1 PUSH1 0xA0 SHL SUB SWAP1 SWAP2 AND PUSH1 0x0 SWAP1 DUP2 MSTORE PUSH1 0x20 DUP2 SWAP1 MSTORE PUSH1 0x40 SWAP1 KECCAK256 PUSH1 0x1 ADD SSTORE JUMP JUMPDEST PUSH1 0xF SLOAD TIMESTAMP LT DUP1 ISZERO SWAP1 PUSH2 0x1626 JUMPI POP PUSH1 0x10 SLOAD TIMESTAMP GT ISZERO JUMPDEST DUP1 ISZERO PUSH2 0x1635 JUMPI POP PUSH1 0x11 SLOAD PUSH1 0xFF AND ISZERO JUMPDEST PUSH2 0x1651 JUMPI PUSH1 0x40 MLOAD PUSH3 0x461BCD PUSH1 0xE5 SHL DUP2 MSTORE PUSH1 0x4 ADD PUSH2 0x7AF SWAP1 PUSH2 0x25E7 JUMP JUMPDEST PUSH1 0xB SLOAD PUSH1 0x1 PUSH1 0x1 PUSH1 0xA0 SHL SUB AND CALLER EQ PUSH2 0x167B JUMPI PUSH1 0x40 MLOAD PUSH3 0x461BCD PUSH1 0xE5 SHL DUP2 MSTORE PUSH1 0x4 ADD PUSH2 0x7AF SWAP1 PUSH2 0x2634 JUMP JUMPDEST PUSH1 0x0 DUP2 MLOAD GT PUSH2 0x16EA JUMPI PUSH1 0x40 MLOAD PUSH3 0x461BCD PUSH1 0xE5 SHL DUP2 MSTORE PUSH1 0x20 PUSH1 0x4 DUP3 ADD MSTORE PUSH1 0x35 PUSH1 0x24 DUP3 ADD MSTORE PUSH32 0x54686520616464726573736573206172726179206D75737420636F6E7461696E PUSH1 0x44 DUP3 ADD MSTORE PUSH21 0x81BDB9948195B195B595B9D08185D081B19585CDD PUSH1 0x5A SHL PUSH1 0x64 DUP3 ADD MSTORE PUSH1 0x84 ADD PUSH2 0x7AF JUMP JUMPDEST PUSH1 0x0 JUMPDEST DUP2 MLOAD DUP2 LT ISZERO PUSH2 0x176D JUMPI PUSH1 0x0 DUP1 DUP4 DUP4 DUP2 MLOAD DUP2 LT PUSH2 0x170B JUMPI PUSH2 0x170B PUSH2 0x26D9 JUMP JUMPDEST PUSH1 0x20 SWAP1 DUP2 MUL SWAP2 SWAP1 SWAP2 ADD DUP2 ADD MLOAD PUSH1 0x1 PUSH1 0x1 PUSH1 0xA0 SHL SUB AND DUP3 MSTORE DUP2 ADD SWAP2 SWAP1 SWAP2 MSTORE PUSH1 0x40 ADD PUSH1 0x0 KECCAK256 PUSH1 0x2 ADD SLOAD PUSH1 0xFF AND PUSH2 0x175B JUMPI PUSH2 0x175B DUP3 DUP3 DUP2 MLOAD DUP2 LT PUSH2 0x174E JUMPI PUSH2 0x174E PUSH2 0x26D9 JUMP JUMPDEST PUSH1 0x20 MUL PUSH1 0x20 ADD ADD MLOAD PUSH2 0x2040 JUMP JUMPDEST DUP1 PUSH2 0x1765 DUP2 PUSH2 0x2705 JUMP JUMPDEST SWAP2 POP POP PUSH2 0x16ED JUMP JUMPDEST POP PUSH1 0x40 MLOAD TIMESTAMP DUP2 MSTORE PUSH32 0x3ED3FF891AF065B7AECB80D2D3E0543AFD07E2B38E36D9E98700FEEBF26482B3 SWAP1 PUSH1 0x20 ADD JUMPDEST PUSH1 0x40 MLOAD DUP1 SWAP2 SUB SWAP1 LOG1 POP JUMP JUMPDEST PUSH1 0x12 SLOAD TIMESTAMP LT DUP1 ISZERO SWAP1 PUSH2 0x17B9 JUMPI POP PUSH1 0x13 SLOAD TIMESTAMP GT ISZERO JUMPDEST PUSH2 0x181B JUMPI PUSH1 0x40 MLOAD PUSH3 0x461BCD PUSH1 0xE5 SHL DUP2 MSTORE PUSH1 0x20 PUSH1 0x4 DUP3 ADD MSTORE PUSH1 0x2D PUSH1 0x24 DUP3 ADD MSTORE PUSH32 0x446973747269627574696F6E20726F756E64206973206F766572206F72206E6F PUSH1 0x44 DUP3 ADD MSTORE PUSH13 0x1D081CDD185C9D1959081E595D PUSH1 0x9A SHL PUSH1 0x64 DUP3 ADD MSTORE PUSH1 0x84 ADD PUSH2 0x7AF JUMP JUMPDEST CALLER PUSH1 0x0 SWAP1 DUP2 MSTORE PUSH1 0x3 PUSH1 0x20 MSTORE PUSH1 0x40 SWAP1 KECCAK256 PUSH1 0x1 ADD SLOAD PUSH1 0xFF AND ISZERO PUSH2 0x187E JUMPI PUSH1 0x40 MLOAD PUSH3 0x461BCD PUSH1 0xE5 SHL DUP2 MSTORE PUSH1 0x20 PUSH1 0x4 DUP3 ADD MSTORE PUSH1 0x1C PUSH1 0x24 DUP3 ADD MSTORE PUSH32 0x4164647265737320616C72656164792070617274696369706174656400000000 PUSH1 0x44 DUP3 ADD MSTORE PUSH1 0x64 ADD PUSH2 0x7AF JUMP JUMPDEST PUSH1 0x40 DUP1 MLOAD DUP1 DUP3 ADD DUP3 MSTORE TIMESTAMP DUP1 DUP3 MSTORE PUSH1 0x1 PUSH1 0x20 DUP1 DUP5 ADD DUP3 DUP2 MSTORE CALLER PUSH1 0x0 DUP2 DUP2 MSTORE PUSH1 0x3 DUP5 MSTORE DUP8 SWAP1 KECCAK256 SWAP6 MLOAD DUP7 SSTORE SWAP1 MLOAD SWAP5 SWAP1 SWAP3 ADD DUP1 SLOAD PUSH1 0xFF NOT AND SWAP5 ISZERO ISZERO SWAP5 SWAP1 SWAP5 OR SWAP1 SWAP4 SSTORE SWAP3 MLOAD SWAP1 DUP2 MSTORE PUSH32 0xB198F199C43CC078AD46E5A5FABE03EBA401F7417816C86AF0BD2E7345C99506 SWAP2 ADD PUSH1 0x40 MLOAD DUP1 SWAP2 SUB SWAP1 LOG2 JUMP JUMPDEST PUSH1 0xB SLOAD PUSH1 0x1 PUSH1 0x1 PUSH1 0xA0 SHL SUB AND CALLER EQ PUSH2 0x1918 JUMPI PUSH1 0x40 MLOAD PUSH3 0x461BCD PUSH1 0xE5 SHL DUP2 MSTORE PUSH1 0x4 ADD PUSH2 0x7AF SWAP1 PUSH2 0x2634 JUMP JUMPDEST DUP1 MLOAD DUP3 EQ PUSH2 0x198E JUMPI PUSH1 0x40 MLOAD PUSH3 0x461BCD PUSH1 0xE5 SHL DUP2 MSTORE PUSH1 0x20 PUSH1 0x4 DUP3 ADD MSTORE PUSH1 0x3A PUSH1 0x24 DUP3 ADD MSTORE PUSH32 0x4576656E747320636F756C64206D75737420626520657175616C207769746820 PUSH1 0x44 DUP3 ADD MSTORE PUSH32 0x506572636570742050657220506F7274696F6E206C656E677468000000000000 PUSH1 0x64 DUP3 ADD MSTORE PUSH1 0x84 ADD PUSH2 0x7AF JUMP JUMPDEST PUSH1 0xC SLOAD PUSH1 0x1 PUSH1 0xA0 SHL SWAP1 DIV PUSH1 0xFF AND PUSH2 0x19B7 JUMPI PUSH1 0x40 MLOAD PUSH3 0x461BCD PUSH1 0xE5 SHL DUP2 MSTORE PUSH1 0x4 ADD PUSH2 0x7AF SWAP1 PUSH2 0x27BF JUMP JUMPDEST PUSH1 0x8 DUP3 SWAP1 SSTORE PUSH1 0x0 DUP1 JUMPDEST DUP4 DUP2 LT ISZERO PUSH2 0x1A3E JUMPI PUSH1 0xA DUP4 DUP3 DUP2 MLOAD DUP2 LT PUSH2 0x19DC JUMPI PUSH2 0x19DC PUSH2 0x26D9 JUMP JUMPDEST PUSH1 0x20 SWAP1 DUP2 MUL SWAP2 SWAP1 SWAP2 ADD DUP2 ADD MLOAD DUP3 SLOAD PUSH1 0x1 DUP2 ADD DUP5 SSTORE PUSH1 0x0 SWAP4 DUP5 MSTORE SWAP2 SWAP1 SWAP3 KECCAK256 ADD SSTORE DUP3 MLOAD PUSH2 0x1A2A SWAP1 DUP5 SWAP1 DUP4 SWAP1 DUP2 LT PUSH2 0x1A13 JUMPI PUSH2 0x1A13 PUSH2 0x26D9 JUMP JUMPDEST PUSH1 0x20 MUL PUSH1 0x20 ADD ADD MLOAD DUP4 PUSH2 0x218F SWAP1 SWAP2 SWAP1 PUSH4 0xFFFFFFFF AND JUMP JUMPDEST SWAP2 POP DUP1 PUSH2 0x1A36 DUP2 PUSH2 0x2705 JUMP JUMPDEST SWAP2 POP POP PUSH2 0x19C0 JUMP JUMPDEST POP DUP1 PUSH1 0x7 SLOAD EQ PUSH2 0x1A90 JUMPI PUSH1 0x40 MLOAD PUSH3 0x461BCD PUSH1 0xE5 SHL DUP2 MSTORE PUSH1 0x20 PUSH1 0x4 DUP3 ADD MSTORE PUSH1 0x18 PUSH1 0x24 DUP3 ADD MSTORE PUSH32 0x507265636973696F6E2070657263656E74732069737375650000000000000000 PUSH1 0x44 DUP3 ADD MSTORE PUSH1 0x64 ADD PUSH2 0x7AF JUMP JUMPDEST PUSH1 0x40 MLOAD TIMESTAMP DUP2 MSTORE PUSH32 0x1AF3C14CE558C4A33618E1F36C8EA383FC552A672298056311FA66518719F6E0 SWAP1 PUSH1 0x20 ADD PUSH1 0x40 MLOAD DUP1 SWAP2 SUB SWAP1 LOG1 POP POP POP JUMP JUMPDEST PUSH1 0xB SLOAD PUSH1 0x1 PUSH1 0x1 PUSH1 0xA0 SHL SUB AND CALLER EQ PUSH2 0x1AF2 JUMPI PUSH1 0x40 MLOAD PUSH3 0x461BCD PUSH1 0xE5 SHL DUP2 MSTORE PUSH1 0x4 ADD PUSH2 0x7AF SWAP1 PUSH2 0x2634 JUMP JUMPDEST PUSH1 0xC SLOAD PUSH1 0x1 PUSH1 0xA0 SHL SWAP1 DIV PUSH1 0xFF AND ISZERO PUSH2 0x1B4C JUMPI PUSH1 0x40 MLOAD PUSH3 0x461BCD PUSH1 0xE5 SHL DUP2 MSTORE PUSH1 0x20 PUSH1 0x4 DUP3 ADD MSTORE PUSH1 0x1C PUSH1 0x24 DUP3 ADD MSTORE PUSH32 0x446973747269627574696F6E20616C7265616479206372656174656400000000 PUSH1 0x44 DUP3 ADD MSTORE PUSH1 0x64 ADD PUSH2 0x7AF JUMP JUMPDEST PUSH1 0xC DUP1 SLOAD PUSH1 0xD SWAP5 SWAP1 SWAP5 SSTORE PUSH1 0x7 SWAP3 SWAP1 SWAP3 SSTORE PUSH1 0x1 PUSH1 0x1 PUSH1 0xA8 SHL SUB NOT SWAP1 SWAP3 AND PUSH1 0x1 PUSH1 0x1 PUSH1 0xA0 SHL SUB SWAP1 SWAP3 AND SWAP2 SWAP1 SWAP2 OR PUSH1 0x1 PUSH1 0xA0 SHL OR SWAP1 SSTORE JUMP JUMPDEST PUSH1 0xB SLOAD PUSH1 0x1 PUSH1 0x1 PUSH1 0xA0 SHL SUB AND CALLER EQ PUSH2 0x1BAB JUMPI PUSH1 0x40 MLOAD PUSH3 0x461BCD PUSH1 0xE5 SHL DUP2 MSTORE PUSH1 0x4 ADD PUSH2 0x7AF SWAP1 PUSH2 0x2634 JUMP JUMPDEST PUSH1 0x0 DUP2 MLOAD GT PUSH2 0x1C1B JUMPI PUSH1 0x40 MLOAD PUSH3 0x461BCD PUSH1 0xE5 SHL DUP2 MSTORE PUSH1 0x20 PUSH1 0x4 DUP3 ADD MSTORE PUSH1 0x36 PUSH1 0x24 DUP3 ADD MSTORE PUSH32 0x54686520616C6C6F636174696F6E206172726179206D75737420636F6E746169 PUSH1 0x44 DUP3 ADD MSTORE PUSH22 0x1B881BDB9948195B195B595B9D08185D081B19585CDD PUSH1 0x52 SHL PUSH1 0x64 DUP3 ADD MSTORE PUSH1 0x84 ADD PUSH2 0x7AF JUMP JUMPDEST PUSH1 0x0 JUMPDEST DUP2 MLOAD DUP2 LT ISZERO PUSH2 0x1CBA JUMPI PUSH1 0x0 DUP3 DUP3 DUP2 MLOAD DUP2 LT PUSH2 0x1C3B JUMPI PUSH2 0x1C3B PUSH2 0x26D9 JUMP JUMPDEST PUSH1 0x20 SWAP1 DUP2 MUL SWAP2 SWAP1 SWAP2 ADD DUP2 ADD MLOAD DUP1 MLOAD PUSH1 0x1 PUSH1 0x1 PUSH1 0xA0 SHL SUB AND PUSH1 0x0 SWAP1 DUP2 MSTORE SWAP2 DUP3 SWAP1 MSTORE PUSH1 0x40 SWAP1 SWAP2 KECCAK256 PUSH1 0x2 ADD SLOAD SWAP1 SWAP2 POP PUSH1 0xFF AND PUSH2 0x1C86 JUMPI PUSH1 0x40 MLOAD PUSH3 0x461BCD PUSH1 0xE5 SHL DUP2 MSTORE PUSH1 0x4 ADD PUSH2 0x7AF SWAP1 PUSH2 0x27F6 JUMP JUMPDEST PUSH1 0x20 DUP1 DUP3 ADD MLOAD SWAP2 MLOAD PUSH1 0x1 PUSH1 0x1 PUSH1 0xA0 SHL SUB AND PUSH1 0x0 SWAP1 DUP2 MSTORE SWAP1 DUP2 SWAP1 MSTORE PUSH1 0x40 SWAP1 KECCAK256 PUSH1 0x1 ADD SSTORE DUP1 PUSH2 0x1CB2 DUP2 PUSH2 0x2705 JUMP JUMPDEST SWAP2 POP POP PUSH2 0x1C1E JUMP JUMPDEST POP PUSH1 0x40 MLOAD TIMESTAMP DUP2 MSTORE PUSH32 0xB470A061A328BEDEA790142CA3E477573B6337191C39704740003DC082E76ECF SWAP1 PUSH1 0x20 ADD PUSH2 0x179A JUMP JUMPDEST PUSH1 0x9 DUP2 DUP2 SLOAD DUP2 LT PUSH2 0x119C JUMPI PUSH1 0x0 DUP1 REVERT JUMPDEST PUSH1 0xB SLOAD PUSH1 0x1 PUSH1 0x1 PUSH1 0xA0 SHL SUB AND CALLER EQ PUSH2 0x1D25 JUMPI PUSH1 0x40 MLOAD PUSH3 0x461BCD PUSH1 0xE5 SHL DUP2 MSTORE PUSH1 0x4 ADD PUSH2 0x7AF SWAP1 PUSH2 0x2634 JUMP JUMPDEST PUSH1 0xA SLOAD ISZERO DUP1 ISZERO PUSH2 0x1D35 JUMPI POP PUSH1 0x9 SLOAD ISZERO JUMPDEST PUSH2 0x1D81 JUMPI PUSH1 0x40 MLOAD PUSH3 0x461BCD PUSH1 0xE5 SHL DUP2 MSTORE PUSH1 0x20 PUSH1 0x4 DUP3 ADD MSTORE PUSH1 0x1E PUSH1 0x24 DUP3 ADD MSTORE PUSH32 0x56657374696E6720706172616D657465727320616C7265616479207365740000 PUSH1 0x44 DUP3 ADD MSTORE PUSH1 0x64 ADD PUSH2 0x7AF JUMP JUMPDEST DUP1 MLOAD DUP3 MLOAD EQ PUSH2 0x1E06 JUMPI PUSH1 0x40 MLOAD PUSH3 0x461BCD PUSH1 0xE5 SHL DUP2 MSTORE PUSH1 0x20 PUSH1 0x4 DUP3 ADD MSTORE PUSH1 0x44 PUSH1 0x24 DUP3 ADD DUP2 SWAP1 MSTORE PUSH32 0x556E6C6F636B696E672054696D6573206C656E677468206D7573742062652065 SWAP1 DUP3 ADD MSTORE PUSH32 0x7175616C20776974682050657263656E742050657220506F7274696F6E206C65 PUSH1 0x64 DUP3 ADD MSTORE PUSH4 0xDCCEE8D PUSH1 0xE3 SHL PUSH1 0x84 DUP3 ADD MSTORE PUSH1 0xA4 ADD PUSH2 0x7AF JUMP JUMPDEST PUSH1 0xC SLOAD PUSH1 0x1 PUSH1 0xA0 SHL SWAP1 DIV PUSH1 0xFF AND PUSH2 0x1E2F JUMPI PUSH1 0x40 MLOAD PUSH3 0x461BCD PUSH1 0xE5 SHL DUP2 MSTORE PUSH1 0x4 ADD PUSH2 0x7AF SWAP1 PUSH2 0x27BF JUMP JUMPDEST PUSH1 0x12 PUSH1 0x1 ADD SLOAD DUP3 PUSH1 0x0 DUP2 MLOAD DUP2 LT PUSH2 0x1E48 JUMPI PUSH2 0x1E48 PUSH2 0x26D9 JUMP JUMPDEST PUSH1 0x20 MUL PUSH1 0x20 ADD ADD MLOAD GT PUSH2 0x1EB5 JUMPI PUSH1 0x40 MLOAD PUSH3 0x461BCD PUSH1 0xE5 SHL DUP2 MSTORE PUSH1 0x20 PUSH1 0x4 DUP3 ADD MSTORE PUSH1 0x2F PUSH1 0x24 DUP3 ADD MSTORE PUSH32 0x556E6C6F636B2074696D65206D75737420626520616674657220746865206469 PUSH1 0x44 DUP3 ADD MSTORE PUSH15 0x73747269627574696F6E20656E6473 PUSH1 0x88 SHL PUSH1 0x64 DUP3 ADD MSTORE PUSH1 0x84 ADD PUSH2 0x7AF JUMP JUMPDEST PUSH1 0x0 DUP1 JUMPDEST DUP4 MLOAD DUP2 LT ISZERO PUSH2 0x1A3E JUMPI DUP1 ISZERO PUSH2 0x1F65 JUMPI DUP4 PUSH2 0x1ED4 PUSH1 0x1 DUP4 PUSH2 0x2762 JUMP JUMPDEST DUP2 MLOAD DUP2 LT PUSH2 0x1EE4 JUMPI PUSH2 0x1EE4 PUSH2 0x26D9 JUMP JUMPDEST PUSH1 0x20 MUL PUSH1 0x20 ADD ADD MLOAD DUP5 DUP3 DUP2 MLOAD DUP2 LT PUSH2 0x1EFE JUMPI PUSH2 0x1EFE PUSH2 0x26D9 JUMP JUMPDEST PUSH1 0x20 MUL PUSH1 0x20 ADD ADD MLOAD GT PUSH2 0x1F65 JUMPI PUSH1 0x40 MLOAD PUSH3 0x461BCD PUSH1 0xE5 SHL DUP2 MSTORE PUSH1 0x20 PUSH1 0x4 DUP3 ADD MSTORE PUSH1 0x29 PUSH1 0x24 DUP3 ADD MSTORE PUSH32 0x556E6C6F636B2074696D65206D7573742062652067726561746572207468616E PUSH1 0x44 DUP3 ADD MSTORE PUSH9 0x2070726576696F7573 PUSH1 0xB8 SHL PUSH1 0x64 DUP3 ADD MSTORE PUSH1 0x84 ADD PUSH2 0x7AF JUMP JUMPDEST PUSH1 0x9 DUP5 DUP3 DUP2 MLOAD DUP2 LT PUSH2 0x1F79 JUMPI PUSH2 0x1F79 PUSH2 0x26D9 JUMP JUMPDEST PUSH1 0x20 SWAP1 DUP2 MUL SWAP2 SWAP1 SWAP2 ADD DUP2 ADD MLOAD DUP3 SLOAD PUSH1 0x1 DUP2 ADD DUP5 SSTORE PUSH1 0x0 SWAP4 DUP5 MSTORE SWAP2 SWAP1 SWAP3 KECCAK256 ADD SSTORE DUP3 MLOAD PUSH1 0xA SWAP1 DUP5 SWAP1 DUP4 SWAP1 DUP2 LT PUSH2 0x1FAF JUMPI PUSH2 0x1FAF PUSH2 0x26D9 JUMP JUMPDEST PUSH1 0x20 SWAP1 DUP2 MUL SWAP2 SWAP1 SWAP2 ADD DUP2 ADD MLOAD DUP3 SLOAD PUSH1 0x1 DUP2 ADD DUP5 SSTORE PUSH1 0x0 SWAP4 DUP5 MSTORE SWAP2 SWAP1 SWAP3 KECCAK256 ADD SSTORE DUP3 MLOAD PUSH2 0x1FE6 SWAP1 DUP5 SWAP1 DUP4 SWAP1 DUP2 LT PUSH2 0x1A13 JUMPI PUSH2 0x1A13 PUSH2 0x26D9 JUMP JUMPDEST SWAP2 POP DUP1 PUSH2 0x1FF2 DUP2 PUSH2 0x2705 JUMP JUMPDEST SWAP2 POP POP PUSH2 0x1EB9 JUMP JUMPDEST PUSH1 0xC SLOAD PUSH1 0x1 PUSH1 0x1 PUSH1 0xA0 SHL SUB AND CALLER EQ PUSH2 0x2024 JUMPI PUSH1 0x40 MLOAD PUSH3 0x461BCD PUSH1 0xE5 SHL DUP2 MSTORE PUSH1 0x4 ADD PUSH2 0x7AF SWAP1 PUSH2 0x2779 JUMP JUMPDEST PUSH1 0x1 PUSH1 0x1 PUSH1 0xA0 SHL SUB SWAP1 SWAP2 AND PUSH1 0x0 SWAP1 DUP2 MSTORE PUSH1 0x4 PUSH1 0x20 MSTORE PUSH1 0x40 SWAP1 KECCAK256 SSTORE JUMP JUMPDEST PUSH1 0x1 PUSH1 0x1 PUSH1 0xA0 SHL SUB DUP2 AND PUSH1 0x0 SWAP1 DUP2 MSTORE PUSH1 0x20 DUP2 SWAP1 MSTORE PUSH1 0x40 SWAP1 KECCAK256 PUSH1 0x2 ADD SLOAD PUSH1 0xFF AND ISZERO PUSH2 0x20AC JUMPI PUSH1 0x40 MLOAD PUSH3 0x461BCD PUSH1 0xE5 SHL DUP2 MSTORE PUSH1 0x20 PUSH1 0x4 DUP3 ADD MSTORE PUSH1 0x1A PUSH1 0x24 DUP3 ADD MSTORE PUSH32 0x4164647265737320616C72656164792072656769737465726564000000000000 PUSH1 0x44 DUP3 ADD MSTORE PUSH1 0x64 ADD PUSH2 0x7AF JUMP JUMPDEST PUSH1 0x40 DUP1 MLOAD PUSH1 0x60 DUP2 ADD DUP3 MSTORE TIMESTAMP DUP2 MSTORE PUSH1 0x0 PUSH1 0x20 DUP1 DUP4 ADD DUP3 DUP2 MSTORE PUSH1 0x1 DUP5 DUP7 ADD DUP2 DUP2 MSTORE PUSH1 0x1 PUSH1 0x1 PUSH1 0xA0 SHL SUB DUP9 AND DUP1 DUP7 MSTORE DUP6 DUP6 MSTORE DUP8 DUP7 KECCAK256 SWAP7 MLOAD DUP8 SSTORE SWAP3 MLOAD DUP7 DUP4 ADD SSTORE MLOAD PUSH1 0x2 SWAP6 DUP7 ADD DUP1 SLOAD PUSH1 0xFF NOT AND SWAP2 ISZERO ISZERO SWAP2 SWAP1 SWAP2 OR SWAP1 SSTORE DUP5 SLOAD DUP5 MSTORE SWAP1 SWAP2 MSTORE SWAP3 DUP2 KECCAK256 DUP1 SLOAD PUSH1 0x1 PUSH1 0x1 PUSH1 0xA0 SHL SUB NOT AND SWAP1 SWAP4 OR SWAP1 SWAP3 SSTORE DUP1 SLOAD SWAP2 PUSH2 0x2125 DUP4 PUSH2 0x2705 JUMP JUMPDEST SWAP2 SWAP1 POP SSTORE POP DUP1 PUSH1 0x1 PUSH1 0x1 PUSH1 0xA0 SHL SUB AND PUSH32 0x6F3BF3FA84E4763A43B3D23F9D79BE242D6D5C834941FF4C1111B67469E1150C TIMESTAMP PUSH1 0x40 MLOAD PUSH2 0x2165 SWAP2 DUP2 MSTORE PUSH1 0x20 ADD SWAP1 JUMP JUMPDEST PUSH1 0x40 MLOAD DUP1 SWAP2 SUB SWAP1 LOG2 POP JUMP JUMPDEST PUSH1 0x0 PUSH2 0x217C DUP3 DUP5 PUSH2 0x2838 JUMP JUMPDEST SWAP4 SWAP3 POP POP POP JUMP JUMPDEST PUSH1 0x0 PUSH2 0x217C DUP3 DUP5 PUSH2 0x2857 JUMP JUMPDEST PUSH1 0x0 PUSH2 0x217C DUP3 DUP5 PUSH2 0x2879 JUMP JUMPDEST PUSH1 0x0 PUSH2 0x217C DUP3 DUP5 PUSH2 0x2762 JUMP JUMPDEST PUSH1 0x20 DUP1 DUP3 MSTORE DUP3 MLOAD DUP3 DUP3 ADD DUP2 SWAP1 MSTORE PUSH1 0x0 SWAP2 SWAP1 DUP5 DUP3 ADD SWAP1 PUSH1 0x40 DUP6 ADD SWAP1 DUP5 JUMPDEST DUP2 DUP2 LT ISZERO PUSH2 0x21DF JUMPI DUP4 MLOAD DUP4 MSTORE SWAP3 DUP5 ADD SWAP3 SWAP2 DUP5 ADD SWAP2 PUSH1 0x1 ADD PUSH2 0x21C3 JUMP JUMPDEST POP SWAP1 SWAP7 SWAP6 POP POP POP POP POP POP JUMP JUMPDEST DUP1 CALLDATALOAD PUSH1 0x1 PUSH1 0x1 PUSH1 0xA0 SHL SUB DUP2 AND DUP2 EQ PUSH2 0x2202 JUMPI PUSH1 0x0 DUP1 REVERT JUMPDEST SWAP2 SWAP1 POP JUMP JUMPDEST PUSH1 0x0 PUSH1 0x20 DUP3 DUP5 SUB SLT ISZERO PUSH2 0x2219 JUMPI PUSH1 0x0 DUP1 REVERT JUMPDEST PUSH2 0x217C DUP3 PUSH2 0x21EB JUMP JUMPDEST PUSH1 0x0 PUSH1 0x20 DUP3 DUP5 SUB SLT ISZERO PUSH2 0x2234 JUMPI PUSH1 0x0 DUP1 REVERT JUMPDEST POP CALLDATALOAD SWAP2 SWAP1 POP JUMP JUMPDEST PUSH1 0x20 DUP1 DUP3 MSTORE DUP3 MLOAD DUP3 DUP3 ADD DUP2 SWAP1 MSTORE PUSH1 0x0 SWAP2 SWAP1 DUP5 DUP3 ADD SWAP1 PUSH1 0x40 DUP6 ADD SWAP1 DUP5 JUMPDEST DUP2 DUP2 LT ISZERO PUSH2 0x21DF JUMPI DUP4 MLOAD PUSH1 0x1 PUSH1 0x1 PUSH1 0xA0 SHL SUB AND DUP4 MSTORE SWAP3 DUP5 ADD SWAP3 SWAP2 DUP5 ADD SWAP2 PUSH1 0x1 ADD PUSH2 0x2257 JUMP JUMPDEST PUSH1 0x0 DUP1 PUSH1 0x40 DUP4 DUP6 SUB SLT ISZERO PUSH2 0x228F JUMPI PUSH1 0x0 DUP1 REVERT JUMPDEST POP POP DUP1 CALLDATALOAD SWAP3 PUSH1 0x20 SWAP1 SWAP2 ADD CALLDATALOAD SWAP2 POP JUMP JUMPDEST PUSH1 0x0 DUP1 PUSH1 0x40 DUP4 DUP6 SUB SLT ISZERO PUSH2 0x22B1 JUMPI PUSH1 0x0 DUP1 REVERT JUMPDEST PUSH2 0x22BA DUP4 PUSH2 0x21EB JUMP JUMPDEST SWAP5 PUSH1 0x20 SWAP4 SWAP1 SWAP4 ADD CALLDATALOAD SWAP4 POP POP POP JUMP JUMPDEST PUSH4 0x4E487B71 PUSH1 0xE0 SHL PUSH1 0x0 MSTORE PUSH1 0x41 PUSH1 0x4 MSTORE PUSH1 0x24 PUSH1 0x0 REVERT JUMPDEST PUSH1 0x40 DUP1 MLOAD SWAP1 DUP2 ADD PUSH8 0xFFFFFFFFFFFFFFFF DUP2 GT DUP3 DUP3 LT OR ISZERO PUSH2 0x2301 JUMPI PUSH2 0x2301 PUSH2 0x22C8 JUMP JUMPDEST PUSH1 0x40 MSTORE SWAP1 JUMP JUMPDEST PUSH1 0x40 MLOAD PUSH1 0x1F DUP3 ADD PUSH1 0x1F NOT AND DUP2 ADD PUSH8 0xFFFFFFFFFFFFFFFF DUP2 GT DUP3 DUP3 LT OR ISZERO PUSH2 0x2330 JUMPI PUSH2 0x2330 PUSH2 0x22C8 JUMP JUMPDEST PUSH1 0x40 MSTORE SWAP2 SWAP1 POP JUMP JUMPDEST PUSH1 0x0 PUSH8 0xFFFFFFFFFFFFFFFF DUP3 GT ISZERO PUSH2 0x2352 JUMPI PUSH2 0x2352 PUSH2 0x22C8 JUMP JUMPDEST POP PUSH1 0x5 SHL PUSH1 0x20 ADD SWAP1 JUMP JUMPDEST PUSH1 0x0 PUSH1 0x20 DUP1 DUP4 DUP6 SUB SLT ISZERO PUSH2 0x236F JUMPI PUSH1 0x0 DUP1 REVERT JUMPDEST DUP3 CALLDATALOAD PUSH8 0xFFFFFFFFFFFFFFFF DUP2 GT ISZERO PUSH2 0x2386 JUMPI PUSH1 0x0 DUP1 REVERT JUMPDEST DUP4 ADD PUSH1 0x1F DUP2 ADD DUP6 SGT PUSH2 0x2397 JUMPI PUSH1 0x0 DUP1 REVERT JUMPDEST DUP1 CALLDATALOAD PUSH2 0x23AA PUSH2 0x23A5 DUP3 PUSH2 0x2338 JUMP JUMPDEST PUSH2 0x2307 JUMP JUMPDEST DUP2 DUP2 MSTORE PUSH1 0x5 SWAP2 SWAP1 SWAP2 SHL DUP3 ADD DUP4 ADD SWAP1 DUP4 DUP2 ADD SWAP1 DUP8 DUP4 GT ISZERO PUSH2 0x23C9 JUMPI PUSH1 0x0 DUP1 REVERT JUMPDEST SWAP3 DUP5 ADD SWAP3 JUMPDEST DUP3 DUP5 LT ISZERO PUSH2 0x23EE JUMPI PUSH2 0x23DF DUP5 PUSH2 0x21EB JUMP JUMPDEST DUP3 MSTORE SWAP3 DUP5 ADD SWAP3 SWAP1 DUP5 ADD SWAP1 PUSH2 0x23CE JUMP JUMPDEST SWAP8 SWAP7 POP POP POP POP POP POP POP JUMP JUMPDEST PUSH1 0x0 DUP3 PUSH1 0x1F DUP4 ADD SLT PUSH2 0x240A JUMPI PUSH1 0x0 DUP1 REVERT JUMPDEST DUP2 CALLDATALOAD PUSH1 0x20 PUSH2 0x241A PUSH2 0x23A5 DUP4 PUSH2 0x2338 JUMP JUMPDEST DUP3 DUP2 MSTORE PUSH1 0x5 SWAP3 SWAP1 SWAP3 SHL DUP5 ADD DUP2 ADD SWAP2 DUP2 DUP2 ADD SWAP1 DUP7 DUP5 GT ISZERO PUSH2 0x2439 JUMPI PUSH1 0x0 DUP1 REVERT JUMPDEST DUP3 DUP7 ADD JUMPDEST DUP5 DUP2 LT ISZERO PUSH2 0x2454 JUMPI DUP1 CALLDATALOAD DUP4 MSTORE SWAP2 DUP4 ADD SWAP2 DUP4 ADD PUSH2 0x243D JUMP JUMPDEST POP SWAP7 SWAP6 POP POP POP POP POP POP JUMP JUMPDEST PUSH1 0x0 DUP1 PUSH1 0x40 DUP4 DUP6 SUB SLT ISZERO PUSH2 0x2472 JUMPI PUSH1 0x0 DUP1 REVERT JUMPDEST DUP3 CALLDATALOAD SWAP2 POP PUSH1 0x20 DUP4 ADD CALLDATALOAD PUSH8 0xFFFFFFFFFFFFFFFF DUP2 GT ISZERO PUSH2 0x2490 JUMPI PUSH1 0x0 DUP1 REVERT JUMPDEST PUSH2 0x249C DUP6 DUP3 DUP7 ADD PUSH2 0x23F9 JUMP JUMPDEST SWAP2 POP POP SWAP3 POP SWAP3 SWAP1 POP JUMP JUMPDEST PUSH1 0x0 DUP1 PUSH1 0x0 PUSH1 0x60 DUP5 DUP7 SUB SLT ISZERO PUSH2 0x24BB JUMPI PUSH1 0x0 DUP1 REVERT JUMPDEST DUP4 CALLDATALOAD SWAP3 POP PUSH1 0x20 DUP5 ADD CALLDATALOAD SWAP2 POP PUSH2 0x24D2 PUSH1 0x40 DUP6 ADD PUSH2 0x21EB JUMP JUMPDEST SWAP1 POP SWAP3 POP SWAP3 POP SWAP3 JUMP JUMPDEST PUSH1 0x0 PUSH1 0x20 DUP1 DUP4 DUP6 SUB SLT ISZERO PUSH2 0x24EE JUMPI PUSH1 0x0 DUP1 REVERT JUMPDEST DUP3 CALLDATALOAD PUSH8 0xFFFFFFFFFFFFFFFF DUP2 GT ISZERO PUSH2 0x2505 JUMPI PUSH1 0x0 DUP1 REVERT JUMPDEST DUP4 ADD PUSH1 0x1F DUP2 ADD DUP6 SGT PUSH2 0x2516 JUMPI PUSH1 0x0 DUP1 REVERT JUMPDEST DUP1 CALLDATALOAD PUSH2 0x2524 PUSH2 0x23A5 DUP3 PUSH2 0x2338 JUMP JUMPDEST DUP2 DUP2 MSTORE PUSH1 0x6 SWAP2 SWAP1 SWAP2 SHL DUP3 ADD DUP4 ADD SWAP1 DUP4 DUP2 ADD SWAP1 DUP8 DUP4 GT ISZERO PUSH2 0x2543 JUMPI PUSH1 0x0 DUP1 REVERT JUMPDEST SWAP3 DUP5 ADD SWAP3 JUMPDEST DUP3 DUP5 LT ISZERO PUSH2 0x23EE JUMPI PUSH1 0x40 DUP5 DUP10 SUB SLT ISZERO PUSH2 0x2561 JUMPI PUSH1 0x0 DUP1 DUP2 REVERT JUMPDEST PUSH2 0x2569 PUSH2 0x22DE JUMP JUMPDEST PUSH2 0x2572 DUP6 PUSH2 0x21EB JUMP JUMPDEST DUP2 MSTORE DUP5 DUP7 ADD CALLDATALOAD DUP7 DUP3 ADD MSTORE DUP3 MSTORE PUSH1 0x40 SWAP1 SWAP4 ADD SWAP3 SWAP1 DUP5 ADD SWAP1 PUSH2 0x2548 JUMP JUMPDEST PUSH1 0x0 DUP1 PUSH1 0x40 DUP4 DUP6 SUB SLT ISZERO PUSH2 0x25A0 JUMPI PUSH1 0x0 DUP1 REVERT JUMPDEST DUP3 CALLDATALOAD PUSH8 0xFFFFFFFFFFFFFFFF DUP1 DUP3 GT ISZERO PUSH2 0x25B8 JUMPI PUSH1 0x0 DUP1 REVERT JUMPDEST PUSH2 0x25C4 DUP7 DUP4 DUP8 ADD PUSH2 0x23F9 JUMP JUMPDEST SWAP4 POP PUSH1 0x20 DUP6 ADD CALLDATALOAD SWAP2 POP DUP1 DUP3 GT ISZERO PUSH2 0x25DA JUMPI PUSH1 0x0 DUP1 REVERT JUMPDEST POP PUSH2 0x249C DUP6 DUP3 DUP7 ADD PUSH2 0x23F9 JUMP JUMPDEST PUSH1 0x20 DUP1 DUP3 MSTORE PUSH1 0x2D SWAP1 DUP3 ADD MSTORE PUSH32 0x526567697374726174696F6E20726F756E64206973206F766572206F72206E6F PUSH1 0x40 DUP3 ADD MSTORE PUSH13 0x1D081CDD185C9D1959081E595D PUSH1 0x9A SHL PUSH1 0x60 DUP3 ADD MSTORE PUSH1 0x80 ADD SWAP1 JUMP JUMPDEST PUSH1 0x20 DUP1 DUP3 MSTORE PUSH1 0x19 SWAP1 DUP3 ADD MSTORE PUSH32 0x416C6C6F77732061646D696E2061646472657373206F6E6C7900000000000000 PUSH1 0x40 DUP3 ADD MSTORE PUSH1 0x60 ADD SWAP1 JUMP JUMPDEST PUSH1 0x20 DUP1 DUP3 MSTORE PUSH1 0x1E SWAP1 DUP3 ADD MSTORE PUSH32 0x56657374696E6720706172616D657465727320617265206E6F74207365740000 PUSH1 0x40 DUP3 ADD MSTORE PUSH1 0x60 ADD SWAP1 JUMP JUMPDEST PUSH1 0x20 DUP1 DUP3 MSTORE PUSH1 0x1C SWAP1 DUP3 ADD MSTORE PUSH32 0x5468657265206973206E6F7468696E6720746F20776974686472617700000000 PUSH1 0x40 DUP3 ADD MSTORE PUSH1 0x60 ADD SWAP1 JUMP JUMPDEST PUSH4 0x4E487B71 PUSH1 0xE0 SHL PUSH1 0x0 MSTORE PUSH1 0x32 PUSH1 0x4 MSTORE PUSH1 0x24 PUSH1 0x0 REVERT JUMPDEST PUSH4 0x4E487B71 PUSH1 0xE0 SHL PUSH1 0x0 MSTORE PUSH1 0x11 PUSH1 0x4 MSTORE PUSH1 0x24 PUSH1 0x0 REVERT JUMPDEST PUSH1 0x0 PUSH1 0x1 DUP3 ADD PUSH2 0x2717 JUMPI PUSH2 0x2717 PUSH2 0x26EF JUMP JUMPDEST POP PUSH1 0x1 ADD SWAP1 JUMP JUMPDEST PUSH1 0x20 DUP1 DUP3 MSTORE PUSH1 0x24 SWAP1 DUP3 ADD MSTORE PUSH32 0x5468657265206973206E6F207375636820616D6F756E7420746F207769647468 PUSH1 0x40 DUP3 ADD MSTORE PUSH4 0x64726177 PUSH1 0xE0 SHL PUSH1 0x60 DUP3 ADD MSTORE PUSH1 0x80 ADD SWAP1 JUMP JUMPDEST PUSH1 0x0 DUP3 DUP3 LT ISZERO PUSH2 0x2774 JUMPI PUSH2 0x2774 PUSH2 0x26EF JUMP JUMPDEST POP SUB SWAP1 JUMP JUMPDEST PUSH1 0x20 DUP1 DUP3 MSTORE PUSH1 0x26 SWAP1 DUP3 ADD MSTORE PUSH32 0x416C6C6F777320646973747269627574696F6E206F776E657220616464726573 PUSH1 0x40 DUP3 ADD MSTORE PUSH6 0x73206F6E6C79 PUSH1 0xD0 SHL PUSH1 0x60 DUP3 ADD MSTORE PUSH1 0x80 ADD SWAP1 JUMP JUMPDEST PUSH1 0x20 DUP1 DUP3 MSTORE PUSH1 0x1B SWAP1 DUP3 ADD MSTORE PUSH32 0x446973747269627574696F6E206973206E6F7420637265617465640000000000 PUSH1 0x40 DUP3 ADD MSTORE PUSH1 0x60 ADD SWAP1 JUMP JUMPDEST PUSH1 0x20 DUP1 DUP3 MSTORE PUSH1 0x22 SWAP1 DUP3 ADD MSTORE PUSH32 0x50726F76696465642061646472657373206973206E6F74207265676973746572 PUSH1 0x40 DUP3 ADD MSTORE PUSH2 0x1959 PUSH1 0xF2 SHL PUSH1 0x60 DUP3 ADD MSTORE PUSH1 0x80 ADD SWAP1 JUMP JUMPDEST PUSH1 0x0 DUP2 PUSH1 0x0 NOT DIV DUP4 GT DUP3 ISZERO ISZERO AND ISZERO PUSH2 0x2852 JUMPI PUSH2 0x2852 PUSH2 0x26EF JUMP JUMPDEST POP MUL SWAP1 JUMP JUMPDEST PUSH1 0x0 DUP3 PUSH2 0x2874 JUMPI PUSH4 0x4E487B71 PUSH1 0xE0 SHL PUSH1 0x0 MSTORE PUSH1 0x12 PUSH1 0x4 MSTORE PUSH1 0x24 PUSH1 0x0 REVERT JUMPDEST POP DIV SWAP1 JUMP JUMPDEST PUSH1 0x0 DUP3 NOT DUP3 GT ISZERO PUSH2 0x288C JUMPI PUSH2 0x288C PUSH2 0x26EF JUMP JUMPDEST POP ADD SWAP1 JUMP INVALID LOG2 PUSH5 0x6970667358 0x22 SLT KECCAK256 MSIZE DUP4 PUSH4 0x2CE0E818 SWAP11 ADDMOD 0xA7 DIFFICULTY SLT SGT 0xF6 0xE9 SHL ORIGIN PUSH16 0xBEBF289005B97F0C973983E799B6473 PUSH16 0x6C634300080E0033A264697066735822 SLT KECCAK256 DUP1 0x28 0x5C 0xD0 PUSH4 0x736E1036 0xBF CALLDATASIZE 0x4B DUP3 0xC2 ADDMOD 0xBE XOR SWAP10 SWAP8 0xEE 0xF9 PUSH19 0x4DD0075045AF78D9B7EC64736F6C634300080E STOP CALLER ",
  "sha1": "d17f236bd11c0701bb476e688800961acde8735a",
  "source": "// SPDX-License-Identifier: MIT\n\npragma solidity ^0.8.7;\n\nimport './DistributorNative.sol';\n\ncontract DistributorNativeFactory {\n\n    mapping (uint => address)     public indexesToContracts;\n    uint                          public contractsCount;\n\n    function create() public returns (address) {\n        DistributorNative distributorContract = new DistributorNative(msg.sender);\n\n        indexesToContracts[contractsCount] = address(distributorContract);\n        contractsCount++;\n\n        return address(distributorContract);\n    }\n\n    function getAll() public view returns (address[] memory) {\n        address[] memory distributors = new address[](contractsCount);\n\n        for (uint i; i < contractsCount; i++) {\n            distributors[i] = address(indexesToContracts[i]);\n        }\n\n        return distributors;\n    }\n}",
  "sourcePath": "contracts/DistributorFactory.sol",
  "type": "contract"
}