{
  "abi": [
    {
      "inputs": [],
      "name": "contractsCount",
      "outputs": [
        {
          "internalType": "uint256",
          "name": "",
          "type": "uint256"
        }
      ],
      "stateMutability": "view",
      "type": "function"
    },
    {
      "inputs": [],
      "name": "create",
      "outputs": [
        {
          "internalType": "address",
          "name": "",
          "type": "address"
        }
      ],
      "stateMutability": "nonpayable",
      "type": "function"
    },
    {
      "inputs": [],
      "name": "getAll",
      "outputs": [
        {
          "internalType": "address[]",
          "name": "",
          "type": "address[]"
        }
      ],
      "stateMutability": "view",
      "type": "function"
    },
    {
      "inputs": [
        {
          "internalType": "uint256",
          "name": "",
          "type": "uint256"
        }
      ],
      "name": "indexesToContracts",
      "outputs": [
        {
          "internalType": "address",
          "name": "",
          "type": "address"
        }
      ],
      "stateMutability": "view",
      "type": "function"
    }
  ],
  "bytecode": "608060405234801561001057600080fd5b50612d26806100206000396000f3fe608060405234801561001057600080fd5b506004361061004c5760003560e01c806353ed5143146100515780638f197e741461006f578063c4fecdb6146100b0578063efc81a8c146100c7575b600080fd5b6100596100cf565b6040516100669190610214565b60405180910390f35b61009861007d366004610261565b6000602081905290815260409020546001600160a01b031681565b6040516001600160a01b039091168152602001610066565b6100b960015481565b604051908152602001610066565b610098610186565b6060600060015467ffffffffffffffff8111156100ee576100ee61027a565b604051908082528060200260200182016040528015610117578160200160208202803683370190505b50905060005b6001548110156101805760008181526020819052604090205482516001600160a01b039091169083908390811061015657610156610290565b6001600160a01b039092166020928302919091019091015280610178816102a6565b91505061011d565b50919050565b6000803360405161019690610207565b6001600160a01b039091168152602001604051809103906000f0801580156101c2573d6000803e3d6000fd5b5060018054600090815260208190526040812080546001600160a01b0319166001600160a01b03851617905581549293506101fc836102a6565b909155509092915050565b612a23806102ce83390190565b6020808252825182820181905260009190848201906040850190845b818110156102555783516001600160a01b031683529284019291840191600101610230565b50909695505050505050565b60006020828403121561027357600080fd5b5035919050565b634e487b7160e01b600052604160045260246000fd5b634e487b7160e01b600052603260045260246000fd5b6000600182016102c657634e487b7160e01b600052601160045260246000fd5b506001019056fe60806040523480156200001157600080fd5b5060405162002a2338038062002a2383398101604081905262000034916200005a565b600b80546001600160a01b0319166001600160a01b03929092169190911790556200008c565b6000602082840312156200006d57600080fd5b81516001600160a01b03811681146200008557600080fd5b9392505050565b612987806200009c6000396000f3fe608060405234801561001057600080fd5b50600436106102275760003560e01c80637e87c05311610130578063bb0f0d51116100b8578063f1ef7ff21161007c578063f1ef7ff21461052e578063f4b7a41314610541578063f568252314610554578063f851a44014610567578063fc9541441461057a57600080fd5b8063bb0f0d51146104da578063c44c209a146104ed578063d11711a214610500578063d64f6cb614610508578063e5664d841461051b57600080fd5b806398c32a7f116100ff57806398c32a7f1461047b5780639bdeb3351461049e578063a525d237146104a6578063aa6cb71d146104ae578063b1cde244146104b757600080fd5b80637e87c0531461041b5780638444f15314610423578063927f6aee14610436578063942e6bcf1461044957600080fd5b80633ccfd60b116101b35780637073c072116101825780637073c072146103c557806372c0fe1d146103da578063760b7c41146103ed578063793a2954146104005780637c4b414d1461041357600080fd5b80633ccfd60b1461031b5780633db5a524146103235780635ee58efc1461032c57806362b21fa1146103a557600080fd5b80631eeadfa8116101fa5780631eeadfa81461029f5780632199d5cd146102b657806323e8e9bf146102c95780633c3ec8b7146102d15780633c961fc21461031257600080fd5b80631754d62d1461022c5780631aa3a008146102635780631ba7dd1e1461026d5780631c5f47ee14610282575b600080fd5b60105460115460125461024192919060ff1683565b6040805193845260208401929092521515908201526060015b60405180910390f35b61026b6105b9565b005b61027561060c565b60405161025a9190612208565b60155461028f9060ff1681565b604051901515815260200161025a565b6102a860075481565b60405190815260200161025a565b61026b6102c4366004612268565b610664565b61026b6106d9565b6102fa6102df366004612283565b6001602052600090815260409020546001600160a01b031681565b6040516001600160a01b03909116815260200161025a565b6102a860085481565b61026b61074c565b6102a860065481565b600c54600d54600e54600f54610365936001600160a01b03908116939081169260ff600160a01b8304811693600160a81b909304169186565b604080516001600160a01b0397881681529690951660208701529215159385019390935215156060840152608083019190915260a082015260c00161025a565b6102a86103b3366004612268565b60046020526000908152604090205481565b6103cd610a50565b60405161025a919061229c565b61026b6103e8366004612283565b610b0a565b61026b6103fb3660046122dd565b610c17565b61026b61040e366004612323565b610ce5565b61026b610e43565b610275610f2c565b61026b610431366004612323565b610f82565b6102a8610444366004612283565b610ffe565b610241610457366004612268565b60006020819052908152604090208054600182015460029092015490919060ff1683565b61028f610489366004612268565b60056020526000908152604090205460ff1681565b61026b61101f565b61026b61122a565b6102a860025481565b6013546014546104c5919082565b6040805192835260208301919091520161025a565b61026b6104e8366004612345565b6113af565b61026b6104fb366004612403565b611433565b61026b6115c6565b61026b6105163660046124fb565b61170f565b61026b610529366004612542565b6118e9565b6102a861053c366004612283565b611a53565b61026b61054f3660046125f4565b611a63565b61026b610562366004612345565b611d62565b600b546102fa906001600160a01b031681565b6105a4610588366004612268565b6003602052600090815260409020805460019091015460ff1682565b6040805192835290151560208301520161025a565b60105442108015906105cd57506011544211155b80156105dc575060125460ff16155b6106015760405162461bcd60e51b81526004016105f89061264e565b60405180910390fd5b61060a33611da8565b565b6060600980548060200260200160405190810160405280929190818152602001828054801561065a57602002820191906000526020600020905b815481526020019060010190808311610646575b5050505050905090565b601054421080159061067857506011544211155b8015610687575060125460ff16155b6106a35760405162461bcd60e51b81526004016105f89061264e565b600b546001600160a01b031633146106cd5760405162461bcd60e51b81526004016105f89061269b565b6106d681611da8565b50565b600b546001600160a01b031633146107035760405162461bcd60e51b81526004016105f89061269b565b6012805460ff191660011790556040517f7069b20063a2c984d75a2165d1633fd0be67afe3680341d2fc5d0cce78c9ceea906107429042815260200190565b60405180910390a1565b600a541580159061075e575060095415155b61077a5760405162461bcd60e51b81526004016105f8906126d2565b3360009081526020819052604090206002015460ff166107dc5760405162461bcd60e51b815260206004820152601960248201527f41646472657373206973206e6f7420726567697374657265640000000000000060448201526064016105f8565b3360009081526003602052604090206001015460ff166108525760405162461bcd60e51b815260206004820152602b60248201527f41646472657373206973206e6f742070617274696369706174656420696e206460448201526a34b9ba3934b13aba34b7b760a91b60648201526084016105f8565b3360009081526005602052604090205460ff16156108c05760405162461bcd60e51b815260206004820152602560248201527f416464726573732068617320657865637574656420776974686472617720616c604482015264726561647960d81b60648201526084016105f8565b33600090815260208190526040812060018101546108f05760405162461bcd60e51b81526004016105f890612709565b60005b600954811015610985576009818154811061091057610910612740565b9060005260206000200154421061097357600061096360075461095d600a858154811061093f5761093f612740565b90600052602060002001548660010154611ed890919063ffffffff16565b90611eeb565b905061096f8482611ef7565b9350505b8061097d8161276c565b9150506108f3565b50600082116109d65760405162461bcd60e51b815260206004820152601d60248201527f5468657265206973206e6f7468696e6720746f2077696474686472617700000060448201526064016105f8565b336000908152600560205260409020805460ff19166001179055600f546109fd9083611ef7565b600f55600c54610a17906001600160a01b03163384611f03565b60405182815233907f6352c5382c4a4578e712449ca65e83cdb392d045dfcf1cad9615189db2da244b9060200160405180910390a25050565b6060600060025467ffffffffffffffff811115610a6f57610a6f61236f565b604051908082528060200260200182016040528015610a98578160200160208202803683370190505b50905060005b600254811015610b045760008181526001602052604090205482516001600160a01b03909116908190849084908110610ad957610ad9612740565b6001600160a01b03909216602092830291909101909101525080610afc8161276c565b915050610a9e565b50919050565b600b546001600160a01b03163314610b345760405162461bcd60e51b81526004016105f89061269b565b600a5415801590610b46575060095415155b610b625760405162461bcd60e51b81526004016105f8906126d2565b60098054610b7290600190612785565b81548110610b8257610b82612740565b90600052602060002001548111610c125760405162461bcd60e51b815260206004820152604860248201527f546865206c61737420646179206f662074686520646973747269627574696f6e60448201527f206d757374206265206c61746572207468616e20746865206c61737420756e6c6064820152676f636b2074696d6560c01b608482015260a4016105f8565b600655565b600b546001600160a01b03163314610c415760405162461bcd60e51b81526004016105f89061269b565b600d54600160a01b900460ff1615610c9b5760405162461bcd60e51b815260206004820152601c60248201527f446973747269627574696f6e20616c726561647920637265617465640000000060448201526064016105f8565b600c80546001600160a01b039283166001600160a01b0319909116179055600d8054600e959095556007939093556001600160a81b0319909316921691909117600160a01b179055565b600b546001600160a01b03163314610d0f5760405162461bcd60e51b81526004016105f89061269b565b600d54600160a01b900460ff16610d745760405162461bcd60e51b815260206004820152602360248201527f446973747269627574696f6e20706172616d657465727320617265206e6f74206044820152621cd95d60ea1b60648201526084016105f8565b6011548211610deb5760405162461bcd60e51b815260206004820152603860248201527f446973747269627574696f6e20726f756e64206d757374206265206c6174657260448201527f207468616e20726567697374726174696f6e20726f756e64000000000000000060648201526084016105f8565b60408051808201825283815260200182905260138390556014829055517f7d5e91551dc6f3038619d85da877b41440d669756a40eeb78b1c9df6c6a988d590610e379042815260200190565b60405180910390a15050565b600d546001600160a01b03163314610e6d5760405162461bcd60e51b81526004016105f89061279c565b600d54600160a01b900460ff16610e965760405162461bcd60e51b81526004016105f8906127e2565b600d54600160a81b900460ff1615610efa5760405162461bcd60e51b815260206004820152602160248201527f546f6b656e7320686173206265656e206465706f736974656420616c726561646044820152607960f81b60648201526084016105f8565b600d805460ff60a81b1916600160a81b179055600e54600c5461060a916001600160a01b039091169033903090611f6b565b6060600a80548060200260200160405190810160405280929190818152602001828054801561065a5760200282019190600052602060002090815481526020019060010190808311610646575050505050905090565b600b546001600160a01b03163314610fac5760405162461bcd60e51b81526004016105f89061269b565b428210158015610fbb57508181115b610fc457600080fd5b601082905560118190556040514281527f95a21281108b566135ddaa849f46ac5edee2287699ce9443ac1490705cd63d7790602001610e37565b600a818154811061100e57600080fd5b600091825260209091200154905081565b6000600854116110415760405162461bcd60e51b81526004016105f8906126d2565b3360009081526005602052604090205460ff16156110a15760405162461bcd60e51b815260206004820152601a60248201527f4164647265737320616c7265616479207769647468647261776e00000000000060448201526064016105f8565b33600090815260208190526040812060018101546110d15760405162461bcd60e51b81526004016105f890612709565b33600090815260046020526040812054905b8181101561115e57600061112760075461095d600a858154811061110957611109612740565b90600052602060002001548760010154611ed890919063ffffffff16565b60018501549091506111399082611fa9565b60018501556111488582611ef7565b94505080806111569061276c565b9150506110e3565b50600083116111af5760405162461bcd60e51b815260206004820152601d60248201527f5468657265206973206e6f7468696e6720746f2077696474686472617700000060448201526064016105f8565b336000908152600560205260409020805460ff19166001179055600f546111d69084611ef7565b600f55600c546111f0906001600160a01b03163385611f03565b60405183815233907f6352c5382c4a4578e712449ca65e83cdb392d045dfcf1cad9615189db2da244b9060200160405180910390a2505050565b600b546001600160a01b031633146112545760405162461bcd60e51b81526004016105f89061269b565b6000600654116112a65760405162461bcd60e51b815260206004820152601b60248201527f56657374696e6720656e642064617465206973206e6f7420736574000000000060448201526064016105f8565b6006544210156113035760405162461bcd60e51b815260206004820152602260248201527f56657374696e6720706572696f64206973206e6f742066696e69736865642079604482015261195d60f21b60648201526084016105f8565b60155460ff16156113565760405162461bcd60e51b815260206004820152601a60248201527f4c6566746f76657220616c72656164792077697468647261776e00000000000060448201526064016105f8565b600f54600e546000916113699190611fa9565b90506000811161138b5760405162461bcd60e51b81526004016105f890612709565b6015805460ff19166001179055600c546106d6906001600160a01b03163383611f03565b600b546001600160a01b031633146113d95760405162461bcd60e51b81526004016105f89061269b565b6001600160a01b03821660009081526020819052604090206002015460ff166114145760405162461bcd60e51b81526004016105f890612819565b6001600160a01b03909116600090815260208190526040902060010155565b601054421080159061144757506011544211155b8015611456575060125460ff16155b6114725760405162461bcd60e51b81526004016105f89061264e565b600b546001600160a01b0316331461149c5760405162461bcd60e51b81526004016105f89061269b565b600081511161150b5760405162461bcd60e51b815260206004820152603560248201527f54686520616464726573736573206172726179206d75737420636f6e7461696e604482015274081bdb9948195b195b595b9d08185d081b19585cdd605a1b60648201526084016105f8565b60005b815181101561158e5760008083838151811061152c5761152c612740565b6020908102919091018101516001600160a01b031682528101919091526040016000206002015460ff1661157c5761157c82828151811061156f5761156f612740565b6020026020010151611da8565b806115868161276c565b91505061150e565b506040514281527f3ed3ff891af065b7aecb80d2d3e0543afd07e2b38e36d9e98700feebf26482b3906020015b60405180910390a150565b60135442108015906115da57506014544211155b61163c5760405162461bcd60e51b815260206004820152602d60248201527f446973747269627574696f6e20726f756e64206973206f766572206f72206e6f60448201526c1d081cdd185c9d1959081e595d609a1b60648201526084016105f8565b3360009081526003602052604090206001015460ff161561169f5760405162461bcd60e51b815260206004820152601c60248201527f4164647265737320616c7265616479207061727469636970617465640000000060448201526064016105f8565b60408051808201825242808252600160208084018281523360008181526003845287902095518655905194909201805460ff19169415159490941790935592519081527fb198f199c43cc078ad46e5a5fabe03eba401f7417816c86af0bd2e7345c99506910160405180910390a2565b600b546001600160a01b031633146117395760405162461bcd60e51b81526004016105f89061269b565b805182146117af5760405162461bcd60e51b815260206004820152603a60248201527f4576656e747320636f756c64206d75737420626520657175616c20776974682060448201527f506572636570742050657220506f7274696f6e206c656e67746800000000000060648201526084016105f8565b600d54600160a01b900460ff166117d85760405162461bcd60e51b81526004016105f8906127e2565b60088290556000805b8381101561185f57600a8382815181106117fd576117fd612740565b60209081029190910181015182546001810184556000938452919092200155825161184b9084908390811061183457611834612740565b602002602001015183611ef790919063ffffffff16565b9150806118578161276c565b9150506117e1565b5080600754146118b15760405162461bcd60e51b815260206004820152601860248201527f507265636973696f6e2070657263656e7473206973737565000000000000000060448201526064016105f8565b6040514281527f1af3c14ce558c4a33618e1f36c8ea383fc552a672298056311fa66518719f6e09060200160405180910390a1505050565b600b546001600160a01b031633146119135760405162461bcd60e51b81526004016105f89061269b565b60008151116119835760405162461bcd60e51b815260206004820152603660248201527f54686520616c6c6f636174696f6e206172726179206d75737420636f6e7461696044820152751b881bdb9948195b195b595b9d08185d081b19585cdd60521b60648201526084016105f8565b60005b8151811015611a225760008282815181106119a3576119a3612740565b60209081029190910181015180516001600160a01b031660009081529182905260409091206002015490915060ff166119ee5760405162461bcd60e51b81526004016105f890612819565b60208082015191516001600160a01b0316600090815290819052604090206001015580611a1a8161276c565b915050611986565b506040514281527fb470a061a328bedea790142ca3e477573b6337191c39704740003dc082e76ecf906020016115bb565b6009818154811061100e57600080fd5b600b546001600160a01b03163314611a8d5760405162461bcd60e51b81526004016105f89061269b565b600a54158015611a9d5750600954155b611ae95760405162461bcd60e51b815260206004820152601e60248201527f56657374696e6720706172616d657465727320616c726561647920736574000060448201526064016105f8565b8051825114611b6e5760405162461bcd60e51b8152602060048201526044602482018190527f556e6c6f636b696e672054696d6573206c656e677468206d7573742062652065908201527f7175616c20776974682050657263656e742050657220506f7274696f6e206c656064820152630dccee8d60e31b608482015260a4016105f8565b600d54600160a01b900460ff16611b975760405162461bcd60e51b81526004016105f8906127e2565b60136001015482600081518110611bb057611bb0612740565b602002602001015111611c1d5760405162461bcd60e51b815260206004820152602f60248201527f556e6c6f636b2074696d65206d7573742062652061667465722074686520646960448201526e73747269627574696f6e20656e647360881b60648201526084016105f8565b6000805b835181101561185f578015611ccd5783611c3c600183612785565b81518110611c4c57611c4c612740565b6020026020010151848281518110611c6657611c66612740565b602002602001015111611ccd5760405162461bcd60e51b815260206004820152602960248201527f556e6c6f636b2074696d65206d7573742062652067726561746572207468616e6044820152682070726576696f757360b81b60648201526084016105f8565b6009848281518110611ce157611ce1612740565b602090810291909101810151825460018101845560009384529190922001558251600a90849083908110611d1757611d17612740565b602090810291909101810151825460018101845560009384529190922001558251611d4e9084908390811061183457611834612740565b915080611d5a8161276c565b915050611c21565b600d546001600160a01b03163314611d8c5760405162461bcd60e51b81526004016105f89061279c565b6001600160a01b03909116600090815260046020526040902055565b6001600160a01b03811660009081526020819052604090206002015460ff1615611e145760405162461bcd60e51b815260206004820152601a60248201527f4164647265737320616c7265616479207265676973746572656400000000000060448201526064016105f8565b604080516060810182524281526000602080830182815260018486018181526001600160a01b03881680865285855287862096518755925186830155516002958601805460ff19169115159190911790558454845290915292812080546001600160a01b031916909317909255805491611e8d8361276c565b9190505550806001600160a01b03167f6f3bf3fa84e4763a43b3d23f9d79be242d6d5c834941ff4c1111b67469e1150c42604051611ecd91815260200190565b60405180910390a250565b6000611ee4828461285b565b9392505050565b6000611ee4828461287a565b6000611ee4828461289c565b6040516001600160a01b038316602482015260448101829052611f6690849063a9059cbb60e01b906064015b60408051601f198184030181529190526020810180516001600160e01b03166001600160e01b031990931692909217909152611fb5565b505050565b6040516001600160a01b0380851660248301528316604482015260648101829052611fa39085906323b872dd60e01b90608401611f2f565b50505050565b6000611ee48284612785565b600061200a826040518060400160405280602081526020017f5361666545524332303a206c6f772d6c6576656c2063616c6c206661696c6564815250856001600160a01b03166120879092919063ffffffff16565b805190915015611f66578080602001905181019061202891906128b4565b611f665760405162461bcd60e51b815260206004820152602a60248201527f5361666545524332303a204552433230206f7065726174696f6e20646964206e6044820152691bdd081cdd58d8d9595960b21b60648201526084016105f8565b6060612096848460008561209e565b949350505050565b6060824710156120ff5760405162461bcd60e51b815260206004820152602660248201527f416464726573733a20696e73756666696369656e742062616c616e636520666f6044820152651c8818d85b1b60d21b60648201526084016105f8565b6001600160a01b0385163b6121565760405162461bcd60e51b815260206004820152601d60248201527f416464726573733a2063616c6c20746f206e6f6e2d636f6e747261637400000060448201526064016105f8565b600080866001600160a01b031685876040516121729190612902565b60006040518083038185875af1925050503d80600081146121af576040519150601f19603f3d011682016040523d82523d6000602084013e6121b4565b606091505b50915091506121c48282866121cf565b979650505050505050565b606083156121de575081611ee4565b8251156121ee5782518084602001fd5b8160405162461bcd60e51b81526004016105f8919061291e565b6020808252825182820181905260009190848201906040850190845b8181101561224057835183529284019291840191600101612224565b50909695505050505050565b80356001600160a01b038116811461226357600080fd5b919050565b60006020828403121561227a57600080fd5b611ee48261224c565b60006020828403121561229557600080fd5b5035919050565b6020808252825182820181905260009190848201906040850190845b818110156122405783516001600160a01b0316835292840192918401916001016122b8565b600080600080608085870312156122f357600080fd5b843593506020850135925061230a6040860161224c565b91506123186060860161224c565b905092959194509250565b6000806040838503121561233657600080fd5b50508035926020909101359150565b6000806040838503121561235857600080fd5b6123618361224c565b946020939093013593505050565b634e487b7160e01b600052604160045260246000fd5b6040805190810167ffffffffffffffff811182821017156123a8576123a861236f565b60405290565b604051601f8201601f1916810167ffffffffffffffff811182821017156123d7576123d761236f565b604052919050565b600067ffffffffffffffff8211156123f9576123f961236f565b5060051b60200190565b6000602080838503121561241657600080fd5b823567ffffffffffffffff81111561242d57600080fd5b8301601f8101851361243e57600080fd5b803561245161244c826123df565b6123ae565b81815260059190911b8201830190838101908783111561247057600080fd5b928401925b828410156121c4576124868461224c565b82529284019290840190612475565b600082601f8301126124a657600080fd5b813560206124b661244c836123df565b82815260059290921b840181019181810190868411156124d557600080fd5b8286015b848110156124f057803583529183019183016124d9565b509695505050505050565b6000806040838503121561250e57600080fd5b82359150602083013567ffffffffffffffff81111561252c57600080fd5b61253885828601612495565b9150509250929050565b6000602080838503121561255557600080fd5b823567ffffffffffffffff81111561256c57600080fd5b8301601f8101851361257d57600080fd5b803561258b61244c826123df565b81815260069190911b820183019083810190878311156125aa57600080fd5b928401925b828410156121c457604084890312156125c85760008081fd5b6125d0612385565b6125d98561224c565b815284860135868201528252604090930192908401906125af565b6000806040838503121561260757600080fd5b823567ffffffffffffffff8082111561261f57600080fd5b61262b86838701612495565b9350602085013591508082111561264157600080fd5b5061253885828601612495565b6020808252602d908201527f526567697374726174696f6e20726f756e64206973206f766572206f72206e6f60408201526c1d081cdd185c9d1959081e595d609a1b606082015260800190565b60208082526019908201527f416c6c6f77732061646d696e2061646472657373206f6e6c7900000000000000604082015260600190565b6020808252601e908201527f56657374696e6720706172616d657465727320617265206e6f74207365740000604082015260600190565b6020808252601c908201527f5468657265206973206e6f7468696e6720746f20776974686472617700000000604082015260600190565b634e487b7160e01b600052603260045260246000fd5b634e487b7160e01b600052601160045260246000fd5b60006001820161277e5761277e612756565b5060010190565b60008282101561279757612797612756565b500390565b60208082526026908201527f416c6c6f777320646973747269627574696f6e206f776e65722061646472657360408201526573206f6e6c7960d01b606082015260800190565b6020808252601b908201527f446973747269627574696f6e206973206e6f7420637265617465640000000000604082015260600190565b60208082526022908201527f50726f76696465642061646472657373206973206e6f74207265676973746572604082015261195960f21b606082015260800190565b600081600019048311821515161561287557612875612756565b500290565b60008261289757634e487b7160e01b600052601260045260246000fd5b500490565b600082198211156128af576128af612756565b500190565b6000602082840312156128c657600080fd5b81518015158114611ee457600080fd5b60005b838110156128f15781810151838201526020016128d9565b83811115611fa35750506000910152565b600082516129148184602087016128d6565b9190910192915050565b602081526000825180602084015261293d8160408501602087016128d6565b601f01601f1916919091016040019291505056fea26469706673582212209a71e86254cdf52a4f805583638255eaee7a8ec6e968cf7f111c57cbc45462ab64736f6c634300080e0033a2646970667358221220847fa79ba10d3ade9e47aa6fbcc7953fd815089931e188fdb579ad7aff3e8dde64736f6c634300080e0033",
  "bytecodeSha1": "70ce3fa4616ec4794bc6df98571581838b4e7b06",
  "compiler": {
    "evm_version": "istanbul",
    "optimizer": {
      "enabled": true,
      "runs": 200
    },
    "version": "0.8.14+commit.80d49f37"
  },
  "contractName": "DistributorFactory",
  "language": "Solidity",
  "natspec": {
    "kind": "dev",
    "methods": {},
    "version": 1
  },
  "opcodes": "PUSH1 0x80 PUSH1 0x40 MSTORE CALLVALUE DUP1 ISZERO PUSH2 0x10 JUMPI PUSH1 0x0 DUP1 REVERT JUMPDEST POP PUSH1 0x4 CALLDATASIZE LT PUSH2 0x4C JUMPI PUSH1 0x0 CALLDATALOAD PUSH1 0xE0 SHR DUP1 PUSH4 0x53ED5143 EQ PUSH2 0x51 JUMPI DUP1 PUSH4 0x8F197E74 EQ PUSH2 0x6F JUMPI DUP1 PUSH4 0xC4FECDB6 EQ PUSH2 0xB0 JUMPI DUP1 PUSH4 0xEFC81A8C EQ PUSH2 0xC7 JUMPI JUMPDEST PUSH1 0x0 DUP1 REVERT JUMPDEST PUSH2 0x59 PUSH2 0xCF JUMP JUMPDEST PUSH1 0x40 MLOAD PUSH2 0x66 SWAP2 SWAP1 PUSH2 0x214 JUMP JUMPDEST PUSH1 0x40 MLOAD DUP1 SWAP2 SUB SWAP1 RETURN JUMPDEST PUSH2 0x98 PUSH2 0x7D CALLDATASIZE PUSH1 0x4 PUSH2 0x261 JUMP JUMPDEST PUSH1 0x0 PUSH1 0x20 DUP2 SWAP1 MSTORE SWAP1 DUP2 MSTORE PUSH1 0x40 SWAP1 KECCAK256 SLOAD PUSH1 0x1 PUSH1 0x1 PUSH1 0xA0 SHL SUB AND DUP2 JUMP JUMPDEST PUSH1 0x40 MLOAD PUSH1 0x1 PUSH1 0x1 PUSH1 0xA0 SHL SUB SWAP1 SWAP2 AND DUP2 MSTORE PUSH1 0x20 ADD PUSH2 0x66 JUMP JUMPDEST PUSH2 0xB9 PUSH1 0x1 SLOAD DUP2 JUMP JUMPDEST PUSH1 0x40 MLOAD SWAP1 DUP2 MSTORE PUSH1 0x20 ADD PUSH2 0x66 JUMP JUMPDEST PUSH2 0x98 PUSH2 0x186 JUMP JUMPDEST PUSH1 0x60 PUSH1 0x0 PUSH1 0x1 SLOAD PUSH8 0xFFFFFFFFFFFFFFFF DUP2 GT ISZERO PUSH2 0xEE JUMPI PUSH2 0xEE PUSH2 0x27A JUMP JUMPDEST PUSH1 0x40 MLOAD SWAP1 DUP1 DUP3 MSTORE DUP1 PUSH1 0x20 MUL PUSH1 0x20 ADD DUP3 ADD PUSH1 0x40 MSTORE DUP1 ISZERO PUSH2 0x117 JUMPI DUP2 PUSH1 0x20 ADD PUSH1 0x20 DUP3 MUL DUP1 CALLDATASIZE DUP4 CALLDATACOPY ADD SWAP1 POP JUMPDEST POP SWAP1 POP PUSH1 0x0 JUMPDEST PUSH1 0x1 SLOAD DUP2 LT ISZERO PUSH2 0x180 JUMPI PUSH1 0x0 DUP2 DUP2 MSTORE PUSH1 0x20 DUP2 SWAP1 MSTORE PUSH1 0x40 SWAP1 KECCAK256 SLOAD DUP3 MLOAD PUSH1 0x1 PUSH1 0x1 PUSH1 0xA0 SHL SUB SWAP1 SWAP2 AND SWAP1 DUP4 SWAP1 DUP4 SWAP1 DUP2 LT PUSH2 0x156 JUMPI PUSH2 0x156 PUSH2 0x290 JUMP JUMPDEST PUSH1 0x1 PUSH1 0x1 PUSH1 0xA0 SHL SUB SWAP1 SWAP3 AND PUSH1 0x20 SWAP3 DUP4 MUL SWAP2 SWAP1 SWAP2 ADD SWAP1 SWAP2 ADD MSTORE DUP1 PUSH2 0x178 DUP2 PUSH2 0x2A6 JUMP JUMPDEST SWAP2 POP POP PUSH2 0x11D JUMP JUMPDEST POP SWAP2 SWAP1 POP JUMP JUMPDEST PUSH1 0x0 DUP1 CALLER PUSH1 0x40 MLOAD PUSH2 0x196 SWAP1 PUSH2 0x207 JUMP JUMPDEST PUSH1 0x1 PUSH1 0x1 PUSH1 0xA0 SHL SUB SWAP1 SWAP2 AND DUP2 MSTORE PUSH1 0x20 ADD PUSH1 0x40 MLOAD DUP1 SWAP2 SUB SWAP1 PUSH1 0x0 CREATE DUP1 ISZERO DUP1 ISZERO PUSH2 0x1C2 JUMPI RETURNDATASIZE PUSH1 0x0 DUP1 RETURNDATACOPY RETURNDATASIZE PUSH1 0x0 REVERT JUMPDEST POP PUSH1 0x1 DUP1 SLOAD PUSH1 0x0 SWAP1 DUP2 MSTORE PUSH1 0x20 DUP2 SWAP1 MSTORE PUSH1 0x40 DUP2 KECCAK256 DUP1 SLOAD PUSH1 0x1 PUSH1 0x1 PUSH1 0xA0 SHL SUB NOT AND PUSH1 0x1 PUSH1 0x1 PUSH1 0xA0 SHL SUB DUP6 AND OR SWAP1 SSTORE DUP2 SLOAD SWAP3 SWAP4 POP PUSH2 0x1FC DUP4 PUSH2 0x2A6 JUMP JUMPDEST SWAP1 SWAP2 SSTORE POP SWAP1 SWAP3 SWAP2 POP POP JUMP JUMPDEST PUSH2 0x2A23 DUP1 PUSH2 0x2CE DUP4 CODECOPY ADD SWAP1 JUMP JUMPDEST PUSH1 0x20 DUP1 DUP3 MSTORE DUP3 MLOAD DUP3 DUP3 ADD DUP2 SWAP1 MSTORE PUSH1 0x0 SWAP2 SWAP1 DUP5 DUP3 ADD SWAP1 PUSH1 0x40 DUP6 ADD SWAP1 DUP5 JUMPDEST DUP2 DUP2 LT ISZERO PUSH2 0x255 JUMPI DUP4 MLOAD PUSH1 0x1 PUSH1 0x1 PUSH1 0xA0 SHL SUB AND DUP4 MSTORE SWAP3 DUP5 ADD SWAP3 SWAP2 DUP5 ADD SWAP2 PUSH1 0x1 ADD PUSH2 0x230 JUMP JUMPDEST POP SWAP1 SWAP7 SWAP6 POP POP POP POP POP POP JUMP JUMPDEST PUSH1 0x0 PUSH1 0x20 DUP3 DUP5 SUB SLT ISZERO PUSH2 0x273 JUMPI PUSH1 0x0 DUP1 REVERT JUMPDEST POP CALLDATALOAD SWAP2 SWAP1 POP JUMP JUMPDEST PUSH4 0x4E487B71 PUSH1 0xE0 SHL PUSH1 0x0 MSTORE PUSH1 0x41 PUSH1 0x4 MSTORE PUSH1 0x24 PUSH1 0x0 REVERT JUMPDEST PUSH4 0x4E487B71 PUSH1 0xE0 SHL PUSH1 0x0 MSTORE PUSH1 0x32 PUSH1 0x4 MSTORE PUSH1 0x24 PUSH1 0x0 REVERT JUMPDEST PUSH1 0x0 PUSH1 0x1 DUP3 ADD PUSH2 0x2C6 JUMPI PUSH4 0x4E487B71 PUSH1 0xE0 SHL PUSH1 0x0 MSTORE PUSH1 0x11 PUSH1 0x4 MSTORE PUSH1 0x24 PUSH1 0x0 REVERT JUMPDEST POP PUSH1 0x1 ADD SWAP1 JUMP INVALID PUSH1 0x80 PUSH1 0x40 MSTORE CALLVALUE DUP1 ISZERO PUSH3 0x11 JUMPI PUSH1 0x0 DUP1 REVERT JUMPDEST POP PUSH1 0x40 MLOAD PUSH3 0x2A23 CODESIZE SUB DUP1 PUSH3 0x2A23 DUP4 CODECOPY DUP2 ADD PUSH1 0x40 DUP2 SWAP1 MSTORE PUSH3 0x34 SWAP2 PUSH3 0x5A JUMP JUMPDEST PUSH1 0xB DUP1 SLOAD PUSH1 0x1 PUSH1 0x1 PUSH1 0xA0 SHL SUB NOT AND PUSH1 0x1 PUSH1 0x1 PUSH1 0xA0 SHL SUB SWAP3 SWAP1 SWAP3 AND SWAP2 SWAP1 SWAP2 OR SWAP1 SSTORE PUSH3 0x8C JUMP JUMPDEST PUSH1 0x0 PUSH1 0x20 DUP3 DUP5 SUB SLT ISZERO PUSH3 0x6D JUMPI PUSH1 0x0 DUP1 REVERT JUMPDEST DUP2 MLOAD PUSH1 0x1 PUSH1 0x1 PUSH1 0xA0 SHL SUB DUP2 AND DUP2 EQ PUSH3 0x85 JUMPI PUSH1 0x0 DUP1 REVERT JUMPDEST SWAP4 SWAP3 POP POP POP JUMP JUMPDEST PUSH2 0x2987 DUP1 PUSH3 0x9C PUSH1 0x0 CODECOPY PUSH1 0x0 RETURN INVALID PUSH1 0x80 PUSH1 0x40 MSTORE CALLVALUE DUP1 ISZERO PUSH2 0x10 JUMPI PUSH1 0x0 DUP1 REVERT JUMPDEST POP PUSH1 0x4 CALLDATASIZE LT PUSH2 0x227 JUMPI PUSH1 0x0 CALLDATALOAD PUSH1 0xE0 SHR DUP1 PUSH4 0x7E87C053 GT PUSH2 0x130 JUMPI DUP1 PUSH4 0xBB0F0D51 GT PUSH2 0xB8 JUMPI DUP1 PUSH4 0xF1EF7FF2 GT PUSH2 0x7C JUMPI DUP1 PUSH4 0xF1EF7FF2 EQ PUSH2 0x52E JUMPI DUP1 PUSH4 0xF4B7A413 EQ PUSH2 0x541 JUMPI DUP1 PUSH4 0xF5682523 EQ PUSH2 0x554 JUMPI DUP1 PUSH4 0xF851A440 EQ PUSH2 0x567 JUMPI DUP1 PUSH4 0xFC954144 EQ PUSH2 0x57A JUMPI PUSH1 0x0 DUP1 REVERT JUMPDEST DUP1 PUSH4 0xBB0F0D51 EQ PUSH2 0x4DA JUMPI DUP1 PUSH4 0xC44C209A EQ PUSH2 0x4ED JUMPI DUP1 PUSH4 0xD11711A2 EQ PUSH2 0x500 JUMPI DUP1 PUSH4 0xD64F6CB6 EQ PUSH2 0x508 JUMPI DUP1 PUSH4 0xE5664D84 EQ PUSH2 0x51B JUMPI PUSH1 0x0 DUP1 REVERT JUMPDEST DUP1 PUSH4 0x98C32A7F GT PUSH2 0xFF JUMPI DUP1 PUSH4 0x98C32A7F EQ PUSH2 0x47B JUMPI DUP1 PUSH4 0x9BDEB335 EQ PUSH2 0x49E JUMPI DUP1 PUSH4 0xA525D237 EQ PUSH2 0x4A6 JUMPI DUP1 PUSH4 0xAA6CB71D EQ PUSH2 0x4AE JUMPI DUP1 PUSH4 0xB1CDE244 EQ PUSH2 0x4B7 JUMPI PUSH1 0x0 DUP1 REVERT JUMPDEST DUP1 PUSH4 0x7E87C053 EQ PUSH2 0x41B JUMPI DUP1 PUSH4 0x8444F153 EQ PUSH2 0x423 JUMPI DUP1 PUSH4 0x927F6AEE EQ PUSH2 0x436 JUMPI DUP1 PUSH4 0x942E6BCF EQ PUSH2 0x449 JUMPI PUSH1 0x0 DUP1 REVERT JUMPDEST DUP1 PUSH4 0x3CCFD60B GT PUSH2 0x1B3 JUMPI DUP1 PUSH4 0x7073C072 GT PUSH2 0x182 JUMPI DUP1 PUSH4 0x7073C072 EQ PUSH2 0x3C5 JUMPI DUP1 PUSH4 0x72C0FE1D EQ PUSH2 0x3DA JUMPI DUP1 PUSH4 0x760B7C41 EQ PUSH2 0x3ED JUMPI DUP1 PUSH4 0x793A2954 EQ PUSH2 0x400 JUMPI DUP1 PUSH4 0x7C4B414D EQ PUSH2 0x413 JUMPI PUSH1 0x0 DUP1 REVERT JUMPDEST DUP1 PUSH4 0x3CCFD60B EQ PUSH2 0x31B JUMPI DUP1 PUSH4 0x3DB5A524 EQ PUSH2 0x323 JUMPI DUP1 PUSH4 0x5EE58EFC EQ PUSH2 0x32C JUMPI DUP1 PUSH4 0x62B21FA1 EQ PUSH2 0x3A5 JUMPI PUSH1 0x0 DUP1 REVERT JUMPDEST DUP1 PUSH4 0x1EEADFA8 GT PUSH2 0x1FA JUMPI DUP1 PUSH4 0x1EEADFA8 EQ PUSH2 0x29F JUMPI DUP1 PUSH4 0x2199D5CD EQ PUSH2 0x2B6 JUMPI DUP1 PUSH4 0x23E8E9BF EQ PUSH2 0x2C9 JUMPI DUP1 PUSH4 0x3C3EC8B7 EQ PUSH2 0x2D1 JUMPI DUP1 PUSH4 0x3C961FC2 EQ PUSH2 0x312 JUMPI PUSH1 0x0 DUP1 REVERT JUMPDEST DUP1 PUSH4 0x1754D62D EQ PUSH2 0x22C JUMPI DUP1 PUSH4 0x1AA3A008 EQ PUSH2 0x263 JUMPI DUP1 PUSH4 0x1BA7DD1E EQ PUSH2 0x26D JUMPI DUP1 PUSH4 0x1C5F47EE EQ PUSH2 0x282 JUMPI JUMPDEST PUSH1 0x0 DUP1 REVERT JUMPDEST PUSH1 0x10 SLOAD PUSH1 0x11 SLOAD PUSH1 0x12 SLOAD PUSH2 0x241 SWAP3 SWAP2 SWAP1 PUSH1 0xFF AND DUP4 JUMP JUMPDEST PUSH1 0x40 DUP1 MLOAD SWAP4 DUP5 MSTORE PUSH1 0x20 DUP5 ADD SWAP3 SWAP1 SWAP3 MSTORE ISZERO ISZERO SWAP1 DUP3 ADD MSTORE PUSH1 0x60 ADD JUMPDEST PUSH1 0x40 MLOAD DUP1 SWAP2 SUB SWAP1 RETURN JUMPDEST PUSH2 0x26B PUSH2 0x5B9 JUMP JUMPDEST STOP JUMPDEST PUSH2 0x275 PUSH2 0x60C JUMP JUMPDEST PUSH1 0x40 MLOAD PUSH2 0x25A SWAP2 SWAP1 PUSH2 0x2208 JUMP JUMPDEST PUSH1 0x15 SLOAD PUSH2 0x28F SWAP1 PUSH1 0xFF AND DUP2 JUMP JUMPDEST PUSH1 0x40 MLOAD SWAP1 ISZERO ISZERO DUP2 MSTORE PUSH1 0x20 ADD PUSH2 0x25A JUMP JUMPDEST PUSH2 0x2A8 PUSH1 0x7 SLOAD DUP2 JUMP JUMPDEST PUSH1 0x40 MLOAD SWAP1 DUP2 MSTORE PUSH1 0x20 ADD PUSH2 0x25A JUMP JUMPDEST PUSH2 0x26B PUSH2 0x2C4 CALLDATASIZE PUSH1 0x4 PUSH2 0x2268 JUMP JUMPDEST PUSH2 0x664 JUMP JUMPDEST PUSH2 0x26B PUSH2 0x6D9 JUMP JUMPDEST PUSH2 0x2FA PUSH2 0x2DF CALLDATASIZE PUSH1 0x4 PUSH2 0x2283 JUMP JUMPDEST PUSH1 0x1 PUSH1 0x20 MSTORE PUSH1 0x0 SWAP1 DUP2 MSTORE PUSH1 0x40 SWAP1 KECCAK256 SLOAD PUSH1 0x1 PUSH1 0x1 PUSH1 0xA0 SHL SUB AND DUP2 JUMP JUMPDEST PUSH1 0x40 MLOAD PUSH1 0x1 PUSH1 0x1 PUSH1 0xA0 SHL SUB SWAP1 SWAP2 AND DUP2 MSTORE PUSH1 0x20 ADD PUSH2 0x25A JUMP JUMPDEST PUSH2 0x2A8 PUSH1 0x8 SLOAD DUP2 JUMP JUMPDEST PUSH2 0x26B PUSH2 0x74C JUMP JUMPDEST PUSH2 0x2A8 PUSH1 0x6 SLOAD DUP2 JUMP JUMPDEST PUSH1 0xC SLOAD PUSH1 0xD SLOAD PUSH1 0xE SLOAD PUSH1 0xF SLOAD PUSH2 0x365 SWAP4 PUSH1 0x1 PUSH1 0x1 PUSH1 0xA0 SHL SUB SWAP1 DUP2 AND SWAP4 SWAP1 DUP2 AND SWAP3 PUSH1 0xFF PUSH1 0x1 PUSH1 0xA0 SHL DUP4 DIV DUP2 AND SWAP4 PUSH1 0x1 PUSH1 0xA8 SHL SWAP1 SWAP4 DIV AND SWAP2 DUP7 JUMP JUMPDEST PUSH1 0x40 DUP1 MLOAD PUSH1 0x1 PUSH1 0x1 PUSH1 0xA0 SHL SUB SWAP8 DUP9 AND DUP2 MSTORE SWAP7 SWAP1 SWAP6 AND PUSH1 0x20 DUP8 ADD MSTORE SWAP3 ISZERO ISZERO SWAP4 DUP6 ADD SWAP4 SWAP1 SWAP4 MSTORE ISZERO ISZERO PUSH1 0x60 DUP5 ADD MSTORE PUSH1 0x80 DUP4 ADD SWAP2 SWAP1 SWAP2 MSTORE PUSH1 0xA0 DUP3 ADD MSTORE PUSH1 0xC0 ADD PUSH2 0x25A JUMP JUMPDEST PUSH2 0x2A8 PUSH2 0x3B3 CALLDATASIZE PUSH1 0x4 PUSH2 0x2268 JUMP JUMPDEST PUSH1 0x4 PUSH1 0x20 MSTORE PUSH1 0x0 SWAP1 DUP2 MSTORE PUSH1 0x40 SWAP1 KECCAK256 SLOAD DUP2 JUMP JUMPDEST PUSH2 0x3CD PUSH2 0xA50 JUMP JUMPDEST PUSH1 0x40 MLOAD PUSH2 0x25A SWAP2 SWAP1 PUSH2 0x229C JUMP JUMPDEST PUSH2 0x26B PUSH2 0x3E8 CALLDATASIZE PUSH1 0x4 PUSH2 0x2283 JUMP JUMPDEST PUSH2 0xB0A JUMP JUMPDEST PUSH2 0x26B PUSH2 0x3FB CALLDATASIZE PUSH1 0x4 PUSH2 0x22DD JUMP JUMPDEST PUSH2 0xC17 JUMP JUMPDEST PUSH2 0x26B PUSH2 0x40E CALLDATASIZE PUSH1 0x4 PUSH2 0x2323 JUMP JUMPDEST PUSH2 0xCE5 JUMP JUMPDEST PUSH2 0x26B PUSH2 0xE43 JUMP JUMPDEST PUSH2 0x275 PUSH2 0xF2C JUMP JUMPDEST PUSH2 0x26B PUSH2 0x431 CALLDATASIZE PUSH1 0x4 PUSH2 0x2323 JUMP JUMPDEST PUSH2 0xF82 JUMP JUMPDEST PUSH2 0x2A8 PUSH2 0x444 CALLDATASIZE PUSH1 0x4 PUSH2 0x2283 JUMP JUMPDEST PUSH2 0xFFE JUMP JUMPDEST PUSH2 0x241 PUSH2 0x457 CALLDATASIZE PUSH1 0x4 PUSH2 0x2268 JUMP JUMPDEST PUSH1 0x0 PUSH1 0x20 DUP2 SWAP1 MSTORE SWAP1 DUP2 MSTORE PUSH1 0x40 SWAP1 KECCAK256 DUP1 SLOAD PUSH1 0x1 DUP3 ADD SLOAD PUSH1 0x2 SWAP1 SWAP3 ADD SLOAD SWAP1 SWAP2 SWAP1 PUSH1 0xFF AND DUP4 JUMP JUMPDEST PUSH2 0x28F PUSH2 0x489 CALLDATASIZE PUSH1 0x4 PUSH2 0x2268 JUMP JUMPDEST PUSH1 0x5 PUSH1 0x20 MSTORE PUSH1 0x0 SWAP1 DUP2 MSTORE PUSH1 0x40 SWAP1 KECCAK256 SLOAD PUSH1 0xFF AND DUP2 JUMP JUMPDEST PUSH2 0x26B PUSH2 0x101F JUMP JUMPDEST PUSH2 0x26B PUSH2 0x122A JUMP JUMPDEST PUSH2 0x2A8 PUSH1 0x2 SLOAD DUP2 JUMP JUMPDEST PUSH1 0x13 SLOAD PUSH1 0x14 SLOAD PUSH2 0x4C5 SWAP2 SWAP1 DUP3 JUMP JUMPDEST PUSH1 0x40 DUP1 MLOAD SWAP3 DUP4 MSTORE PUSH1 0x20 DUP4 ADD SWAP2 SWAP1 SWAP2 MSTORE ADD PUSH2 0x25A JUMP JUMPDEST PUSH2 0x26B PUSH2 0x4E8 CALLDATASIZE PUSH1 0x4 PUSH2 0x2345 JUMP JUMPDEST PUSH2 0x13AF JUMP JUMPDEST PUSH2 0x26B PUSH2 0x4FB CALLDATASIZE PUSH1 0x4 PUSH2 0x2403 JUMP JUMPDEST PUSH2 0x1433 JUMP JUMPDEST PUSH2 0x26B PUSH2 0x15C6 JUMP JUMPDEST PUSH2 0x26B PUSH2 0x516 CALLDATASIZE PUSH1 0x4 PUSH2 0x24FB JUMP JUMPDEST PUSH2 0x170F JUMP JUMPDEST PUSH2 0x26B PUSH2 0x529 CALLDATASIZE PUSH1 0x4 PUSH2 0x2542 JUMP JUMPDEST PUSH2 0x18E9 JUMP JUMPDEST PUSH2 0x2A8 PUSH2 0x53C CALLDATASIZE PUSH1 0x4 PUSH2 0x2283 JUMP JUMPDEST PUSH2 0x1A53 JUMP JUMPDEST PUSH2 0x26B PUSH2 0x54F CALLDATASIZE PUSH1 0x4 PUSH2 0x25F4 JUMP JUMPDEST PUSH2 0x1A63 JUMP JUMPDEST PUSH2 0x26B PUSH2 0x562 CALLDATASIZE PUSH1 0x4 PUSH2 0x2345 JUMP JUMPDEST PUSH2 0x1D62 JUMP JUMPDEST PUSH1 0xB SLOAD PUSH2 0x2FA SWAP1 PUSH1 0x1 PUSH1 0x1 PUSH1 0xA0 SHL SUB AND DUP2 JUMP JUMPDEST PUSH2 0x5A4 PUSH2 0x588 CALLDATASIZE PUSH1 0x4 PUSH2 0x2268 JUMP JUMPDEST PUSH1 0x3 PUSH1 0x20 MSTORE PUSH1 0x0 SWAP1 DUP2 MSTORE PUSH1 0x40 SWAP1 KECCAK256 DUP1 SLOAD PUSH1 0x1 SWAP1 SWAP2 ADD SLOAD PUSH1 0xFF AND DUP3 JUMP JUMPDEST PUSH1 0x40 DUP1 MLOAD SWAP3 DUP4 MSTORE SWAP1 ISZERO ISZERO PUSH1 0x20 DUP4 ADD MSTORE ADD PUSH2 0x25A JUMP JUMPDEST PUSH1 0x10 SLOAD TIMESTAMP LT DUP1 ISZERO SWAP1 PUSH2 0x5CD JUMPI POP PUSH1 0x11 SLOAD TIMESTAMP GT ISZERO JUMPDEST DUP1 ISZERO PUSH2 0x5DC JUMPI POP PUSH1 0x12 SLOAD PUSH1 0xFF AND ISZERO JUMPDEST PUSH2 0x601 JUMPI PUSH1 0x40 MLOAD PUSH3 0x461BCD PUSH1 0xE5 SHL DUP2 MSTORE PUSH1 0x4 ADD PUSH2 0x5F8 SWAP1 PUSH2 0x264E JUMP JUMPDEST PUSH1 0x40 MLOAD DUP1 SWAP2 SUB SWAP1 REVERT JUMPDEST PUSH2 0x60A CALLER PUSH2 0x1DA8 JUMP JUMPDEST JUMP JUMPDEST PUSH1 0x60 PUSH1 0x9 DUP1 SLOAD DUP1 PUSH1 0x20 MUL PUSH1 0x20 ADD PUSH1 0x40 MLOAD SWAP1 DUP2 ADD PUSH1 0x40 MSTORE DUP1 SWAP3 SWAP2 SWAP1 DUP2 DUP2 MSTORE PUSH1 0x20 ADD DUP3 DUP1 SLOAD DUP1 ISZERO PUSH2 0x65A JUMPI PUSH1 0x20 MUL DUP3 ADD SWAP2 SWAP1 PUSH1 0x0 MSTORE PUSH1 0x20 PUSH1 0x0 KECCAK256 SWAP1 JUMPDEST DUP2 SLOAD DUP2 MSTORE PUSH1 0x20 ADD SWAP1 PUSH1 0x1 ADD SWAP1 DUP1 DUP4 GT PUSH2 0x646 JUMPI JUMPDEST POP POP POP POP POP SWAP1 POP SWAP1 JUMP JUMPDEST PUSH1 0x10 SLOAD TIMESTAMP LT DUP1 ISZERO SWAP1 PUSH2 0x678 JUMPI POP PUSH1 0x11 SLOAD TIMESTAMP GT ISZERO JUMPDEST DUP1 ISZERO PUSH2 0x687 JUMPI POP PUSH1 0x12 SLOAD PUSH1 0xFF AND ISZERO JUMPDEST PUSH2 0x6A3 JUMPI PUSH1 0x40 MLOAD PUSH3 0x461BCD PUSH1 0xE5 SHL DUP2 MSTORE PUSH1 0x4 ADD PUSH2 0x5F8 SWAP1 PUSH2 0x264E JUMP JUMPDEST PUSH1 0xB SLOAD PUSH1 0x1 PUSH1 0x1 PUSH1 0xA0 SHL SUB AND CALLER EQ PUSH2 0x6CD JUMPI PUSH1 0x40 MLOAD PUSH3 0x461BCD PUSH1 0xE5 SHL DUP2 MSTORE PUSH1 0x4 ADD PUSH2 0x5F8 SWAP1 PUSH2 0x269B JUMP JUMPDEST PUSH2 0x6D6 DUP2 PUSH2 0x1DA8 JUMP JUMPDEST POP JUMP JUMPDEST PUSH1 0xB SLOAD PUSH1 0x1 PUSH1 0x1 PUSH1 0xA0 SHL SUB AND CALLER EQ PUSH2 0x703 JUMPI PUSH1 0x40 MLOAD PUSH3 0x461BCD PUSH1 0xE5 SHL DUP2 MSTORE PUSH1 0x4 ADD PUSH2 0x5F8 SWAP1 PUSH2 0x269B JUMP JUMPDEST PUSH1 0x12 DUP1 SLOAD PUSH1 0xFF NOT AND PUSH1 0x1 OR SWAP1 SSTORE PUSH1 0x40 MLOAD PUSH32 0x7069B20063A2C984D75A2165D1633FD0BE67AFE3680341D2FC5D0CCE78C9CEEA SWAP1 PUSH2 0x742 SWAP1 TIMESTAMP DUP2 MSTORE PUSH1 0x20 ADD SWAP1 JUMP JUMPDEST PUSH1 0x40 MLOAD DUP1 SWAP2 SUB SWAP1 LOG1 JUMP JUMPDEST PUSH1 0xA SLOAD ISZERO DUP1 ISZERO SWAP1 PUSH2 0x75E JUMPI POP PUSH1 0x9 SLOAD ISZERO ISZERO JUMPDEST PUSH2 0x77A JUMPI PUSH1 0x40 MLOAD PUSH3 0x461BCD PUSH1 0xE5 SHL DUP2 MSTORE PUSH1 0x4 ADD PUSH2 0x5F8 SWAP1 PUSH2 0x26D2 JUMP JUMPDEST CALLER PUSH1 0x0 SWAP1 DUP2 MSTORE PUSH1 0x20 DUP2 SWAP1 MSTORE PUSH1 0x40 SWAP1 KECCAK256 PUSH1 0x2 ADD SLOAD PUSH1 0xFF AND PUSH2 0x7DC JUMPI PUSH1 0x40 MLOAD PUSH3 0x461BCD PUSH1 0xE5 SHL DUP2 MSTORE PUSH1 0x20 PUSH1 0x4 DUP3 ADD MSTORE PUSH1 0x19 PUSH1 0x24 DUP3 ADD MSTORE PUSH32 0x41646472657373206973206E6F74207265676973746572656400000000000000 PUSH1 0x44 DUP3 ADD MSTORE PUSH1 0x64 ADD PUSH2 0x5F8 JUMP JUMPDEST CALLER PUSH1 0x0 SWAP1 DUP2 MSTORE PUSH1 0x3 PUSH1 0x20 MSTORE PUSH1 0x40 SWAP1 KECCAK256 PUSH1 0x1 ADD SLOAD PUSH1 0xFF AND PUSH2 0x852 JUMPI PUSH1 0x40 MLOAD PUSH3 0x461BCD PUSH1 0xE5 SHL DUP2 MSTORE PUSH1 0x20 PUSH1 0x4 DUP3 ADD MSTORE PUSH1 0x2B PUSH1 0x24 DUP3 ADD MSTORE PUSH32 0x41646472657373206973206E6F742070617274696369706174656420696E2064 PUSH1 0x44 DUP3 ADD MSTORE PUSH11 0x34B9BA3934B13ABA34B7B7 PUSH1 0xA9 SHL PUSH1 0x64 DUP3 ADD MSTORE PUSH1 0x84 ADD PUSH2 0x5F8 JUMP JUMPDEST CALLER PUSH1 0x0 SWAP1 DUP2 MSTORE PUSH1 0x5 PUSH1 0x20 MSTORE PUSH1 0x40 SWAP1 KECCAK256 SLOAD PUSH1 0xFF AND ISZERO PUSH2 0x8C0 JUMPI PUSH1 0x40 MLOAD PUSH3 0x461BCD PUSH1 0xE5 SHL DUP2 MSTORE PUSH1 0x20 PUSH1 0x4 DUP3 ADD MSTORE PUSH1 0x25 PUSH1 0x24 DUP3 ADD MSTORE PUSH32 0x416464726573732068617320657865637574656420776974686472617720616C PUSH1 0x44 DUP3 ADD MSTORE PUSH5 0x7265616479 PUSH1 0xD8 SHL PUSH1 0x64 DUP3 ADD MSTORE PUSH1 0x84 ADD PUSH2 0x5F8 JUMP JUMPDEST CALLER PUSH1 0x0 SWAP1 DUP2 MSTORE PUSH1 0x20 DUP2 SWAP1 MSTORE PUSH1 0x40 DUP2 KECCAK256 PUSH1 0x1 DUP2 ADD SLOAD PUSH2 0x8F0 JUMPI PUSH1 0x40 MLOAD PUSH3 0x461BCD PUSH1 0xE5 SHL DUP2 MSTORE PUSH1 0x4 ADD PUSH2 0x5F8 SWAP1 PUSH2 0x2709 JUMP JUMPDEST PUSH1 0x0 JUMPDEST PUSH1 0x9 SLOAD DUP2 LT ISZERO PUSH2 0x985 JUMPI PUSH1 0x9 DUP2 DUP2 SLOAD DUP2 LT PUSH2 0x910 JUMPI PUSH2 0x910 PUSH2 0x2740 JUMP JUMPDEST SWAP1 PUSH1 0x0 MSTORE PUSH1 0x20 PUSH1 0x0 KECCAK256 ADD SLOAD TIMESTAMP LT PUSH2 0x973 JUMPI PUSH1 0x0 PUSH2 0x963 PUSH1 0x7 SLOAD PUSH2 0x95D PUSH1 0xA DUP6 DUP2 SLOAD DUP2 LT PUSH2 0x93F JUMPI PUSH2 0x93F PUSH2 0x2740 JUMP JUMPDEST SWAP1 PUSH1 0x0 MSTORE PUSH1 0x20 PUSH1 0x0 KECCAK256 ADD SLOAD DUP7 PUSH1 0x1 ADD SLOAD PUSH2 0x1ED8 SWAP1 SWAP2 SWAP1 PUSH4 0xFFFFFFFF AND JUMP JUMPDEST SWAP1 PUSH2 0x1EEB JUMP JUMPDEST SWAP1 POP PUSH2 0x96F DUP5 DUP3 PUSH2 0x1EF7 JUMP JUMPDEST SWAP4 POP POP JUMPDEST DUP1 PUSH2 0x97D DUP2 PUSH2 0x276C JUMP JUMPDEST SWAP2 POP POP PUSH2 0x8F3 JUMP JUMPDEST POP PUSH1 0x0 DUP3 GT PUSH2 0x9D6 JUMPI PUSH1 0x40 MLOAD PUSH3 0x461BCD PUSH1 0xE5 SHL DUP2 MSTORE PUSH1 0x20 PUSH1 0x4 DUP3 ADD MSTORE PUSH1 0x1D PUSH1 0x24 DUP3 ADD MSTORE PUSH32 0x5468657265206973206E6F7468696E6720746F20776964746864726177000000 PUSH1 0x44 DUP3 ADD MSTORE PUSH1 0x64 ADD PUSH2 0x5F8 JUMP JUMPDEST CALLER PUSH1 0x0 SWAP1 DUP2 MSTORE PUSH1 0x5 PUSH1 0x20 MSTORE PUSH1 0x40 SWAP1 KECCAK256 DUP1 SLOAD PUSH1 0xFF NOT AND PUSH1 0x1 OR SWAP1 SSTORE PUSH1 0xF SLOAD PUSH2 0x9FD SWAP1 DUP4 PUSH2 0x1EF7 JUMP JUMPDEST PUSH1 0xF SSTORE PUSH1 0xC SLOAD PUSH2 0xA17 SWAP1 PUSH1 0x1 PUSH1 0x1 PUSH1 0xA0 SHL SUB AND CALLER DUP5 PUSH2 0x1F03 JUMP JUMPDEST PUSH1 0x40 MLOAD DUP3 DUP2 MSTORE CALLER SWAP1 PUSH32 0x6352C5382C4A4578E712449CA65E83CDB392D045DFCF1CAD9615189DB2DA244B SWAP1 PUSH1 0x20 ADD PUSH1 0x40 MLOAD DUP1 SWAP2 SUB SWAP1 LOG2 POP POP JUMP JUMPDEST PUSH1 0x60 PUSH1 0x0 PUSH1 0x2 SLOAD PUSH8 0xFFFFFFFFFFFFFFFF DUP2 GT ISZERO PUSH2 0xA6F JUMPI PUSH2 0xA6F PUSH2 0x236F JUMP JUMPDEST PUSH1 0x40 MLOAD SWAP1 DUP1 DUP3 MSTORE DUP1 PUSH1 0x20 MUL PUSH1 0x20 ADD DUP3 ADD PUSH1 0x40 MSTORE DUP1 ISZERO PUSH2 0xA98 JUMPI DUP2 PUSH1 0x20 ADD PUSH1 0x20 DUP3 MUL DUP1 CALLDATASIZE DUP4 CALLDATACOPY ADD SWAP1 POP JUMPDEST POP SWAP1 POP PUSH1 0x0 JUMPDEST PUSH1 0x2 SLOAD DUP2 LT ISZERO PUSH2 0xB04 JUMPI PUSH1 0x0 DUP2 DUP2 MSTORE PUSH1 0x1 PUSH1 0x20 MSTORE PUSH1 0x40 SWAP1 KECCAK256 SLOAD DUP3 MLOAD PUSH1 0x1 PUSH1 0x1 PUSH1 0xA0 SHL SUB SWAP1 SWAP2 AND SWAP1 DUP2 SWAP1 DUP5 SWAP1 DUP5 SWAP1 DUP2 LT PUSH2 0xAD9 JUMPI PUSH2 0xAD9 PUSH2 0x2740 JUMP JUMPDEST PUSH1 0x1 PUSH1 0x1 PUSH1 0xA0 SHL SUB SWAP1 SWAP3 AND PUSH1 0x20 SWAP3 DUP4 MUL SWAP2 SWAP1 SWAP2 ADD SWAP1 SWAP2 ADD MSTORE POP DUP1 PUSH2 0xAFC DUP2 PUSH2 0x276C JUMP JUMPDEST SWAP2 POP POP PUSH2 0xA9E JUMP JUMPDEST POP SWAP2 SWAP1 POP JUMP JUMPDEST PUSH1 0xB SLOAD PUSH1 0x1 PUSH1 0x1 PUSH1 0xA0 SHL SUB AND CALLER EQ PUSH2 0xB34 JUMPI PUSH1 0x40 MLOAD PUSH3 0x461BCD PUSH1 0xE5 SHL DUP2 MSTORE PUSH1 0x4 ADD PUSH2 0x5F8 SWAP1 PUSH2 0x269B JUMP JUMPDEST PUSH1 0xA SLOAD ISZERO DUP1 ISZERO SWAP1 PUSH2 0xB46 JUMPI POP PUSH1 0x9 SLOAD ISZERO ISZERO JUMPDEST PUSH2 0xB62 JUMPI PUSH1 0x40 MLOAD PUSH3 0x461BCD PUSH1 0xE5 SHL DUP2 MSTORE PUSH1 0x4 ADD PUSH2 0x5F8 SWAP1 PUSH2 0x26D2 JUMP JUMPDEST PUSH1 0x9 DUP1 SLOAD PUSH2 0xB72 SWAP1 PUSH1 0x1 SWAP1 PUSH2 0x2785 JUMP JUMPDEST DUP2 SLOAD DUP2 LT PUSH2 0xB82 JUMPI PUSH2 0xB82 PUSH2 0x2740 JUMP JUMPDEST SWAP1 PUSH1 0x0 MSTORE PUSH1 0x20 PUSH1 0x0 KECCAK256 ADD SLOAD DUP2 GT PUSH2 0xC12 JUMPI PUSH1 0x40 MLOAD PUSH3 0x461BCD PUSH1 0xE5 SHL DUP2 MSTORE PUSH1 0x20 PUSH1 0x4 DUP3 ADD MSTORE PUSH1 0x48 PUSH1 0x24 DUP3 ADD MSTORE PUSH32 0x546865206C61737420646179206F662074686520646973747269627574696F6E PUSH1 0x44 DUP3 ADD MSTORE PUSH32 0x206D757374206265206C61746572207468616E20746865206C61737420756E6C PUSH1 0x64 DUP3 ADD MSTORE PUSH8 0x6F636B2074696D65 PUSH1 0xC0 SHL PUSH1 0x84 DUP3 ADD MSTORE PUSH1 0xA4 ADD PUSH2 0x5F8 JUMP JUMPDEST PUSH1 0x6 SSTORE JUMP JUMPDEST PUSH1 0xB SLOAD PUSH1 0x1 PUSH1 0x1 PUSH1 0xA0 SHL SUB AND CALLER EQ PUSH2 0xC41 JUMPI PUSH1 0x40 MLOAD PUSH3 0x461BCD PUSH1 0xE5 SHL DUP2 MSTORE PUSH1 0x4 ADD PUSH2 0x5F8 SWAP1 PUSH2 0x269B JUMP JUMPDEST PUSH1 0xD SLOAD PUSH1 0x1 PUSH1 0xA0 SHL SWAP1 DIV PUSH1 0xFF AND ISZERO PUSH2 0xC9B JUMPI PUSH1 0x40 MLOAD PUSH3 0x461BCD PUSH1 0xE5 SHL DUP2 MSTORE PUSH1 0x20 PUSH1 0x4 DUP3 ADD MSTORE PUSH1 0x1C PUSH1 0x24 DUP3 ADD MSTORE PUSH32 0x446973747269627574696F6E20616C7265616479206372656174656400000000 PUSH1 0x44 DUP3 ADD MSTORE PUSH1 0x64 ADD PUSH2 0x5F8 JUMP JUMPDEST PUSH1 0xC DUP1 SLOAD PUSH1 0x1 PUSH1 0x1 PUSH1 0xA0 SHL SUB SWAP3 DUP4 AND PUSH1 0x1 PUSH1 0x1 PUSH1 0xA0 SHL SUB NOT SWAP1 SWAP2 AND OR SWAP1 SSTORE PUSH1 0xD DUP1 SLOAD PUSH1 0xE SWAP6 SWAP1 SWAP6 SSTORE PUSH1 0x7 SWAP4 SWAP1 SWAP4 SSTORE PUSH1 0x1 PUSH1 0x1 PUSH1 0xA8 SHL SUB NOT SWAP1 SWAP4 AND SWAP3 AND SWAP2 SWAP1 SWAP2 OR PUSH1 0x1 PUSH1 0xA0 SHL OR SWAP1 SSTORE JUMP JUMPDEST PUSH1 0xB SLOAD PUSH1 0x1 PUSH1 0x1 PUSH1 0xA0 SHL SUB AND CALLER EQ PUSH2 0xD0F JUMPI PUSH1 0x40 MLOAD PUSH3 0x461BCD PUSH1 0xE5 SHL DUP2 MSTORE PUSH1 0x4 ADD PUSH2 0x5F8 SWAP1 PUSH2 0x269B JUMP JUMPDEST PUSH1 0xD SLOAD PUSH1 0x1 PUSH1 0xA0 SHL SWAP1 DIV PUSH1 0xFF AND PUSH2 0xD74 JUMPI PUSH1 0x40 MLOAD PUSH3 0x461BCD PUSH1 0xE5 SHL DUP2 MSTORE PUSH1 0x20 PUSH1 0x4 DUP3 ADD MSTORE PUSH1 0x23 PUSH1 0x24 DUP3 ADD MSTORE PUSH32 0x446973747269627574696F6E20706172616D657465727320617265206E6F7420 PUSH1 0x44 DUP3 ADD MSTORE PUSH3 0x1CD95D PUSH1 0xEA SHL PUSH1 0x64 DUP3 ADD MSTORE PUSH1 0x84 ADD PUSH2 0x5F8 JUMP JUMPDEST PUSH1 0x11 SLOAD DUP3 GT PUSH2 0xDEB JUMPI PUSH1 0x40 MLOAD PUSH3 0x461BCD PUSH1 0xE5 SHL DUP2 MSTORE PUSH1 0x20 PUSH1 0x4 DUP3 ADD MSTORE PUSH1 0x38 PUSH1 0x24 DUP3 ADD MSTORE PUSH32 0x446973747269627574696F6E20726F756E64206D757374206265206C61746572 PUSH1 0x44 DUP3 ADD MSTORE PUSH32 0x207468616E20726567697374726174696F6E20726F756E640000000000000000 PUSH1 0x64 DUP3 ADD MSTORE PUSH1 0x84 ADD PUSH2 0x5F8 JUMP JUMPDEST PUSH1 0x40 DUP1 MLOAD DUP1 DUP3 ADD DUP3 MSTORE DUP4 DUP2 MSTORE PUSH1 0x20 ADD DUP3 SWAP1 MSTORE PUSH1 0x13 DUP4 SWAP1 SSTORE PUSH1 0x14 DUP3 SWAP1 SSTORE MLOAD PUSH32 0x7D5E91551DC6F3038619D85DA877B41440D669756A40EEB78B1C9DF6C6A988D5 SWAP1 PUSH2 0xE37 SWAP1 TIMESTAMP DUP2 MSTORE PUSH1 0x20 ADD SWAP1 JUMP JUMPDEST PUSH1 0x40 MLOAD DUP1 SWAP2 SUB SWAP1 LOG1 POP POP JUMP JUMPDEST PUSH1 0xD SLOAD PUSH1 0x1 PUSH1 0x1 PUSH1 0xA0 SHL SUB AND CALLER EQ PUSH2 0xE6D JUMPI PUSH1 0x40 MLOAD PUSH3 0x461BCD PUSH1 0xE5 SHL DUP2 MSTORE PUSH1 0x4 ADD PUSH2 0x5F8 SWAP1 PUSH2 0x279C JUMP JUMPDEST PUSH1 0xD SLOAD PUSH1 0x1 PUSH1 0xA0 SHL SWAP1 DIV PUSH1 0xFF AND PUSH2 0xE96 JUMPI PUSH1 0x40 MLOAD PUSH3 0x461BCD PUSH1 0xE5 SHL DUP2 MSTORE PUSH1 0x4 ADD PUSH2 0x5F8 SWAP1 PUSH2 0x27E2 JUMP JUMPDEST PUSH1 0xD SLOAD PUSH1 0x1 PUSH1 0xA8 SHL SWAP1 DIV PUSH1 0xFF AND ISZERO PUSH2 0xEFA JUMPI PUSH1 0x40 MLOAD PUSH3 0x461BCD PUSH1 0xE5 SHL DUP2 MSTORE PUSH1 0x20 PUSH1 0x4 DUP3 ADD MSTORE PUSH1 0x21 PUSH1 0x24 DUP3 ADD MSTORE PUSH32 0x546F6B656E7320686173206265656E206465706F736974656420616C72656164 PUSH1 0x44 DUP3 ADD MSTORE PUSH1 0x79 PUSH1 0xF8 SHL PUSH1 0x64 DUP3 ADD MSTORE PUSH1 0x84 ADD PUSH2 0x5F8 JUMP JUMPDEST PUSH1 0xD DUP1 SLOAD PUSH1 0xFF PUSH1 0xA8 SHL NOT AND PUSH1 0x1 PUSH1 0xA8 SHL OR SWAP1 SSTORE PUSH1 0xE SLOAD PUSH1 0xC SLOAD PUSH2 0x60A SWAP2 PUSH1 0x1 PUSH1 0x1 PUSH1 0xA0 SHL SUB SWAP1 SWAP2 AND SWAP1 CALLER SWAP1 ADDRESS SWAP1 PUSH2 0x1F6B JUMP JUMPDEST PUSH1 0x60 PUSH1 0xA DUP1 SLOAD DUP1 PUSH1 0x20 MUL PUSH1 0x20 ADD PUSH1 0x40 MLOAD SWAP1 DUP2 ADD PUSH1 0x40 MSTORE DUP1 SWAP3 SWAP2 SWAP1 DUP2 DUP2 MSTORE PUSH1 0x20 ADD DUP3 DUP1 SLOAD DUP1 ISZERO PUSH2 0x65A JUMPI PUSH1 0x20 MUL DUP3 ADD SWAP2 SWAP1 PUSH1 0x0 MSTORE PUSH1 0x20 PUSH1 0x0 KECCAK256 SWAP1 DUP2 SLOAD DUP2 MSTORE PUSH1 0x20 ADD SWAP1 PUSH1 0x1 ADD SWAP1 DUP1 DUP4 GT PUSH2 0x646 JUMPI POP POP POP POP POP SWAP1 POP SWAP1 JUMP JUMPDEST PUSH1 0xB SLOAD PUSH1 0x1 PUSH1 0x1 PUSH1 0xA0 SHL SUB AND CALLER EQ PUSH2 0xFAC JUMPI PUSH1 0x40 MLOAD PUSH3 0x461BCD PUSH1 0xE5 SHL DUP2 MSTORE PUSH1 0x4 ADD PUSH2 0x5F8 SWAP1 PUSH2 0x269B JUMP JUMPDEST TIMESTAMP DUP3 LT ISZERO DUP1 ISZERO PUSH2 0xFBB JUMPI POP DUP2 DUP2 GT JUMPDEST PUSH2 0xFC4 JUMPI PUSH1 0x0 DUP1 REVERT JUMPDEST PUSH1 0x10 DUP3 SWAP1 SSTORE PUSH1 0x11 DUP2 SWAP1 SSTORE PUSH1 0x40 MLOAD TIMESTAMP DUP2 MSTORE PUSH32 0x95A21281108B566135DDAA849F46AC5EDEE2287699CE9443AC1490705CD63D77 SWAP1 PUSH1 0x20 ADD PUSH2 0xE37 JUMP JUMPDEST PUSH1 0xA DUP2 DUP2 SLOAD DUP2 LT PUSH2 0x100E JUMPI PUSH1 0x0 DUP1 REVERT JUMPDEST PUSH1 0x0 SWAP2 DUP3 MSTORE PUSH1 0x20 SWAP1 SWAP2 KECCAK256 ADD SLOAD SWAP1 POP DUP2 JUMP JUMPDEST PUSH1 0x0 PUSH1 0x8 SLOAD GT PUSH2 0x1041 JUMPI PUSH1 0x40 MLOAD PUSH3 0x461BCD PUSH1 0xE5 SHL DUP2 MSTORE PUSH1 0x4 ADD PUSH2 0x5F8 SWAP1 PUSH2 0x26D2 JUMP JUMPDEST CALLER PUSH1 0x0 SWAP1 DUP2 MSTORE PUSH1 0x5 PUSH1 0x20 MSTORE PUSH1 0x40 SWAP1 KECCAK256 SLOAD PUSH1 0xFF AND ISZERO PUSH2 0x10A1 JUMPI PUSH1 0x40 MLOAD PUSH3 0x461BCD PUSH1 0xE5 SHL DUP2 MSTORE PUSH1 0x20 PUSH1 0x4 DUP3 ADD MSTORE PUSH1 0x1A PUSH1 0x24 DUP3 ADD MSTORE PUSH32 0x4164647265737320616C7265616479207769647468647261776E000000000000 PUSH1 0x44 DUP3 ADD MSTORE PUSH1 0x64 ADD PUSH2 0x5F8 JUMP JUMPDEST CALLER PUSH1 0x0 SWAP1 DUP2 MSTORE PUSH1 0x20 DUP2 SWAP1 MSTORE PUSH1 0x40 DUP2 KECCAK256 PUSH1 0x1 DUP2 ADD SLOAD PUSH2 0x10D1 JUMPI PUSH1 0x40 MLOAD PUSH3 0x461BCD PUSH1 0xE5 SHL DUP2 MSTORE PUSH1 0x4 ADD PUSH2 0x5F8 SWAP1 PUSH2 0x2709 JUMP JUMPDEST CALLER PUSH1 0x0 SWAP1 DUP2 MSTORE PUSH1 0x4 PUSH1 0x20 MSTORE PUSH1 0x40 DUP2 KECCAK256 SLOAD SWAP1 JUMPDEST DUP2 DUP2 LT ISZERO PUSH2 0x115E JUMPI PUSH1 0x0 PUSH2 0x1127 PUSH1 0x7 SLOAD PUSH2 0x95D PUSH1 0xA DUP6 DUP2 SLOAD DUP2 LT PUSH2 0x1109 JUMPI PUSH2 0x1109 PUSH2 0x2740 JUMP JUMPDEST SWAP1 PUSH1 0x0 MSTORE PUSH1 0x20 PUSH1 0x0 KECCAK256 ADD SLOAD DUP8 PUSH1 0x1 ADD SLOAD PUSH2 0x1ED8 SWAP1 SWAP2 SWAP1 PUSH4 0xFFFFFFFF AND JUMP JUMPDEST PUSH1 0x1 DUP6 ADD SLOAD SWAP1 SWAP2 POP PUSH2 0x1139 SWAP1 DUP3 PUSH2 0x1FA9 JUMP JUMPDEST PUSH1 0x1 DUP6 ADD SSTORE PUSH2 0x1148 DUP6 DUP3 PUSH2 0x1EF7 JUMP JUMPDEST SWAP5 POP POP DUP1 DUP1 PUSH2 0x1156 SWAP1 PUSH2 0x276C JUMP JUMPDEST SWAP2 POP POP PUSH2 0x10E3 JUMP JUMPDEST POP PUSH1 0x0 DUP4 GT PUSH2 0x11AF JUMPI PUSH1 0x40 MLOAD PUSH3 0x461BCD PUSH1 0xE5 SHL DUP2 MSTORE PUSH1 0x20 PUSH1 0x4 DUP3 ADD MSTORE PUSH1 0x1D PUSH1 0x24 DUP3 ADD MSTORE PUSH32 0x5468657265206973206E6F7468696E6720746F20776964746864726177000000 PUSH1 0x44 DUP3 ADD MSTORE PUSH1 0x64 ADD PUSH2 0x5F8 JUMP JUMPDEST CALLER PUSH1 0x0 SWAP1 DUP2 MSTORE PUSH1 0x5 PUSH1 0x20 MSTORE PUSH1 0x40 SWAP1 KECCAK256 DUP1 SLOAD PUSH1 0xFF NOT AND PUSH1 0x1 OR SWAP1 SSTORE PUSH1 0xF SLOAD PUSH2 0x11D6 SWAP1 DUP5 PUSH2 0x1EF7 JUMP JUMPDEST PUSH1 0xF SSTORE PUSH1 0xC SLOAD PUSH2 0x11F0 SWAP1 PUSH1 0x1 PUSH1 0x1 PUSH1 0xA0 SHL SUB AND CALLER DUP6 PUSH2 0x1F03 JUMP JUMPDEST PUSH1 0x40 MLOAD DUP4 DUP2 MSTORE CALLER SWAP1 PUSH32 0x6352C5382C4A4578E712449CA65E83CDB392D045DFCF1CAD9615189DB2DA244B SWAP1 PUSH1 0x20 ADD PUSH1 0x40 MLOAD DUP1 SWAP2 SUB SWAP1 LOG2 POP POP POP JUMP JUMPDEST PUSH1 0xB SLOAD PUSH1 0x1 PUSH1 0x1 PUSH1 0xA0 SHL SUB AND CALLER EQ PUSH2 0x1254 JUMPI PUSH1 0x40 MLOAD PUSH3 0x461BCD PUSH1 0xE5 SHL DUP2 MSTORE PUSH1 0x4 ADD PUSH2 0x5F8 SWAP1 PUSH2 0x269B JUMP JUMPDEST PUSH1 0x0 PUSH1 0x6 SLOAD GT PUSH2 0x12A6 JUMPI PUSH1 0x40 MLOAD PUSH3 0x461BCD PUSH1 0xE5 SHL DUP2 MSTORE PUSH1 0x20 PUSH1 0x4 DUP3 ADD MSTORE PUSH1 0x1B PUSH1 0x24 DUP3 ADD MSTORE PUSH32 0x56657374696E6720656E642064617465206973206E6F74207365740000000000 PUSH1 0x44 DUP3 ADD MSTORE PUSH1 0x64 ADD PUSH2 0x5F8 JUMP JUMPDEST PUSH1 0x6 SLOAD TIMESTAMP LT ISZERO PUSH2 0x1303 JUMPI PUSH1 0x40 MLOAD PUSH3 0x461BCD PUSH1 0xE5 SHL DUP2 MSTORE PUSH1 0x20 PUSH1 0x4 DUP3 ADD MSTORE PUSH1 0x22 PUSH1 0x24 DUP3 ADD MSTORE PUSH32 0x56657374696E6720706572696F64206973206E6F742066696E69736865642079 PUSH1 0x44 DUP3 ADD MSTORE PUSH2 0x195D PUSH1 0xF2 SHL PUSH1 0x64 DUP3 ADD MSTORE PUSH1 0x84 ADD PUSH2 0x5F8 JUMP JUMPDEST PUSH1 0x15 SLOAD PUSH1 0xFF AND ISZERO PUSH2 0x1356 JUMPI PUSH1 0x40 MLOAD PUSH3 0x461BCD PUSH1 0xE5 SHL DUP2 MSTORE PUSH1 0x20 PUSH1 0x4 DUP3 ADD MSTORE PUSH1 0x1A PUSH1 0x24 DUP3 ADD MSTORE PUSH32 0x4C6566746F76657220616C72656164792077697468647261776E000000000000 PUSH1 0x44 DUP3 ADD MSTORE PUSH1 0x64 ADD PUSH2 0x5F8 JUMP JUMPDEST PUSH1 0xF SLOAD PUSH1 0xE SLOAD PUSH1 0x0 SWAP2 PUSH2 0x1369 SWAP2 SWAP1 PUSH2 0x1FA9 JUMP JUMPDEST SWAP1 POP PUSH1 0x0 DUP2 GT PUSH2 0x138B JUMPI PUSH1 0x40 MLOAD PUSH3 0x461BCD PUSH1 0xE5 SHL DUP2 MSTORE PUSH1 0x4 ADD PUSH2 0x5F8 SWAP1 PUSH2 0x2709 JUMP JUMPDEST PUSH1 0x15 DUP1 SLOAD PUSH1 0xFF NOT AND PUSH1 0x1 OR SWAP1 SSTORE PUSH1 0xC SLOAD PUSH2 0x6D6 SWAP1 PUSH1 0x1 PUSH1 0x1 PUSH1 0xA0 SHL SUB AND CALLER DUP4 PUSH2 0x1F03 JUMP JUMPDEST PUSH1 0xB SLOAD PUSH1 0x1 PUSH1 0x1 PUSH1 0xA0 SHL SUB AND CALLER EQ PUSH2 0x13D9 JUMPI PUSH1 0x40 MLOAD PUSH3 0x461BCD PUSH1 0xE5 SHL DUP2 MSTORE PUSH1 0x4 ADD PUSH2 0x5F8 SWAP1 PUSH2 0x269B JUMP JUMPDEST PUSH1 0x1 PUSH1 0x1 PUSH1 0xA0 SHL SUB DUP3 AND PUSH1 0x0 SWAP1 DUP2 MSTORE PUSH1 0x20 DUP2 SWAP1 MSTORE PUSH1 0x40 SWAP1 KECCAK256 PUSH1 0x2 ADD SLOAD PUSH1 0xFF AND PUSH2 0x1414 JUMPI PUSH1 0x40 MLOAD PUSH3 0x461BCD PUSH1 0xE5 SHL DUP2 MSTORE PUSH1 0x4 ADD PUSH2 0x5F8 SWAP1 PUSH2 0x2819 JUMP JUMPDEST PUSH1 0x1 PUSH1 0x1 PUSH1 0xA0 SHL SUB SWAP1 SWAP2 AND PUSH1 0x0 SWAP1 DUP2 MSTORE PUSH1 0x20 DUP2 SWAP1 MSTORE PUSH1 0x40 SWAP1 KECCAK256 PUSH1 0x1 ADD SSTORE JUMP JUMPDEST PUSH1 0x10 SLOAD TIMESTAMP LT DUP1 ISZERO SWAP1 PUSH2 0x1447 JUMPI POP PUSH1 0x11 SLOAD TIMESTAMP GT ISZERO JUMPDEST DUP1 ISZERO PUSH2 0x1456 JUMPI POP PUSH1 0x12 SLOAD PUSH1 0xFF AND ISZERO JUMPDEST PUSH2 0x1472 JUMPI PUSH1 0x40 MLOAD PUSH3 0x461BCD PUSH1 0xE5 SHL DUP2 MSTORE PUSH1 0x4 ADD PUSH2 0x5F8 SWAP1 PUSH2 0x264E JUMP JUMPDEST PUSH1 0xB SLOAD PUSH1 0x1 PUSH1 0x1 PUSH1 0xA0 SHL SUB AND CALLER EQ PUSH2 0x149C JUMPI PUSH1 0x40 MLOAD PUSH3 0x461BCD PUSH1 0xE5 SHL DUP2 MSTORE PUSH1 0x4 ADD PUSH2 0x5F8 SWAP1 PUSH2 0x269B JUMP JUMPDEST PUSH1 0x0 DUP2 MLOAD GT PUSH2 0x150B JUMPI PUSH1 0x40 MLOAD PUSH3 0x461BCD PUSH1 0xE5 SHL DUP2 MSTORE PUSH1 0x20 PUSH1 0x4 DUP3 ADD MSTORE PUSH1 0x35 PUSH1 0x24 DUP3 ADD MSTORE PUSH32 0x54686520616464726573736573206172726179206D75737420636F6E7461696E PUSH1 0x44 DUP3 ADD MSTORE PUSH21 0x81BDB9948195B195B595B9D08185D081B19585CDD PUSH1 0x5A SHL PUSH1 0x64 DUP3 ADD MSTORE PUSH1 0x84 ADD PUSH2 0x5F8 JUMP JUMPDEST PUSH1 0x0 JUMPDEST DUP2 MLOAD DUP2 LT ISZERO PUSH2 0x158E JUMPI PUSH1 0x0 DUP1 DUP4 DUP4 DUP2 MLOAD DUP2 LT PUSH2 0x152C JUMPI PUSH2 0x152C PUSH2 0x2740 JUMP JUMPDEST PUSH1 0x20 SWAP1 DUP2 MUL SWAP2 SWAP1 SWAP2 ADD DUP2 ADD MLOAD PUSH1 0x1 PUSH1 0x1 PUSH1 0xA0 SHL SUB AND DUP3 MSTORE DUP2 ADD SWAP2 SWAP1 SWAP2 MSTORE PUSH1 0x40 ADD PUSH1 0x0 KECCAK256 PUSH1 0x2 ADD SLOAD PUSH1 0xFF AND PUSH2 0x157C JUMPI PUSH2 0x157C DUP3 DUP3 DUP2 MLOAD DUP2 LT PUSH2 0x156F JUMPI PUSH2 0x156F PUSH2 0x2740 JUMP JUMPDEST PUSH1 0x20 MUL PUSH1 0x20 ADD ADD MLOAD PUSH2 0x1DA8 JUMP JUMPDEST DUP1 PUSH2 0x1586 DUP2 PUSH2 0x276C JUMP JUMPDEST SWAP2 POP POP PUSH2 0x150E JUMP JUMPDEST POP PUSH1 0x40 MLOAD TIMESTAMP DUP2 MSTORE PUSH32 0x3ED3FF891AF065B7AECB80D2D3E0543AFD07E2B38E36D9E98700FEEBF26482B3 SWAP1 PUSH1 0x20 ADD JUMPDEST PUSH1 0x40 MLOAD DUP1 SWAP2 SUB SWAP1 LOG1 POP JUMP JUMPDEST PUSH1 0x13 SLOAD TIMESTAMP LT DUP1 ISZERO SWAP1 PUSH2 0x15DA JUMPI POP PUSH1 0x14 SLOAD TIMESTAMP GT ISZERO JUMPDEST PUSH2 0x163C JUMPI PUSH1 0x40 MLOAD PUSH3 0x461BCD PUSH1 0xE5 SHL DUP2 MSTORE PUSH1 0x20 PUSH1 0x4 DUP3 ADD MSTORE PUSH1 0x2D PUSH1 0x24 DUP3 ADD MSTORE PUSH32 0x446973747269627574696F6E20726F756E64206973206F766572206F72206E6F PUSH1 0x44 DUP3 ADD MSTORE PUSH13 0x1D081CDD185C9D1959081E595D PUSH1 0x9A SHL PUSH1 0x64 DUP3 ADD MSTORE PUSH1 0x84 ADD PUSH2 0x5F8 JUMP JUMPDEST CALLER PUSH1 0x0 SWAP1 DUP2 MSTORE PUSH1 0x3 PUSH1 0x20 MSTORE PUSH1 0x40 SWAP1 KECCAK256 PUSH1 0x1 ADD SLOAD PUSH1 0xFF AND ISZERO PUSH2 0x169F JUMPI PUSH1 0x40 MLOAD PUSH3 0x461BCD PUSH1 0xE5 SHL DUP2 MSTORE PUSH1 0x20 PUSH1 0x4 DUP3 ADD MSTORE PUSH1 0x1C PUSH1 0x24 DUP3 ADD MSTORE PUSH32 0x4164647265737320616C72656164792070617274696369706174656400000000 PUSH1 0x44 DUP3 ADD MSTORE PUSH1 0x64 ADD PUSH2 0x5F8 JUMP JUMPDEST PUSH1 0x40 DUP1 MLOAD DUP1 DUP3 ADD DUP3 MSTORE TIMESTAMP DUP1 DUP3 MSTORE PUSH1 0x1 PUSH1 0x20 DUP1 DUP5 ADD DUP3 DUP2 MSTORE CALLER PUSH1 0x0 DUP2 DUP2 MSTORE PUSH1 0x3 DUP5 MSTORE DUP8 SWAP1 KECCAK256 SWAP6 MLOAD DUP7 SSTORE SWAP1 MLOAD SWAP5 SWAP1 SWAP3 ADD DUP1 SLOAD PUSH1 0xFF NOT AND SWAP5 ISZERO ISZERO SWAP5 SWAP1 SWAP5 OR SWAP1 SWAP4 SSTORE SWAP3 MLOAD SWAP1 DUP2 MSTORE PUSH32 0xB198F199C43CC078AD46E5A5FABE03EBA401F7417816C86AF0BD2E7345C99506 SWAP2 ADD PUSH1 0x40 MLOAD DUP1 SWAP2 SUB SWAP1 LOG2 JUMP JUMPDEST PUSH1 0xB SLOAD PUSH1 0x1 PUSH1 0x1 PUSH1 0xA0 SHL SUB AND CALLER EQ PUSH2 0x1739 JUMPI PUSH1 0x40 MLOAD PUSH3 0x461BCD PUSH1 0xE5 SHL DUP2 MSTORE PUSH1 0x4 ADD PUSH2 0x5F8 SWAP1 PUSH2 0x269B JUMP JUMPDEST DUP1 MLOAD DUP3 EQ PUSH2 0x17AF JUMPI PUSH1 0x40 MLOAD PUSH3 0x461BCD PUSH1 0xE5 SHL DUP2 MSTORE PUSH1 0x20 PUSH1 0x4 DUP3 ADD MSTORE PUSH1 0x3A PUSH1 0x24 DUP3 ADD MSTORE PUSH32 0x4576656E747320636F756C64206D75737420626520657175616C207769746820 PUSH1 0x44 DUP3 ADD MSTORE PUSH32 0x506572636570742050657220506F7274696F6E206C656E677468000000000000 PUSH1 0x64 DUP3 ADD MSTORE PUSH1 0x84 ADD PUSH2 0x5F8 JUMP JUMPDEST PUSH1 0xD SLOAD PUSH1 0x1 PUSH1 0xA0 SHL SWAP1 DIV PUSH1 0xFF AND PUSH2 0x17D8 JUMPI PUSH1 0x40 MLOAD PUSH3 0x461BCD PUSH1 0xE5 SHL DUP2 MSTORE PUSH1 0x4 ADD PUSH2 0x5F8 SWAP1 PUSH2 0x27E2 JUMP JUMPDEST PUSH1 0x8 DUP3 SWAP1 SSTORE PUSH1 0x0 DUP1 JUMPDEST DUP4 DUP2 LT ISZERO PUSH2 0x185F JUMPI PUSH1 0xA DUP4 DUP3 DUP2 MLOAD DUP2 LT PUSH2 0x17FD JUMPI PUSH2 0x17FD PUSH2 0x2740 JUMP JUMPDEST PUSH1 0x20 SWAP1 DUP2 MUL SWAP2 SWAP1 SWAP2 ADD DUP2 ADD MLOAD DUP3 SLOAD PUSH1 0x1 DUP2 ADD DUP5 SSTORE PUSH1 0x0 SWAP4 DUP5 MSTORE SWAP2 SWAP1 SWAP3 KECCAK256 ADD SSTORE DUP3 MLOAD PUSH2 0x184B SWAP1 DUP5 SWAP1 DUP4 SWAP1 DUP2 LT PUSH2 0x1834 JUMPI PUSH2 0x1834 PUSH2 0x2740 JUMP JUMPDEST PUSH1 0x20 MUL PUSH1 0x20 ADD ADD MLOAD DUP4 PUSH2 0x1EF7 SWAP1 SWAP2 SWAP1 PUSH4 0xFFFFFFFF AND JUMP JUMPDEST SWAP2 POP DUP1 PUSH2 0x1857 DUP2 PUSH2 0x276C JUMP JUMPDEST SWAP2 POP POP PUSH2 0x17E1 JUMP JUMPDEST POP DUP1 PUSH1 0x7 SLOAD EQ PUSH2 0x18B1 JUMPI PUSH1 0x40 MLOAD PUSH3 0x461BCD PUSH1 0xE5 SHL DUP2 MSTORE PUSH1 0x20 PUSH1 0x4 DUP3 ADD MSTORE PUSH1 0x18 PUSH1 0x24 DUP3 ADD MSTORE PUSH32 0x507265636973696F6E2070657263656E74732069737375650000000000000000 PUSH1 0x44 DUP3 ADD MSTORE PUSH1 0x64 ADD PUSH2 0x5F8 JUMP JUMPDEST PUSH1 0x40 MLOAD TIMESTAMP DUP2 MSTORE PUSH32 0x1AF3C14CE558C4A33618E1F36C8EA383FC552A672298056311FA66518719F6E0 SWAP1 PUSH1 0x20 ADD PUSH1 0x40 MLOAD DUP1 SWAP2 SUB SWAP1 LOG1 POP POP POP JUMP JUMPDEST PUSH1 0xB SLOAD PUSH1 0x1 PUSH1 0x1 PUSH1 0xA0 SHL SUB AND CALLER EQ PUSH2 0x1913 JUMPI PUSH1 0x40 MLOAD PUSH3 0x461BCD PUSH1 0xE5 SHL DUP2 MSTORE PUSH1 0x4 ADD PUSH2 0x5F8 SWAP1 PUSH2 0x269B JUMP JUMPDEST PUSH1 0x0 DUP2 MLOAD GT PUSH2 0x1983 JUMPI PUSH1 0x40 MLOAD PUSH3 0x461BCD PUSH1 0xE5 SHL DUP2 MSTORE PUSH1 0x20 PUSH1 0x4 DUP3 ADD MSTORE PUSH1 0x36 PUSH1 0x24 DUP3 ADD MSTORE PUSH32 0x54686520616C6C6F636174696F6E206172726179206D75737420636F6E746169 PUSH1 0x44 DUP3 ADD MSTORE PUSH22 0x1B881BDB9948195B195B595B9D08185D081B19585CDD PUSH1 0x52 SHL PUSH1 0x64 DUP3 ADD MSTORE PUSH1 0x84 ADD PUSH2 0x5F8 JUMP JUMPDEST PUSH1 0x0 JUMPDEST DUP2 MLOAD DUP2 LT ISZERO PUSH2 0x1A22 JUMPI PUSH1 0x0 DUP3 DUP3 DUP2 MLOAD DUP2 LT PUSH2 0x19A3 JUMPI PUSH2 0x19A3 PUSH2 0x2740 JUMP JUMPDEST PUSH1 0x20 SWAP1 DUP2 MUL SWAP2 SWAP1 SWAP2 ADD DUP2 ADD MLOAD DUP1 MLOAD PUSH1 0x1 PUSH1 0x1 PUSH1 0xA0 SHL SUB AND PUSH1 0x0 SWAP1 DUP2 MSTORE SWAP2 DUP3 SWAP1 MSTORE PUSH1 0x40 SWAP1 SWAP2 KECCAK256 PUSH1 0x2 ADD SLOAD SWAP1 SWAP2 POP PUSH1 0xFF AND PUSH2 0x19EE JUMPI PUSH1 0x40 MLOAD PUSH3 0x461BCD PUSH1 0xE5 SHL DUP2 MSTORE PUSH1 0x4 ADD PUSH2 0x5F8 SWAP1 PUSH2 0x2819 JUMP JUMPDEST PUSH1 0x20 DUP1 DUP3 ADD MLOAD SWAP2 MLOAD PUSH1 0x1 PUSH1 0x1 PUSH1 0xA0 SHL SUB AND PUSH1 0x0 SWAP1 DUP2 MSTORE SWAP1 DUP2 SWAP1 MSTORE PUSH1 0x40 SWAP1 KECCAK256 PUSH1 0x1 ADD SSTORE DUP1 PUSH2 0x1A1A DUP2 PUSH2 0x276C JUMP JUMPDEST SWAP2 POP POP PUSH2 0x1986 JUMP JUMPDEST POP PUSH1 0x40 MLOAD TIMESTAMP DUP2 MSTORE PUSH32 0xB470A061A328BEDEA790142CA3E477573B6337191C39704740003DC082E76ECF SWAP1 PUSH1 0x20 ADD PUSH2 0x15BB JUMP JUMPDEST PUSH1 0x9 DUP2 DUP2 SLOAD DUP2 LT PUSH2 0x100E JUMPI PUSH1 0x0 DUP1 REVERT JUMPDEST PUSH1 0xB SLOAD PUSH1 0x1 PUSH1 0x1 PUSH1 0xA0 SHL SUB AND CALLER EQ PUSH2 0x1A8D JUMPI PUSH1 0x40 MLOAD PUSH3 0x461BCD PUSH1 0xE5 SHL DUP2 MSTORE PUSH1 0x4 ADD PUSH2 0x5F8 SWAP1 PUSH2 0x269B JUMP JUMPDEST PUSH1 0xA SLOAD ISZERO DUP1 ISZERO PUSH2 0x1A9D JUMPI POP PUSH1 0x9 SLOAD ISZERO JUMPDEST PUSH2 0x1AE9 JUMPI PUSH1 0x40 MLOAD PUSH3 0x461BCD PUSH1 0xE5 SHL DUP2 MSTORE PUSH1 0x20 PUSH1 0x4 DUP3 ADD MSTORE PUSH1 0x1E PUSH1 0x24 DUP3 ADD MSTORE PUSH32 0x56657374696E6720706172616D657465727320616C7265616479207365740000 PUSH1 0x44 DUP3 ADD MSTORE PUSH1 0x64 ADD PUSH2 0x5F8 JUMP JUMPDEST DUP1 MLOAD DUP3 MLOAD EQ PUSH2 0x1B6E JUMPI PUSH1 0x40 MLOAD PUSH3 0x461BCD PUSH1 0xE5 SHL DUP2 MSTORE PUSH1 0x20 PUSH1 0x4 DUP3 ADD MSTORE PUSH1 0x44 PUSH1 0x24 DUP3 ADD DUP2 SWAP1 MSTORE PUSH32 0x556E6C6F636B696E672054696D6573206C656E677468206D7573742062652065 SWAP1 DUP3 ADD MSTORE PUSH32 0x7175616C20776974682050657263656E742050657220506F7274696F6E206C65 PUSH1 0x64 DUP3 ADD MSTORE PUSH4 0xDCCEE8D PUSH1 0xE3 SHL PUSH1 0x84 DUP3 ADD MSTORE PUSH1 0xA4 ADD PUSH2 0x5F8 JUMP JUMPDEST PUSH1 0xD SLOAD PUSH1 0x1 PUSH1 0xA0 SHL SWAP1 DIV PUSH1 0xFF AND PUSH2 0x1B97 JUMPI PUSH1 0x40 MLOAD PUSH3 0x461BCD PUSH1 0xE5 SHL DUP2 MSTORE PUSH1 0x4 ADD PUSH2 0x5F8 SWAP1 PUSH2 0x27E2 JUMP JUMPDEST PUSH1 0x13 PUSH1 0x1 ADD SLOAD DUP3 PUSH1 0x0 DUP2 MLOAD DUP2 LT PUSH2 0x1BB0 JUMPI PUSH2 0x1BB0 PUSH2 0x2740 JUMP JUMPDEST PUSH1 0x20 MUL PUSH1 0x20 ADD ADD MLOAD GT PUSH2 0x1C1D JUMPI PUSH1 0x40 MLOAD PUSH3 0x461BCD PUSH1 0xE5 SHL DUP2 MSTORE PUSH1 0x20 PUSH1 0x4 DUP3 ADD MSTORE PUSH1 0x2F PUSH1 0x24 DUP3 ADD MSTORE PUSH32 0x556E6C6F636B2074696D65206D75737420626520616674657220746865206469 PUSH1 0x44 DUP3 ADD MSTORE PUSH15 0x73747269627574696F6E20656E6473 PUSH1 0x88 SHL PUSH1 0x64 DUP3 ADD MSTORE PUSH1 0x84 ADD PUSH2 0x5F8 JUMP JUMPDEST PUSH1 0x0 DUP1 JUMPDEST DUP4 MLOAD DUP2 LT ISZERO PUSH2 0x185F JUMPI DUP1 ISZERO PUSH2 0x1CCD JUMPI DUP4 PUSH2 0x1C3C PUSH1 0x1 DUP4 PUSH2 0x2785 JUMP JUMPDEST DUP2 MLOAD DUP2 LT PUSH2 0x1C4C JUMPI PUSH2 0x1C4C PUSH2 0x2740 JUMP JUMPDEST PUSH1 0x20 MUL PUSH1 0x20 ADD ADD MLOAD DUP5 DUP3 DUP2 MLOAD DUP2 LT PUSH2 0x1C66 JUMPI PUSH2 0x1C66 PUSH2 0x2740 JUMP JUMPDEST PUSH1 0x20 MUL PUSH1 0x20 ADD ADD MLOAD GT PUSH2 0x1CCD JUMPI PUSH1 0x40 MLOAD PUSH3 0x461BCD PUSH1 0xE5 SHL DUP2 MSTORE PUSH1 0x20 PUSH1 0x4 DUP3 ADD MSTORE PUSH1 0x29 PUSH1 0x24 DUP3 ADD MSTORE PUSH32 0x556E6C6F636B2074696D65206D7573742062652067726561746572207468616E PUSH1 0x44 DUP3 ADD MSTORE PUSH9 0x2070726576696F7573 PUSH1 0xB8 SHL PUSH1 0x64 DUP3 ADD MSTORE PUSH1 0x84 ADD PUSH2 0x5F8 JUMP JUMPDEST PUSH1 0x9 DUP5 DUP3 DUP2 MLOAD DUP2 LT PUSH2 0x1CE1 JUMPI PUSH2 0x1CE1 PUSH2 0x2740 JUMP JUMPDEST PUSH1 0x20 SWAP1 DUP2 MUL SWAP2 SWAP1 SWAP2 ADD DUP2 ADD MLOAD DUP3 SLOAD PUSH1 0x1 DUP2 ADD DUP5 SSTORE PUSH1 0x0 SWAP4 DUP5 MSTORE SWAP2 SWAP1 SWAP3 KECCAK256 ADD SSTORE DUP3 MLOAD PUSH1 0xA SWAP1 DUP5 SWAP1 DUP4 SWAP1 DUP2 LT PUSH2 0x1D17 JUMPI PUSH2 0x1D17 PUSH2 0x2740 JUMP JUMPDEST PUSH1 0x20 SWAP1 DUP2 MUL SWAP2 SWAP1 SWAP2 ADD DUP2 ADD MLOAD DUP3 SLOAD PUSH1 0x1 DUP2 ADD DUP5 SSTORE PUSH1 0x0 SWAP4 DUP5 MSTORE SWAP2 SWAP1 SWAP3 KECCAK256 ADD SSTORE DUP3 MLOAD PUSH2 0x1D4E SWAP1 DUP5 SWAP1 DUP4 SWAP1 DUP2 LT PUSH2 0x1834 JUMPI PUSH2 0x1834 PUSH2 0x2740 JUMP JUMPDEST SWAP2 POP DUP1 PUSH2 0x1D5A DUP2 PUSH2 0x276C JUMP JUMPDEST SWAP2 POP POP PUSH2 0x1C21 JUMP JUMPDEST PUSH1 0xD SLOAD PUSH1 0x1 PUSH1 0x1 PUSH1 0xA0 SHL SUB AND CALLER EQ PUSH2 0x1D8C JUMPI PUSH1 0x40 MLOAD PUSH3 0x461BCD PUSH1 0xE5 SHL DUP2 MSTORE PUSH1 0x4 ADD PUSH2 0x5F8 SWAP1 PUSH2 0x279C JUMP JUMPDEST PUSH1 0x1 PUSH1 0x1 PUSH1 0xA0 SHL SUB SWAP1 SWAP2 AND PUSH1 0x0 SWAP1 DUP2 MSTORE PUSH1 0x4 PUSH1 0x20 MSTORE PUSH1 0x40 SWAP1 KECCAK256 SSTORE JUMP JUMPDEST PUSH1 0x1 PUSH1 0x1 PUSH1 0xA0 SHL SUB DUP2 AND PUSH1 0x0 SWAP1 DUP2 MSTORE PUSH1 0x20 DUP2 SWAP1 MSTORE PUSH1 0x40 SWAP1 KECCAK256 PUSH1 0x2 ADD SLOAD PUSH1 0xFF AND ISZERO PUSH2 0x1E14 JUMPI PUSH1 0x40 MLOAD PUSH3 0x461BCD PUSH1 0xE5 SHL DUP2 MSTORE PUSH1 0x20 PUSH1 0x4 DUP3 ADD MSTORE PUSH1 0x1A PUSH1 0x24 DUP3 ADD MSTORE PUSH32 0x4164647265737320616C72656164792072656769737465726564000000000000 PUSH1 0x44 DUP3 ADD MSTORE PUSH1 0x64 ADD PUSH2 0x5F8 JUMP JUMPDEST PUSH1 0x40 DUP1 MLOAD PUSH1 0x60 DUP2 ADD DUP3 MSTORE TIMESTAMP DUP2 MSTORE PUSH1 0x0 PUSH1 0x20 DUP1 DUP4 ADD DUP3 DUP2 MSTORE PUSH1 0x1 DUP5 DUP7 ADD DUP2 DUP2 MSTORE PUSH1 0x1 PUSH1 0x1 PUSH1 0xA0 SHL SUB DUP9 AND DUP1 DUP7 MSTORE DUP6 DUP6 MSTORE DUP8 DUP7 KECCAK256 SWAP7 MLOAD DUP8 SSTORE SWAP3 MLOAD DUP7 DUP4 ADD SSTORE MLOAD PUSH1 0x2 SWAP6 DUP7 ADD DUP1 SLOAD PUSH1 0xFF NOT AND SWAP2 ISZERO ISZERO SWAP2 SWAP1 SWAP2 OR SWAP1 SSTORE DUP5 SLOAD DUP5 MSTORE SWAP1 SWAP2 MSTORE SWAP3 DUP2 KECCAK256 DUP1 SLOAD PUSH1 0x1 PUSH1 0x1 PUSH1 0xA0 SHL SUB NOT AND SWAP1 SWAP4 OR SWAP1 SWAP3 SSTORE DUP1 SLOAD SWAP2 PUSH2 0x1E8D DUP4 PUSH2 0x276C JUMP JUMPDEST SWAP2 SWAP1 POP SSTORE POP DUP1 PUSH1 0x1 PUSH1 0x1 PUSH1 0xA0 SHL SUB AND PUSH32 0x6F3BF3FA84E4763A43B3D23F9D79BE242D6D5C834941FF4C1111B67469E1150C TIMESTAMP PUSH1 0x40 MLOAD PUSH2 0x1ECD SWAP2 DUP2 MSTORE PUSH1 0x20 ADD SWAP1 JUMP JUMPDEST PUSH1 0x40 MLOAD DUP1 SWAP2 SUB SWAP1 LOG2 POP JUMP JUMPDEST PUSH1 0x0 PUSH2 0x1EE4 DUP3 DUP5 PUSH2 0x285B JUMP JUMPDEST SWAP4 SWAP3 POP POP POP JUMP JUMPDEST PUSH1 0x0 PUSH2 0x1EE4 DUP3 DUP5 PUSH2 0x287A JUMP JUMPDEST PUSH1 0x0 PUSH2 0x1EE4 DUP3 DUP5 PUSH2 0x289C JUMP JUMPDEST PUSH1 0x40 MLOAD PUSH1 0x1 PUSH1 0x1 PUSH1 0xA0 SHL SUB DUP4 AND PUSH1 0x24 DUP3 ADD MSTORE PUSH1 0x44 DUP2 ADD DUP3 SWAP1 MSTORE PUSH2 0x1F66 SWAP1 DUP5 SWAP1 PUSH4 0xA9059CBB PUSH1 0xE0 SHL SWAP1 PUSH1 0x64 ADD JUMPDEST PUSH1 0x40 DUP1 MLOAD PUSH1 0x1F NOT DUP2 DUP5 SUB ADD DUP2 MSTORE SWAP2 SWAP1 MSTORE PUSH1 0x20 DUP2 ADD DUP1 MLOAD PUSH1 0x1 PUSH1 0x1 PUSH1 0xE0 SHL SUB AND PUSH1 0x1 PUSH1 0x1 PUSH1 0xE0 SHL SUB NOT SWAP1 SWAP4 AND SWAP3 SWAP1 SWAP3 OR SWAP1 SWAP2 MSTORE PUSH2 0x1FB5 JUMP JUMPDEST POP POP POP JUMP JUMPDEST PUSH1 0x40 MLOAD PUSH1 0x1 PUSH1 0x1 PUSH1 0xA0 SHL SUB DUP1 DUP6 AND PUSH1 0x24 DUP4 ADD MSTORE DUP4 AND PUSH1 0x44 DUP3 ADD MSTORE PUSH1 0x64 DUP2 ADD DUP3 SWAP1 MSTORE PUSH2 0x1FA3 SWAP1 DUP6 SWAP1 PUSH4 0x23B872DD PUSH1 0xE0 SHL SWAP1 PUSH1 0x84 ADD PUSH2 0x1F2F JUMP JUMPDEST POP POP POP POP JUMP JUMPDEST PUSH1 0x0 PUSH2 0x1EE4 DUP3 DUP5 PUSH2 0x2785 JUMP JUMPDEST PUSH1 0x0 PUSH2 0x200A DUP3 PUSH1 0x40 MLOAD DUP1 PUSH1 0x40 ADD PUSH1 0x40 MSTORE DUP1 PUSH1 0x20 DUP2 MSTORE PUSH1 0x20 ADD PUSH32 0x5361666545524332303A206C6F772D6C6576656C2063616C6C206661696C6564 DUP2 MSTORE POP DUP6 PUSH1 0x1 PUSH1 0x1 PUSH1 0xA0 SHL SUB AND PUSH2 0x2087 SWAP1 SWAP3 SWAP2 SWAP1 PUSH4 0xFFFFFFFF AND JUMP JUMPDEST DUP1 MLOAD SWAP1 SWAP2 POP ISZERO PUSH2 0x1F66 JUMPI DUP1 DUP1 PUSH1 0x20 ADD SWAP1 MLOAD DUP2 ADD SWAP1 PUSH2 0x2028 SWAP2 SWAP1 PUSH2 0x28B4 JUMP JUMPDEST PUSH2 0x1F66 JUMPI PUSH1 0x40 MLOAD PUSH3 0x461BCD PUSH1 0xE5 SHL DUP2 MSTORE PUSH1 0x20 PUSH1 0x4 DUP3 ADD MSTORE PUSH1 0x2A PUSH1 0x24 DUP3 ADD MSTORE PUSH32 0x5361666545524332303A204552433230206F7065726174696F6E20646964206E PUSH1 0x44 DUP3 ADD MSTORE PUSH10 0x1BDD081CDD58D8D95959 PUSH1 0xB2 SHL PUSH1 0x64 DUP3 ADD MSTORE PUSH1 0x84 ADD PUSH2 0x5F8 JUMP JUMPDEST PUSH1 0x60 PUSH2 0x2096 DUP5 DUP5 PUSH1 0x0 DUP6 PUSH2 0x209E JUMP JUMPDEST SWAP5 SWAP4 POP POP POP POP JUMP JUMPDEST PUSH1 0x60 DUP3 SELFBALANCE LT ISZERO PUSH2 0x20FF JUMPI PUSH1 0x40 MLOAD PUSH3 0x461BCD PUSH1 0xE5 SHL DUP2 MSTORE PUSH1 0x20 PUSH1 0x4 DUP3 ADD MSTORE PUSH1 0x26 PUSH1 0x24 DUP3 ADD MSTORE PUSH32 0x416464726573733A20696E73756666696369656E742062616C616E636520666F PUSH1 0x44 DUP3 ADD MSTORE PUSH6 0x1C8818D85B1B PUSH1 0xD2 SHL PUSH1 0x64 DUP3 ADD MSTORE PUSH1 0x84 ADD PUSH2 0x5F8 JUMP JUMPDEST PUSH1 0x1 PUSH1 0x1 PUSH1 0xA0 SHL SUB DUP6 AND EXTCODESIZE PUSH2 0x2156 JUMPI PUSH1 0x40 MLOAD PUSH3 0x461BCD PUSH1 0xE5 SHL DUP2 MSTORE PUSH1 0x20 PUSH1 0x4 DUP3 ADD MSTORE PUSH1 0x1D PUSH1 0x24 DUP3 ADD MSTORE PUSH32 0x416464726573733A2063616C6C20746F206E6F6E2D636F6E7472616374000000 PUSH1 0x44 DUP3 ADD MSTORE PUSH1 0x64 ADD PUSH2 0x5F8 JUMP JUMPDEST PUSH1 0x0 DUP1 DUP7 PUSH1 0x1 PUSH1 0x1 PUSH1 0xA0 SHL SUB AND DUP6 DUP8 PUSH1 0x40 MLOAD PUSH2 0x2172 SWAP2 SWAP1 PUSH2 0x2902 JUMP JUMPDEST PUSH1 0x0 PUSH1 0x40 MLOAD DUP1 DUP4 SUB DUP2 DUP6 DUP8 GAS CALL SWAP3 POP POP POP RETURNDATASIZE DUP1 PUSH1 0x0 DUP2 EQ PUSH2 0x21AF JUMPI PUSH1 0x40 MLOAD SWAP2 POP PUSH1 0x1F NOT PUSH1 0x3F RETURNDATASIZE ADD AND DUP3 ADD PUSH1 0x40 MSTORE RETURNDATASIZE DUP3 MSTORE RETURNDATASIZE PUSH1 0x0 PUSH1 0x20 DUP5 ADD RETURNDATACOPY PUSH2 0x21B4 JUMP JUMPDEST PUSH1 0x60 SWAP2 POP JUMPDEST POP SWAP2 POP SWAP2 POP PUSH2 0x21C4 DUP3 DUP3 DUP7 PUSH2 0x21CF JUMP JUMPDEST SWAP8 SWAP7 POP POP POP POP POP POP POP JUMP JUMPDEST PUSH1 0x60 DUP4 ISZERO PUSH2 0x21DE JUMPI POP DUP2 PUSH2 0x1EE4 JUMP JUMPDEST DUP3 MLOAD ISZERO PUSH2 0x21EE JUMPI DUP3 MLOAD DUP1 DUP5 PUSH1 0x20 ADD REVERT JUMPDEST DUP2 PUSH1 0x40 MLOAD PUSH3 0x461BCD PUSH1 0xE5 SHL DUP2 MSTORE PUSH1 0x4 ADD PUSH2 0x5F8 SWAP2 SWAP1 PUSH2 0x291E JUMP JUMPDEST PUSH1 0x20 DUP1 DUP3 MSTORE DUP3 MLOAD DUP3 DUP3 ADD DUP2 SWAP1 MSTORE PUSH1 0x0 SWAP2 SWAP1 DUP5 DUP3 ADD SWAP1 PUSH1 0x40 DUP6 ADD SWAP1 DUP5 JUMPDEST DUP2 DUP2 LT ISZERO PUSH2 0x2240 JUMPI DUP4 MLOAD DUP4 MSTORE SWAP3 DUP5 ADD SWAP3 SWAP2 DUP5 ADD SWAP2 PUSH1 0x1 ADD PUSH2 0x2224 JUMP JUMPDEST POP SWAP1 SWAP7 SWAP6 POP POP POP POP POP POP JUMP JUMPDEST DUP1 CALLDATALOAD PUSH1 0x1 PUSH1 0x1 PUSH1 0xA0 SHL SUB DUP2 AND DUP2 EQ PUSH2 0x2263 JUMPI PUSH1 0x0 DUP1 REVERT JUMPDEST SWAP2 SWAP1 POP JUMP JUMPDEST PUSH1 0x0 PUSH1 0x20 DUP3 DUP5 SUB SLT ISZERO PUSH2 0x227A JUMPI PUSH1 0x0 DUP1 REVERT JUMPDEST PUSH2 0x1EE4 DUP3 PUSH2 0x224C JUMP JUMPDEST PUSH1 0x0 PUSH1 0x20 DUP3 DUP5 SUB SLT ISZERO PUSH2 0x2295 JUMPI PUSH1 0x0 DUP1 REVERT JUMPDEST POP CALLDATALOAD SWAP2 SWAP1 POP JUMP JUMPDEST PUSH1 0x20 DUP1 DUP3 MSTORE DUP3 MLOAD DUP3 DUP3 ADD DUP2 SWAP1 MSTORE PUSH1 0x0 SWAP2 SWAP1 DUP5 DUP3 ADD SWAP1 PUSH1 0x40 DUP6 ADD SWAP1 DUP5 JUMPDEST DUP2 DUP2 LT ISZERO PUSH2 0x2240 JUMPI DUP4 MLOAD PUSH1 0x1 PUSH1 0x1 PUSH1 0xA0 SHL SUB AND DUP4 MSTORE SWAP3 DUP5 ADD SWAP3 SWAP2 DUP5 ADD SWAP2 PUSH1 0x1 ADD PUSH2 0x22B8 JUMP JUMPDEST PUSH1 0x0 DUP1 PUSH1 0x0 DUP1 PUSH1 0x80 DUP6 DUP8 SUB SLT ISZERO PUSH2 0x22F3 JUMPI PUSH1 0x0 DUP1 REVERT JUMPDEST DUP5 CALLDATALOAD SWAP4 POP PUSH1 0x20 DUP6 ADD CALLDATALOAD SWAP3 POP PUSH2 0x230A PUSH1 0x40 DUP7 ADD PUSH2 0x224C JUMP JUMPDEST SWAP2 POP PUSH2 0x2318 PUSH1 0x60 DUP7 ADD PUSH2 0x224C JUMP JUMPDEST SWAP1 POP SWAP3 SWAP6 SWAP2 SWAP5 POP SWAP3 POP JUMP JUMPDEST PUSH1 0x0 DUP1 PUSH1 0x40 DUP4 DUP6 SUB SLT ISZERO PUSH2 0x2336 JUMPI PUSH1 0x0 DUP1 REVERT JUMPDEST POP POP DUP1 CALLDATALOAD SWAP3 PUSH1 0x20 SWAP1 SWAP2 ADD CALLDATALOAD SWAP2 POP JUMP JUMPDEST PUSH1 0x0 DUP1 PUSH1 0x40 DUP4 DUP6 SUB SLT ISZERO PUSH2 0x2358 JUMPI PUSH1 0x0 DUP1 REVERT JUMPDEST PUSH2 0x2361 DUP4 PUSH2 0x224C JUMP JUMPDEST SWAP5 PUSH1 0x20 SWAP4 SWAP1 SWAP4 ADD CALLDATALOAD SWAP4 POP POP POP JUMP JUMPDEST PUSH4 0x4E487B71 PUSH1 0xE0 SHL PUSH1 0x0 MSTORE PUSH1 0x41 PUSH1 0x4 MSTORE PUSH1 0x24 PUSH1 0x0 REVERT JUMPDEST PUSH1 0x40 DUP1 MLOAD SWAP1 DUP2 ADD PUSH8 0xFFFFFFFFFFFFFFFF DUP2 GT DUP3 DUP3 LT OR ISZERO PUSH2 0x23A8 JUMPI PUSH2 0x23A8 PUSH2 0x236F JUMP JUMPDEST PUSH1 0x40 MSTORE SWAP1 JUMP JUMPDEST PUSH1 0x40 MLOAD PUSH1 0x1F DUP3 ADD PUSH1 0x1F NOT AND DUP2 ADD PUSH8 0xFFFFFFFFFFFFFFFF DUP2 GT DUP3 DUP3 LT OR ISZERO PUSH2 0x23D7 JUMPI PUSH2 0x23D7 PUSH2 0x236F JUMP JUMPDEST PUSH1 0x40 MSTORE SWAP2 SWAP1 POP JUMP JUMPDEST PUSH1 0x0 PUSH8 0xFFFFFFFFFFFFFFFF DUP3 GT ISZERO PUSH2 0x23F9 JUMPI PUSH2 0x23F9 PUSH2 0x236F JUMP JUMPDEST POP PUSH1 0x5 SHL PUSH1 0x20 ADD SWAP1 JUMP JUMPDEST PUSH1 0x0 PUSH1 0x20 DUP1 DUP4 DUP6 SUB SLT ISZERO PUSH2 0x2416 JUMPI PUSH1 0x0 DUP1 REVERT JUMPDEST DUP3 CALLDATALOAD PUSH8 0xFFFFFFFFFFFFFFFF DUP2 GT ISZERO PUSH2 0x242D JUMPI PUSH1 0x0 DUP1 REVERT JUMPDEST DUP4 ADD PUSH1 0x1F DUP2 ADD DUP6 SGT PUSH2 0x243E JUMPI PUSH1 0x0 DUP1 REVERT JUMPDEST DUP1 CALLDATALOAD PUSH2 0x2451 PUSH2 0x244C DUP3 PUSH2 0x23DF JUMP JUMPDEST PUSH2 0x23AE JUMP JUMPDEST DUP2 DUP2 MSTORE PUSH1 0x5 SWAP2 SWAP1 SWAP2 SHL DUP3 ADD DUP4 ADD SWAP1 DUP4 DUP2 ADD SWAP1 DUP8 DUP4 GT ISZERO PUSH2 0x2470 JUMPI PUSH1 0x0 DUP1 REVERT JUMPDEST SWAP3 DUP5 ADD SWAP3 JUMPDEST DUP3 DUP5 LT ISZERO PUSH2 0x21C4 JUMPI PUSH2 0x2486 DUP5 PUSH2 0x224C JUMP JUMPDEST DUP3 MSTORE SWAP3 DUP5 ADD SWAP3 SWAP1 DUP5 ADD SWAP1 PUSH2 0x2475 JUMP JUMPDEST PUSH1 0x0 DUP3 PUSH1 0x1F DUP4 ADD SLT PUSH2 0x24A6 JUMPI PUSH1 0x0 DUP1 REVERT JUMPDEST DUP2 CALLDATALOAD PUSH1 0x20 PUSH2 0x24B6 PUSH2 0x244C DUP4 PUSH2 0x23DF JUMP JUMPDEST DUP3 DUP2 MSTORE PUSH1 0x5 SWAP3 SWAP1 SWAP3 SHL DUP5 ADD DUP2 ADD SWAP2 DUP2 DUP2 ADD SWAP1 DUP7 DUP5 GT ISZERO PUSH2 0x24D5 JUMPI PUSH1 0x0 DUP1 REVERT JUMPDEST DUP3 DUP7 ADD JUMPDEST DUP5 DUP2 LT ISZERO PUSH2 0x24F0 JUMPI DUP1 CALLDATALOAD DUP4 MSTORE SWAP2 DUP4 ADD SWAP2 DUP4 ADD PUSH2 0x24D9 JUMP JUMPDEST POP SWAP7 SWAP6 POP POP POP POP POP POP JUMP JUMPDEST PUSH1 0x0 DUP1 PUSH1 0x40 DUP4 DUP6 SUB SLT ISZERO PUSH2 0x250E JUMPI PUSH1 0x0 DUP1 REVERT JUMPDEST DUP3 CALLDATALOAD SWAP2 POP PUSH1 0x20 DUP4 ADD CALLDATALOAD PUSH8 0xFFFFFFFFFFFFFFFF DUP2 GT ISZERO PUSH2 0x252C JUMPI PUSH1 0x0 DUP1 REVERT JUMPDEST PUSH2 0x2538 DUP6 DUP3 DUP7 ADD PUSH2 0x2495 JUMP JUMPDEST SWAP2 POP POP SWAP3 POP SWAP3 SWAP1 POP JUMP JUMPDEST PUSH1 0x0 PUSH1 0x20 DUP1 DUP4 DUP6 SUB SLT ISZERO PUSH2 0x2555 JUMPI PUSH1 0x0 DUP1 REVERT JUMPDEST DUP3 CALLDATALOAD PUSH8 0xFFFFFFFFFFFFFFFF DUP2 GT ISZERO PUSH2 0x256C JUMPI PUSH1 0x0 DUP1 REVERT JUMPDEST DUP4 ADD PUSH1 0x1F DUP2 ADD DUP6 SGT PUSH2 0x257D JUMPI PUSH1 0x0 DUP1 REVERT JUMPDEST DUP1 CALLDATALOAD PUSH2 0x258B PUSH2 0x244C DUP3 PUSH2 0x23DF JUMP JUMPDEST DUP2 DUP2 MSTORE PUSH1 0x6 SWAP2 SWAP1 SWAP2 SHL DUP3 ADD DUP4 ADD SWAP1 DUP4 DUP2 ADD SWAP1 DUP8 DUP4 GT ISZERO PUSH2 0x25AA JUMPI PUSH1 0x0 DUP1 REVERT JUMPDEST SWAP3 DUP5 ADD SWAP3 JUMPDEST DUP3 DUP5 LT ISZERO PUSH2 0x21C4 JUMPI PUSH1 0x40 DUP5 DUP10 SUB SLT ISZERO PUSH2 0x25C8 JUMPI PUSH1 0x0 DUP1 DUP2 REVERT JUMPDEST PUSH2 0x25D0 PUSH2 0x2385 JUMP JUMPDEST PUSH2 0x25D9 DUP6 PUSH2 0x224C JUMP JUMPDEST DUP2 MSTORE DUP5 DUP7 ADD CALLDATALOAD DUP7 DUP3 ADD MSTORE DUP3 MSTORE PUSH1 0x40 SWAP1 SWAP4 ADD SWAP3 SWAP1 DUP5 ADD SWAP1 PUSH2 0x25AF JUMP JUMPDEST PUSH1 0x0 DUP1 PUSH1 0x40 DUP4 DUP6 SUB SLT ISZERO PUSH2 0x2607 JUMPI PUSH1 0x0 DUP1 REVERT JUMPDEST DUP3 CALLDATALOAD PUSH8 0xFFFFFFFFFFFFFFFF DUP1 DUP3 GT ISZERO PUSH2 0x261F JUMPI PUSH1 0x0 DUP1 REVERT JUMPDEST PUSH2 0x262B DUP7 DUP4 DUP8 ADD PUSH2 0x2495 JUMP JUMPDEST SWAP4 POP PUSH1 0x20 DUP6 ADD CALLDATALOAD SWAP2 POP DUP1 DUP3 GT ISZERO PUSH2 0x2641 JUMPI PUSH1 0x0 DUP1 REVERT JUMPDEST POP PUSH2 0x2538 DUP6 DUP3 DUP7 ADD PUSH2 0x2495 JUMP JUMPDEST PUSH1 0x20 DUP1 DUP3 MSTORE PUSH1 0x2D SWAP1 DUP3 ADD MSTORE PUSH32 0x526567697374726174696F6E20726F756E64206973206F766572206F72206E6F PUSH1 0x40 DUP3 ADD MSTORE PUSH13 0x1D081CDD185C9D1959081E595D PUSH1 0x9A SHL PUSH1 0x60 DUP3 ADD MSTORE PUSH1 0x80 ADD SWAP1 JUMP JUMPDEST PUSH1 0x20 DUP1 DUP3 MSTORE PUSH1 0x19 SWAP1 DUP3 ADD MSTORE PUSH32 0x416C6C6F77732061646D696E2061646472657373206F6E6C7900000000000000 PUSH1 0x40 DUP3 ADD MSTORE PUSH1 0x60 ADD SWAP1 JUMP JUMPDEST PUSH1 0x20 DUP1 DUP3 MSTORE PUSH1 0x1E SWAP1 DUP3 ADD MSTORE PUSH32 0x56657374696E6720706172616D657465727320617265206E6F74207365740000 PUSH1 0x40 DUP3 ADD MSTORE PUSH1 0x60 ADD SWAP1 JUMP JUMPDEST PUSH1 0x20 DUP1 DUP3 MSTORE PUSH1 0x1C SWAP1 DUP3 ADD MSTORE PUSH32 0x5468657265206973206E6F7468696E6720746F20776974686472617700000000 PUSH1 0x40 DUP3 ADD MSTORE PUSH1 0x60 ADD SWAP1 JUMP JUMPDEST PUSH4 0x4E487B71 PUSH1 0xE0 SHL PUSH1 0x0 MSTORE PUSH1 0x32 PUSH1 0x4 MSTORE PUSH1 0x24 PUSH1 0x0 REVERT JUMPDEST PUSH4 0x4E487B71 PUSH1 0xE0 SHL PUSH1 0x0 MSTORE PUSH1 0x11 PUSH1 0x4 MSTORE PUSH1 0x24 PUSH1 0x0 REVERT JUMPDEST PUSH1 0x0 PUSH1 0x1 DUP3 ADD PUSH2 0x277E JUMPI PUSH2 0x277E PUSH2 0x2756 JUMP JUMPDEST POP PUSH1 0x1 ADD SWAP1 JUMP JUMPDEST PUSH1 0x0 DUP3 DUP3 LT ISZERO PUSH2 0x2797 JUMPI PUSH2 0x2797 PUSH2 0x2756 JUMP JUMPDEST POP SUB SWAP1 JUMP JUMPDEST PUSH1 0x20 DUP1 DUP3 MSTORE PUSH1 0x26 SWAP1 DUP3 ADD MSTORE PUSH32 0x416C6C6F777320646973747269627574696F6E206F776E657220616464726573 PUSH1 0x40 DUP3 ADD MSTORE PUSH6 0x73206F6E6C79 PUSH1 0xD0 SHL PUSH1 0x60 DUP3 ADD MSTORE PUSH1 0x80 ADD SWAP1 JUMP JUMPDEST PUSH1 0x20 DUP1 DUP3 MSTORE PUSH1 0x1B SWAP1 DUP3 ADD MSTORE PUSH32 0x446973747269627574696F6E206973206E6F7420637265617465640000000000 PUSH1 0x40 DUP3 ADD MSTORE PUSH1 0x60 ADD SWAP1 JUMP JUMPDEST PUSH1 0x20 DUP1 DUP3 MSTORE PUSH1 0x22 SWAP1 DUP3 ADD MSTORE PUSH32 0x50726F76696465642061646472657373206973206E6F74207265676973746572 PUSH1 0x40 DUP3 ADD MSTORE PUSH2 0x1959 PUSH1 0xF2 SHL PUSH1 0x60 DUP3 ADD MSTORE PUSH1 0x80 ADD SWAP1 JUMP JUMPDEST PUSH1 0x0 DUP2 PUSH1 0x0 NOT DIV DUP4 GT DUP3 ISZERO ISZERO AND ISZERO PUSH2 0x2875 JUMPI PUSH2 0x2875 PUSH2 0x2756 JUMP JUMPDEST POP MUL SWAP1 JUMP JUMPDEST PUSH1 0x0 DUP3 PUSH2 0x2897 JUMPI PUSH4 0x4E487B71 PUSH1 0xE0 SHL PUSH1 0x0 MSTORE PUSH1 0x12 PUSH1 0x4 MSTORE PUSH1 0x24 PUSH1 0x0 REVERT JUMPDEST POP DIV SWAP1 JUMP JUMPDEST PUSH1 0x0 DUP3 NOT DUP3 GT ISZERO PUSH2 0x28AF JUMPI PUSH2 0x28AF PUSH2 0x2756 JUMP JUMPDEST POP ADD SWAP1 JUMP JUMPDEST PUSH1 0x0 PUSH1 0x20 DUP3 DUP5 SUB SLT ISZERO PUSH2 0x28C6 JUMPI PUSH1 0x0 DUP1 REVERT JUMPDEST DUP2 MLOAD DUP1 ISZERO ISZERO DUP2 EQ PUSH2 0x1EE4 JUMPI PUSH1 0x0 DUP1 REVERT JUMPDEST PUSH1 0x0 JUMPDEST DUP4 DUP2 LT ISZERO PUSH2 0x28F1 JUMPI DUP2 DUP2 ADD MLOAD DUP4 DUP3 ADD MSTORE PUSH1 0x20 ADD PUSH2 0x28D9 JUMP JUMPDEST DUP4 DUP2 GT ISZERO PUSH2 0x1FA3 JUMPI POP POP PUSH1 0x0 SWAP2 ADD MSTORE JUMP JUMPDEST PUSH1 0x0 DUP3 MLOAD PUSH2 0x2914 DUP2 DUP5 PUSH1 0x20 DUP8 ADD PUSH2 0x28D6 JUMP JUMPDEST SWAP2 SWAP1 SWAP2 ADD SWAP3 SWAP2 POP POP JUMP JUMPDEST PUSH1 0x20 DUP2 MSTORE PUSH1 0x0 DUP3 MLOAD DUP1 PUSH1 0x20 DUP5 ADD MSTORE PUSH2 0x293D DUP2 PUSH1 0x40 DUP6 ADD PUSH1 0x20 DUP8 ADD PUSH2 0x28D6 JUMP JUMPDEST PUSH1 0x1F ADD PUSH1 0x1F NOT AND SWAP2 SWAP1 SWAP2 ADD PUSH1 0x40 ADD SWAP3 SWAP2 POP POP JUMP INVALID LOG2 PUSH5 0x6970667358 0x22 SLT KECCAK256 SWAP11 PUSH18 0xE86254CDF52A4F805583638255EAEE7A8EC6 0xE9 PUSH9 0xCF7F111C57CBC45462 0xAB PUSH5 0x736F6C6343 STOP ADDMOD 0xE STOP CALLER LOG2 PUSH5 0x6970667358 0x22 SLT KECCAK256 DUP5 PUSH32 0xA79BA10D3ADE9E47AA6FBCC7953FD815089931E188FDB579AD7AFF3E8DDE6473 PUSH16 0x6C634300080E00330000000000000000 ",
  "sha1": "a83454505fa4966ae8664fab3de539c90704c02a",
  "source": "// SPDX-License-Identifier: MIT\n\npragma solidity ^0.8.7;\n\nimport './Distributor.sol';\n\ncontract DistributorFactory {\n\n    mapping (uint => address)     public indexesToContracts;\n    uint                          public contractsCount;\n\n    function create() public returns (address) {\n        Distributor distributorContract = new Distributor(msg.sender);\n\n        indexesToContracts[contractsCount] = address(distributorContract);\n        contractsCount++;\n\n        return address(distributorContract);\n    }\n\n    function getAll() public view returns (address[] memory) {\n        address[] memory distributors = new address[](contractsCount);\n\n        for (uint i; i < contractsCount; i++) {\n            distributors[i] = address(indexesToContracts[i]);\n        }\n\n        return distributors;\n    }\n}",
  "sourcePath": "contracts/DistributorFactory.sol",
  "type": "contract"
}